{
  "address": "0xCd80B5bd5e183319a386CB76aEEEb0F1f70F7d12",
  "abi": [
    {
      "inputs": [
        {
          "internalType": "address[]",
          "name": "admins",
          "type": "address[]"
        },
        {
          "internalType": "address[]",
          "name": "minters",
          "type": "address[]"
        },
        {
          "internalType": "address[]",
          "name": "pausers",
          "type": "address[]"
        }
      ],
      "stateMutability": "nonpayable",
      "type": "constructor"
    },
    {
      "anonymous": false,
      "inputs": [
        {
          "indexed": true,
          "internalType": "address",
          "name": "owner",
          "type": "address"
        },
        {
          "indexed": true,
          "internalType": "address",
          "name": "spender",
          "type": "address"
        },
        {
          "indexed": false,
          "internalType": "uint256",
          "name": "value",
          "type": "uint256"
        }
      ],
      "name": "Approval",
      "type": "event"
    },
    {
      "anonymous": false,
      "inputs": [
        {
          "indexed": true,
          "internalType": "address",
          "name": "delegator",
          "type": "address"
        },
        {
          "indexed": true,
          "internalType": "address",
          "name": "fromDelegate",
          "type": "address"
        },
        {
          "indexed": true,
          "internalType": "address",
          "name": "toDelegate",
          "type": "address"
        }
      ],
      "name": "DelegateChanged",
      "type": "event"
    },
    {
      "anonymous": false,
      "inputs": [
        {
          "indexed": true,
          "internalType": "address",
          "name": "delegate",
          "type": "address"
        },
        {
          "indexed": false,
          "internalType": "uint256",
          "name": "previousBalance",
          "type": "uint256"
        },
        {
          "indexed": false,
          "internalType": "uint256",
          "name": "newBalance",
          "type": "uint256"
        }
      ],
      "name": "DelegateVotesChanged",
      "type": "event"
    },
    {
      "anonymous": false,
      "inputs": [
        {
          "indexed": false,
          "internalType": "address",
          "name": "account",
          "type": "address"
        }
      ],
      "name": "Paused",
      "type": "event"
    },
    {
      "anonymous": false,
      "inputs": [
        {
          "indexed": true,
          "internalType": "bytes32",
          "name": "role",
          "type": "bytes32"
        },
        {
          "indexed": true,
          "internalType": "bytes32",
          "name": "previousAdminRole",
          "type": "bytes32"
        },
        {
          "indexed": true,
          "internalType": "bytes32",
          "name": "newAdminRole",
          "type": "bytes32"
        }
      ],
      "name": "RoleAdminChanged",
      "type": "event"
    },
    {
      "anonymous": false,
      "inputs": [
        {
          "indexed": true,
          "internalType": "bytes32",
          "name": "role",
          "type": "bytes32"
        },
        {
          "indexed": true,
          "internalType": "address",
          "name": "account",
          "type": "address"
        },
        {
          "indexed": true,
          "internalType": "address",
          "name": "sender",
          "type": "address"
        }
      ],
      "name": "RoleGranted",
      "type": "event"
    },
    {
      "anonymous": false,
      "inputs": [
        {
          "indexed": true,
          "internalType": "bytes32",
          "name": "role",
          "type": "bytes32"
        },
        {
          "indexed": true,
          "internalType": "address",
          "name": "account",
          "type": "address"
        },
        {
          "indexed": true,
          "internalType": "address",
          "name": "sender",
          "type": "address"
        }
      ],
      "name": "RoleRevoked",
      "type": "event"
    },
    {
      "anonymous": false,
      "inputs": [
        {
          "indexed": true,
          "internalType": "address",
          "name": "from",
          "type": "address"
        },
        {
          "indexed": true,
          "internalType": "address",
          "name": "to",
          "type": "address"
        },
        {
          "indexed": false,
          "internalType": "uint256",
          "name": "value",
          "type": "uint256"
        }
      ],
      "name": "Transfer",
      "type": "event"
    },
    {
      "anonymous": false,
      "inputs": [
        {
          "indexed": false,
          "internalType": "address",
          "name": "account",
          "type": "address"
        }
      ],
      "name": "Unpaused",
      "type": "event"
    },
    {
      "inputs": [],
      "name": "DEFAULT_ADMIN_ROLE",
      "outputs": [
        {
          "internalType": "bytes32",
          "name": "",
          "type": "bytes32"
        }
      ],
      "stateMutability": "view",
      "type": "function"
    },
    {
      "inputs": [],
      "name": "DOMAIN_SEPARATOR",
      "outputs": [
        {
          "internalType": "bytes32",
          "name": "",
          "type": "bytes32"
        }
      ],
      "stateMutability": "view",
      "type": "function"
    },
    {
      "inputs": [],
      "name": "MINTER_ROLE",
      "outputs": [
        {
          "internalType": "bytes32",
          "name": "",
          "type": "bytes32"
        }
      ],
      "stateMutability": "view",
      "type": "function"
    },
    {
      "inputs": [],
      "name": "PAUSER_ROLE",
      "outputs": [
        {
          "internalType": "bytes32",
          "name": "",
          "type": "bytes32"
        }
      ],
      "stateMutability": "view",
      "type": "function"
    },
    {
      "inputs": [
        {
          "internalType": "address",
          "name": "owner",
          "type": "address"
        },
        {
          "internalType": "address",
          "name": "spender",
          "type": "address"
        }
      ],
      "name": "allowance",
      "outputs": [
        {
          "internalType": "uint256",
          "name": "",
          "type": "uint256"
        }
      ],
      "stateMutability": "view",
      "type": "function"
    },
    {
      "inputs": [
        {
          "internalType": "address",
          "name": "spender",
          "type": "address"
        },
        {
          "internalType": "uint256",
          "name": "amount",
          "type": "uint256"
        }
      ],
      "name": "approve",
      "outputs": [
        {
          "internalType": "bool",
          "name": "",
          "type": "bool"
        }
      ],
      "stateMutability": "nonpayable",
      "type": "function"
    },
    {
      "inputs": [
        {
          "internalType": "address",
          "name": "account",
          "type": "address"
        }
      ],
      "name": "balanceOf",
      "outputs": [
        {
          "internalType": "uint256",
          "name": "",
          "type": "uint256"
        }
      ],
      "stateMutability": "view",
      "type": "function"
    },
    {
      "inputs": [
        {
          "internalType": "uint256",
          "name": "amount",
          "type": "uint256"
        }
      ],
      "name": "burn",
      "outputs": [],
      "stateMutability": "nonpayable",
      "type": "function"
    },
    {
      "inputs": [
        {
          "internalType": "address",
          "name": "from",
          "type": "address"
        },
        {
          "internalType": "uint256",
          "name": "amount",
          "type": "uint256"
        }
      ],
      "name": "burnFrom",
      "outputs": [],
      "stateMutability": "nonpayable",
      "type": "function"
    },
    {
      "inputs": [
        {
          "internalType": "address",
          "name": "account",
          "type": "address"
        },
        {
          "internalType": "uint32",
          "name": "pos",
          "type": "uint32"
        }
      ],
      "name": "checkpoints",
      "outputs": [
        {
          "components": [
            {
              "internalType": "uint32",
              "name": "fromBlock",
              "type": "uint32"
            },
            {
              "internalType": "uint224",
              "name": "votes",
              "type": "uint224"
            }
          ],
          "internalType": "struct ERC20Votes.Checkpoint",
          "name": "",
          "type": "tuple"
        }
      ],
      "stateMutability": "view",
      "type": "function"
    },
    {
      "inputs": [],
      "name": "decimals",
      "outputs": [
        {
          "internalType": "uint8",
          "name": "",
          "type": "uint8"
        }
      ],
      "stateMutability": "view",
      "type": "function"
    },
    {
      "inputs": [
        {
          "internalType": "address",
          "name": "spender",
          "type": "address"
        },
        {
          "internalType": "uint256",
          "name": "subtractedValue",
          "type": "uint256"
        }
      ],
      "name": "decreaseAllowance",
      "outputs": [
        {
          "internalType": "bool",
          "name": "",
          "type": "bool"
        }
      ],
      "stateMutability": "nonpayable",
      "type": "function"
    },
    {
      "inputs": [
        {
          "internalType": "address",
          "name": "delegatee",
          "type": "address"
        }
      ],
      "name": "delegate",
      "outputs": [],
      "stateMutability": "nonpayable",
      "type": "function"
    },
    {
      "inputs": [
        {
          "internalType": "address",
          "name": "delegatee",
          "type": "address"
        },
        {
          "internalType": "uint256",
          "name": "nonce",
          "type": "uint256"
        },
        {
          "internalType": "uint256",
          "name": "expiry",
          "type": "uint256"
        },
        {
          "internalType": "uint8",
          "name": "v",
          "type": "uint8"
        },
        {
          "internalType": "bytes32",
          "name": "r",
          "type": "bytes32"
        },
        {
          "internalType": "bytes32",
          "name": "s",
          "type": "bytes32"
        }
      ],
      "name": "delegateBySig",
      "outputs": [],
      "stateMutability": "nonpayable",
      "type": "function"
    },
    {
      "inputs": [
        {
          "internalType": "address",
          "name": "account",
          "type": "address"
        }
      ],
      "name": "delegates",
      "outputs": [
        {
          "internalType": "address",
          "name": "",
          "type": "address"
        }
      ],
      "stateMutability": "view",
      "type": "function"
    },
    {
      "inputs": [
        {
          "internalType": "uint256",
          "name": "blockNumber",
          "type": "uint256"
        }
      ],
      "name": "getPastTotalSupply",
      "outputs": [
        {
          "internalType": "uint256",
          "name": "",
          "type": "uint256"
        }
      ],
      "stateMutability": "view",
      "type": "function"
    },
    {
      "inputs": [
        {
          "internalType": "address",
          "name": "account",
          "type": "address"
        },
        {
          "internalType": "uint256",
          "name": "blockNumber",
          "type": "uint256"
        }
      ],
      "name": "getPastVotes",
      "outputs": [
        {
          "internalType": "uint256",
          "name": "",
          "type": "uint256"
        }
      ],
      "stateMutability": "view",
      "type": "function"
    },
    {
      "inputs": [
        {
          "internalType": "bytes32",
          "name": "role",
          "type": "bytes32"
        }
      ],
      "name": "getRoleAdmin",
      "outputs": [
        {
          "internalType": "bytes32",
          "name": "",
          "type": "bytes32"
        }
      ],
      "stateMutability": "view",
      "type": "function"
    },
    {
      "inputs": [
        {
          "internalType": "address",
          "name": "account",
          "type": "address"
        }
      ],
      "name": "getVotes",
      "outputs": [
        {
          "internalType": "uint256",
          "name": "",
          "type": "uint256"
        }
      ],
      "stateMutability": "view",
      "type": "function"
    },
    {
      "inputs": [
        {
          "internalType": "bytes32",
          "name": "role",
          "type": "bytes32"
        },
        {
          "internalType": "address",
          "name": "account",
          "type": "address"
        }
      ],
      "name": "grantRole",
      "outputs": [],
      "stateMutability": "nonpayable",
      "type": "function"
    },
    {
      "inputs": [
        {
          "internalType": "bytes32",
          "name": "role",
          "type": "bytes32"
        },
        {
          "internalType": "address",
          "name": "account",
          "type": "address"
        }
      ],
      "name": "hasRole",
      "outputs": [
        {
          "internalType": "bool",
          "name": "",
          "type": "bool"
        }
      ],
      "stateMutability": "view",
      "type": "function"
    },
    {
      "inputs": [
        {
          "internalType": "address",
          "name": "spender",
          "type": "address"
        },
        {
          "internalType": "uint256",
          "name": "addedValue",
          "type": "uint256"
        }
      ],
      "name": "increaseAllowance",
      "outputs": [
        {
          "internalType": "bool",
          "name": "",
          "type": "bool"
        }
      ],
      "stateMutability": "nonpayable",
      "type": "function"
    },
    {
      "inputs": [
        {
          "internalType": "address",
          "name": "to",
          "type": "address"
        },
        {
          "internalType": "uint256",
          "name": "amount",
          "type": "uint256"
        }
      ],
      "name": "mint",
      "outputs": [],
      "stateMutability": "nonpayable",
      "type": "function"
    },
    {
      "inputs": [],
      "name": "name",
      "outputs": [
        {
          "internalType": "string",
          "name": "",
          "type": "string"
        }
      ],
      "stateMutability": "view",
      "type": "function"
    },
    {
      "inputs": [
        {
          "internalType": "address",
          "name": "owner",
          "type": "address"
        }
      ],
      "name": "nonces",
      "outputs": [
        {
          "internalType": "uint256",
          "name": "",
          "type": "uint256"
        }
      ],
      "stateMutability": "view",
      "type": "function"
    },
    {
      "inputs": [
        {
          "internalType": "address",
          "name": "account",
          "type": "address"
        }
      ],
      "name": "numCheckpoints",
      "outputs": [
        {
          "internalType": "uint32",
          "name": "",
          "type": "uint32"
        }
      ],
      "stateMutability": "view",
      "type": "function"
    },
    {
      "inputs": [],
      "name": "pause",
      "outputs": [],
      "stateMutability": "nonpayable",
      "type": "function"
    },
    {
      "inputs": [],
      "name": "paused",
      "outputs": [
        {
          "internalType": "bool",
          "name": "",
          "type": "bool"
        }
      ],
      "stateMutability": "view",
      "type": "function"
    },
    {
      "inputs": [
        {
          "internalType": "address",
          "name": "owner",
          "type": "address"
        },
        {
          "internalType": "address",
          "name": "spender",
          "type": "address"
        },
        {
          "internalType": "uint256",
          "name": "value",
          "type": "uint256"
        },
        {
          "internalType": "uint256",
          "name": "deadline",
          "type": "uint256"
        },
        {
          "internalType": "uint8",
          "name": "v",
          "type": "uint8"
        },
        {
          "internalType": "bytes32",
          "name": "r",
          "type": "bytes32"
        },
        {
          "internalType": "bytes32",
          "name": "s",
          "type": "bytes32"
        }
      ],
      "name": "permit",
      "outputs": [],
      "stateMutability": "nonpayable",
      "type": "function"
    },
    {
      "inputs": [
        {
          "internalType": "bytes32",
          "name": "role",
          "type": "bytes32"
        },
        {
          "internalType": "address",
          "name": "account",
          "type": "address"
        }
      ],
      "name": "renounceRole",
      "outputs": [],
      "stateMutability": "nonpayable",
      "type": "function"
    },
    {
      "inputs": [
        {
          "internalType": "bytes32",
          "name": "role",
          "type": "bytes32"
        },
        {
          "internalType": "address",
          "name": "account",
          "type": "address"
        }
      ],
      "name": "revokeRole",
      "outputs": [],
      "stateMutability": "nonpayable",
      "type": "function"
    },
    {
      "inputs": [
        {
          "internalType": "bytes4",
          "name": "interfaceId",
          "type": "bytes4"
        }
      ],
      "name": "supportsInterface",
      "outputs": [
        {
          "internalType": "bool",
          "name": "",
          "type": "bool"
        }
      ],
      "stateMutability": "view",
      "type": "function"
    },
    {
      "inputs": [],
      "name": "symbol",
      "outputs": [
        {
          "internalType": "string",
          "name": "",
          "type": "string"
        }
      ],
      "stateMutability": "view",
      "type": "function"
    },
    {
      "inputs": [],
      "name": "totalSupply",
      "outputs": [
        {
          "internalType": "uint256",
          "name": "",
          "type": "uint256"
        }
      ],
      "stateMutability": "view",
      "type": "function"
    },
    {
      "inputs": [
        {
          "internalType": "address",
          "name": "to",
          "type": "address"
        },
        {
          "internalType": "uint256",
          "name": "amount",
          "type": "uint256"
        }
      ],
      "name": "transfer",
      "outputs": [
        {
          "internalType": "bool",
          "name": "",
          "type": "bool"
        }
      ],
      "stateMutability": "nonpayable",
      "type": "function"
    },
    {
      "inputs": [
        {
          "internalType": "address",
          "name": "from",
          "type": "address"
        },
        {
          "internalType": "address",
          "name": "to",
          "type": "address"
        },
        {
          "internalType": "uint256",
          "name": "amount",
          "type": "uint256"
        }
      ],
      "name": "transferFrom",
      "outputs": [
        {
          "internalType": "bool",
          "name": "",
          "type": "bool"
        }
      ],
      "stateMutability": "nonpayable",
      "type": "function"
    },
    {
      "inputs": [],
      "name": "unpause",
      "outputs": [],
      "stateMutability": "nonpayable",
      "type": "function"
    }
  ],
  "transactionHash": "0x17d9782c09c8b6bd991aa85848a7c5278cf66f5578cce4f5bd67495231ecd632",
  "args": [
    [
      "0x90bC78b839fCC1c652CCF8d6A527687AE432A3Bc",
      "0xbCAfBA20FfF6157247Fed450BA45776594587fe0"
    ],
    [
      "0x90bC78b839fCC1c652CCF8d6A527687AE432A3Bc",
      "0xbCAfBA20FfF6157247Fed450BA45776594587fe0",
      "0x2d4C5F7a3914C56262af754E0fF16Ac8Ec8c952A"
    ],
    [
      "0x90bC78b839fCC1c652CCF8d6A527687AE432A3Bc",
      "0xbCAfBA20FfF6157247Fed450BA45776594587fe0"
    ]
  ],
  "numDeployments": 1,
  "solcInputHash": "8954a1dbbdeb92e7b5f479e7bc6275a0",
  "bytecode": "0x6101406040523480156200001257600080fd5b5060405162002e0a38038062002e0a833981016040819052620000359162000604565b6040518060400160405280600681526020016541726d61646160d01b81525080604051806040016040528060018152602001603160f81b8152506040518060400160405280600681526020016541726d61646160d01b8152506040518060400160405280600681526020016541524d41444160d01b8152508160039080519060200190620000c59291906200047e565b508051620000db9060049060208401906200047e565b5050825160209384012082519284019290922060e08390526101008190524660a0818152604080517f8b73c3c69bb8fe3d512ecc4cf759cc79239f7b179b0ffacaa9a75d522b39400f818901819052818301979097526060810194909452608080850193909352308483018190528151808603909301835260c094850190915281519190960120905292909252610120525050600b805460ff1916905560005b83518110156200023b5760006001600160a01b0316848281518110620001a557620001a562000695565b60200260200101516001600160a01b03161415620001f75760405162461bcd60e51b815260206004820152600a6024820152693d32b9379030b236b4b760b11b60448201526064015b60405180910390fd5b620002286000801b85838151811062000214576200021462000695565b6020026020010151620003d960201b60201c565b6200023381620006ab565b90506200017b565b5060005b8251811015620003055760006001600160a01b031683828151811062000269576200026962000695565b60200260200101516001600160a01b03161415620002b85760405162461bcd60e51b815260206004820152600b60248201526a3d32b9379036b4b73a32b960a91b6044820152606401620001ee565b620002f27f9f2df0fed2c77648de5860a4cc508cd0818c85b8b8a1ab4ceeef8d981c8956a684838151811062000214576200021462000695565b620002fd81620006ab565b90506200023f565b5060005b8151811015620003cf5760006001600160a01b031682828151811062000333576200033362000695565b60200260200101516001600160a01b03161415620003825760405162461bcd60e51b815260206004820152600b60248201526a3d32b937903830bab9b2b960a91b6044820152606401620001ee565b620003bc7f65d7a28e3265b37a6474929f336521b332c1681b933f6cb9f3376673440d862a83838151811062000214576200021462000695565b620003c781620006ab565b905062000309565b5050505062000712565b6000828152600a602090815260408083206001600160a01b038516845290915290205460ff166200047a576000828152600a602090815260408083206001600160a01b03851684529091529020805460ff19166001179055620004393390565b6001600160a01b0316816001600160a01b0316837f2f8788117e7eff1d82e926ec794901d17c78024a50270940304540a733656f0d60405160405180910390a45b5050565b8280546200048c90620006d5565b90600052602060002090601f016020900481019282620004b05760008555620004fb565b82601f10620004cb57805160ff1916838001178555620004fb565b82800160010185558215620004fb579182015b82811115620004fb578251825591602001919060010190620004de565b50620005099291506200050d565b5090565b5b808211156200050957600081556001016200050e565b634e487b7160e01b600052604160045260246000fd5b80516001600160a01b03811681146200055257600080fd5b919050565b600082601f8301126200056957600080fd5b815160206001600160401b038083111562000588576200058862000524565b8260051b604051601f19603f83011681018181108482111715620005b057620005b062000524565b604052938452858101830193838101925087851115620005cf57600080fd5b83870191505b84821015620005f957620005e9826200053a565b83529183019190830190620005d5565b979650505050505050565b6000806000606084860312156200061a57600080fd5b83516001600160401b03808211156200063257600080fd5b620006408783880162000557565b945060208601519150808211156200065757600080fd5b620006658783880162000557565b935060408601519150808211156200067c57600080fd5b506200068b8682870162000557565b9150509250925092565b634e487b7160e01b600052603260045260246000fd5b6000600019821415620006ce57634e487b7160e01b600052601160045260246000fd5b5060010190565b600181811c90821680620006ea57607f821691505b602082108114156200070c57634e487b7160e01b600052602260045260246000fd5b50919050565b60805160a05160c05160e05161010051610120516126a862000762600039600061128a015260006112d9015260006112b40152600061120d015260006112370152600061126101526126a86000f3fe608060405234801561001057600080fd5b50600436106102275760003560e01c80636fcfff4511610130578063a217fddf116100b8578063d53913931161007c578063d5391393146104cd578063d547741f146104f4578063dd62ed3e14610507578063e63ab1e91461051a578063f1127ed81461054157600080fd5b8063a217fddf14610479578063a457c2d714610481578063a9059cbb14610494578063c3cda520146104a7578063d505accf146104ba57600080fd5b80638456cb59116100ff5780638456cb59146104305780638e539e8c1461043857806391d148541461044b57806395d89b411461045e5780639ab24eb01461046657600080fd5b80636fcfff45146103b957806370a08231146103e157806379cc67901461040a5780637ecebe001461041d57600080fd5b806336568abe116101b357806340c10f191161018257806340c10f191461033157806342966c6814610344578063587cde1e146103575780635c19a95c1461039b5780635c975abb146103ae57600080fd5b806336568abe146102f057806339509351146103035780633a46b1a8146103165780633f4ba83a1461032957600080fd5b806323b872dd116101fa57806323b872dd1461028e578063248a9ca3146102a15780632f2ff15d146102c4578063313ce567146102d95780633644e515146102e857600080fd5b806301ffc9a71461022c57806306fdde0314610254578063095ea7b31461026957806318160ddd1461027c575b600080fd5b61023f61023a366004612241565b61057e565b60405190151581526020015b60405180910390f35b61025c6105b5565b60405161024b9190612297565b61023f6102773660046122e6565b610647565b6002545b60405190815260200161024b565b61023f61029c366004612310565b61065f565b6102806102af36600461234c565b6000908152600a602052604090206001015490565b6102d76102d2366004612365565b610683565b005b6040516012815260200161024b565b6102806106ad565b6102d76102fe366004612365565b6106bc565b61023f6103113660046122e6565b61073f565b6102806103243660046122e6565b610761565b6102d76107db565b6102d761033f3660046122e6565b610810565b6102d761035236600461234c565b610844565b610383610365366004612391565b6001600160a01b039081166000908152600760205260409020541690565b6040516001600160a01b03909116815260200161024b565b6102d76103a9366004612391565b61084e565b600b5460ff1661023f565b6103cc6103c7366004612391565b610858565b60405163ffffffff909116815260200161024b565b6102806103ef366004612391565b6001600160a01b031660009081526020819052604090205490565b6102d76104183660046122e6565b61087a565b61028061042b366004612391565b61088f565b6102d76108ad565b61028061044636600461234c565b6108df565b61023f610459366004612365565b61093b565b61025c610966565b610280610474366004612391565b610975565b610280600081565b61023f61048f3660046122e6565b6109fc565b61023f6104a23660046122e6565b610a77565b6102d76104b53660046123bd565b610a85565b6102d76104c8366004612415565b610bbb565b6102807f9f2df0fed2c77648de5860a4cc508cd0818c85b8b8a1ab4ceeef8d981c8956a681565b6102d7610502366004612365565b610d1f565b61028061051536600461247f565b610d44565b6102807f65d7a28e3265b37a6474929f336521b332c1681b933f6cb9f3376673440d862a81565b61055461054f3660046124a9565b610d6f565b60408051825163ffffffff1681526020928301516001600160e01b0316928101929092520161024b565b60006001600160e01b03198216637965db0b60e01b14806105af57506301ffc9a760e01b6001600160e01b03198316145b92915050565b6060600380546105c4906124e9565b80601f01602080910402602001604051908101604052809291908181526020018280546105f0906124e9565b801561063d5780601f106106125761010080835404028352916020019161063d565b820191906000526020600020905b81548152906001019060200180831161062057829003601f168201915b5050505050905090565b600033610655818585610df3565b5060019392505050565b60003361066d858285610f17565b610678858585610f91565b506001949350505050565b6000828152600a602052604090206001015461069e81611170565b6106a8838361117a565b505050565b60006106b7611200565b905090565b6001600160a01b03811633146107315760405162461bcd60e51b815260206004820152602f60248201527f416363657373436f6e74726f6c3a2063616e206f6e6c792072656e6f756e636560448201526e103937b632b9903337b91039b2b63360891b60648201526084015b60405180910390fd5b61073b8282611327565b5050565b6000336106558185856107528383610d44565b61075c9190612534565b610df3565b60004382106107b25760405162461bcd60e51b815260206004820152601f60248201527f4552433230566f7465733a20626c6f636b206e6f7420796574206d696e6564006044820152606401610728565b6001600160a01b03831660009081526008602052604090206107d4908361138e565b9392505050565b7f65d7a28e3265b37a6474929f336521b332c1681b933f6cb9f3376673440d862a61080581611170565b61080d61144b565b50565b7f9f2df0fed2c77648de5860a4cc508cd0818c85b8b8a1ab4ceeef8d981c8956a661083a81611170565b6106a883836114de565b61080d3382611568565b61080d3382611580565b6001600160a01b0381166000908152600860205260408120546105af906115f9565b610885823383610f17565b61073b8282611568565b6001600160a01b0381166000908152600560205260408120546105af565b7f65d7a28e3265b37a6474929f336521b332c1681b933f6cb9f3376673440d862a6108d781611170565b61080d611662565b60004382106109305760405162461bcd60e51b815260206004820152601f60248201527f4552433230566f7465733a20626c6f636b206e6f7420796574206d696e6564006044820152606401610728565b6105af60098361138e565b6000918252600a602090815260408084206001600160a01b0393909316845291905290205460ff1690565b6060600480546105c4906124e9565b6001600160a01b03811660009081526008602052604081205480156109e9576001600160a01b03831660009081526008602052604090206109b760018361254c565b815481106109c7576109c7612563565b60009182526020909120015464010000000090046001600160e01b03166109ec565b60005b6001600160e01b03169392505050565b60003381610a0a8286610d44565b905083811015610a6a5760405162461bcd60e51b815260206004820152602560248201527f45524332303a2064656372656173656420616c6c6f77616e63652062656c6f77604482015264207a65726f60d81b6064820152608401610728565b6106788286868403610df3565b600033610655818585610f91565b83421115610ad55760405162461bcd60e51b815260206004820152601d60248201527f4552433230566f7465733a207369676e617475726520657870697265640000006044820152606401610728565b604080517fe48329057bfd03d55e49b547132e39cffd9c1820ad7b9d4c5307691425d15adf60208201526001600160a01b038816918101919091526060810186905260808101859052600090610b4f90610b479060a001604051602081830303815290604052805190602001206116dd565b85858561172b565b9050610b5a81611753565b8614610ba85760405162461bcd60e51b815260206004820152601960248201527f4552433230566f7465733a20696e76616c6964206e6f6e6365000000000000006044820152606401610728565b610bb28188611580565b50505050505050565b83421115610c0b5760405162461bcd60e51b815260206004820152601d60248201527f45524332305065726d69743a206578706972656420646561646c696e650000006044820152606401610728565b60007f6e71edae12b1b97f4d1f60370fef10105fa2faae0126114a169c64845d6126c9888888610c3a8c611753565b6040805160208101969096526001600160a01b0394851690860152929091166060840152608083015260a082015260c0810186905260e0016040516020818303038152906040528051906020012090506000610c95826116dd565b90506000610ca58287878761172b565b9050896001600160a01b0316816001600160a01b031614610d085760405162461bcd60e51b815260206004820152601e60248201527f45524332305065726d69743a20696e76616c6964207369676e617475726500006044820152606401610728565b610d138a8a8a610df3565b50505050505050505050565b6000828152600a6020526040902060010154610d3a81611170565b6106a88383611327565b6001600160a01b03918216600090815260016020908152604080832093909416825291909152205490565b60408051808201909152600080825260208201526001600160a01b0383166000908152600860205260409020805463ffffffff8416908110610db357610db3612563565b60009182526020918290206040805180820190915291015463ffffffff8116825264010000000090046001600160e01b0316918101919091529392505050565b6001600160a01b038316610e555760405162461bcd60e51b8152602060048201526024808201527f45524332303a20617070726f76652066726f6d20746865207a65726f206164646044820152637265737360e01b6064820152608401610728565b6001600160a01b038216610eb65760405162461bcd60e51b815260206004820152602260248201527f45524332303a20617070726f766520746f20746865207a65726f206164647265604482015261737360f01b6064820152608401610728565b6001600160a01b0383811660008181526001602090815260408083209487168084529482529182902085905590518481527f8c5be1e5ebec7d5bd14f71427d1e84f3dd0314c0f7b2291e5b200ac8c7c3b925910160405180910390a3505050565b6000610f238484610d44565b90506000198114610f8b5781811015610f7e5760405162461bcd60e51b815260206004820152601d60248201527f45524332303a20696e73756666696369656e7420616c6c6f77616e63650000006044820152606401610728565b610f8b8484848403610df3565b50505050565b6001600160a01b038316610ff55760405162461bcd60e51b815260206004820152602560248201527f45524332303a207472616e736665722066726f6d20746865207a65726f206164604482015264647265737360d81b6064820152608401610728565b6001600160a01b0382166110575760405162461bcd60e51b815260206004820152602360248201527f45524332303a207472616e7366657220746f20746865207a65726f206164647260448201526265737360e81b6064820152608401610728565b61106283838361177b565b6001600160a01b038316600090815260208190526040902054818110156110da5760405162461bcd60e51b815260206004820152602660248201527f45524332303a207472616e7366657220616d6f756e7420657863656564732062604482015265616c616e636560d01b6064820152608401610728565b6001600160a01b03808516600090815260208190526040808220858503905591851681529081208054849290611111908490612534565b92505081905550826001600160a01b0316846001600160a01b03167fddf252ad1be2c89b69c2b068fc378daa952ba7f163c4a11628f55a4df523b3ef8460405161115d91815260200190565b60405180910390a3610f8b8484846117c1565b61080d81336117f3565b611184828261093b565b61073b576000828152600a602090815260408083206001600160a01b03851684529091529020805460ff191660011790556111bc3390565b6001600160a01b0316816001600160a01b0316837f2f8788117e7eff1d82e926ec794901d17c78024a50270940304540a733656f0d60405160405180910390a45050565b6000306001600160a01b037f00000000000000000000000000000000000000000000000000000000000000001614801561125957507f000000000000000000000000000000000000000000000000000000000000000046145b1561128357507f000000000000000000000000000000000000000000000000000000000000000090565b50604080517f00000000000000000000000000000000000000000000000000000000000000006020808301919091527f0000000000000000000000000000000000000000000000000000000000000000828401527f000000000000000000000000000000000000000000000000000000000000000060608301524660808301523060a0808401919091528351808403909101815260c0909201909252805191012090565b611331828261093b565b1561073b576000828152600a602090815260408083206001600160a01b0385168085529252808320805460ff1916905551339285917ff6391f5c32d9c69d2a47ea670b442974b53935d1edc7fd64eb21e047a839171b9190a45050565b8154600090815b818110156113f25760006113a98284611857565b9050848682815481106113be576113be612563565b60009182526020909120015463ffffffff1611156113de578092506113ec565b6113e9816001612534565b91505b50611395565b8115611436578461140460018461254c565b8154811061141457611414612563565b60009182526020909120015464010000000090046001600160e01b0316611439565b60005b6001600160e01b031695945050505050565b600b5460ff166114945760405162461bcd60e51b815260206004820152601460248201527314185d5cd8589b194e881b9bdd081c185d5cd95960621b6044820152606401610728565b600b805460ff191690557f5db9ee0a495bf2e6ff9c91a7834c1ba4fdd244a5e8aa4e537bd38aeae4b073aa335b6040516001600160a01b03909116815260200160405180910390a1565b6114e88282611872565b6002546001600160e01b03101561155a5760405162461bcd60e51b815260206004820152603060248201527f4552433230566f7465733a20746f74616c20737570706c79207269736b73206f60448201526f766572666c6f77696e6720766f74657360801b6064820152608401610728565b610f8b600961196583611971565b6115728282611aea565b610f8b6009611c4b83611971565b6001600160a01b038281166000818152600760208181526040808420805485845282862054949093528787166001600160a01b03198416811790915590519190951694919391928592917f3134e8a2e6d97e929a7e54011ea5485d7d196dd5f0ba4d4ef95803e8e3fc257f9190a4610f8b828483611c57565b600063ffffffff82111561165e5760405162461bcd60e51b815260206004820152602660248201527f53616665436173743a2076616c756520646f65736e27742066697420696e203360448201526532206269747360d01b6064820152608401610728565b5090565b600b5460ff16156116a85760405162461bcd60e51b815260206004820152601060248201526f14185d5cd8589b194e881c185d5cd95960821b6044820152606401610728565b600b805460ff191660011790557f62e78cea01bee320cd4e420270b5ea74000d11b0c9f74754ebdbfc544b05a2586114c13390565b60006105af6116ea611200565b8360405161190160f01b6020820152602281018390526042810182905260009060620160405160208183030381529060405280519060200120905092915050565b600080600061173c87878787611d94565b9150915061174981611e81565b5095945050505050565b6001600160a01b03811660009081526005602052604090208054600181018255905b50919050565b600b5460ff16156106a85760405162461bcd60e51b815260206004820152601060248201526f14185d5cd8589b194e881c185d5cd95960821b6044820152606401610728565b6001600160a01b038381166000908152600760205260408082205485841683529120546106a892918216911683611c57565b6117fd828261093b565b61073b57611815816001600160a01b0316601461203c565b61182083602061203c565b604051602001611831929190612579565b60408051601f198184030181529082905262461bcd60e51b825261072891600401612297565b600061186660028484186125ee565b6107d490848416612534565b6001600160a01b0382166118c85760405162461bcd60e51b815260206004820152601f60248201527f45524332303a206d696e7420746f20746865207a65726f2061646472657373006044820152606401610728565b6118d46000838361177b565b80600260008282546118e69190612534565b90915550506001600160a01b03821660009081526020819052604081208054839290611913908490612534565b90915550506040518181526001600160a01b038316906000907fddf252ad1be2c89b69c2b068fc378daa952ba7f163c4a11628f55a4df523b3ef9060200160405180910390a361073b600083836117c1565b60006107d48284612534565b8254600090819080156119bc578561198a60018361254c565b8154811061199a5761199a612563565b60009182526020909120015464010000000090046001600160e01b03166119bf565b60005b6001600160e01b031692506119d883858763ffffffff16565b9150600081118015611a16575043866119f260018461254c565b81548110611a0257611a02612563565b60009182526020909120015463ffffffff16145b15611a7657611a24826121d8565b86611a3060018461254c565b81548110611a4057611a40612563565b9060005260206000200160000160046101000a8154816001600160e01b0302191690836001600160e01b03160217905550611ae1565b856040518060400160405280611a8b436115f9565b63ffffffff168152602001611a9f856121d8565b6001600160e01b0390811690915282546001810184556000938452602093849020835194909301519091166401000000000263ffffffff909316929092179101555b50935093915050565b6001600160a01b038216611b4a5760405162461bcd60e51b815260206004820152602160248201527f45524332303a206275726e2066726f6d20746865207a65726f206164647265736044820152607360f81b6064820152608401610728565b611b568260008361177b565b6001600160a01b03821660009081526020819052604090205481811015611bca5760405162461bcd60e51b815260206004820152602260248201527f45524332303a206275726e20616d6f756e7420657863656564732062616c616e604482015261636560f01b6064820152608401610728565b6001600160a01b0383166000908152602081905260408120838303905560028054849290611bf990849061254c565b90915550506040518281526000906001600160a01b038516907fddf252ad1be2c89b69c2b068fc378daa952ba7f163c4a11628f55a4df523b3ef9060200160405180910390a36106a8836000846117c1565b60006107d4828461254c565b816001600160a01b0316836001600160a01b031614158015611c795750600081115b156106a8576001600160a01b03831615611d07576001600160a01b03831660009081526008602052604081208190611cb490611c4b85611971565b91509150846001600160a01b03167fdec2bacdd2f05b59de34da9b523dff8be42e5e38e818c82fdb0bae774387a7248383604051611cfc929190918252602082015260400190565b60405180910390a250505b6001600160a01b038216156106a8576001600160a01b03821660009081526008602052604081208190611d3d9061196585611971565b91509150836001600160a01b03167fdec2bacdd2f05b59de34da9b523dff8be42e5e38e818c82fdb0bae774387a7248383604051611d85929190918252602082015260400190565b60405180910390a25050505050565b6000807f7fffffffffffffffffffffffffffffff5d576e7357a4501ddfe92f46681b20a0831115611dcb5750600090506003611e78565b8460ff16601b14158015611de357508460ff16601c14155b15611df45750600090506004611e78565b6040805160008082526020820180845289905260ff881692820192909252606081018690526080810185905260019060a0016020604051602081039080840390855afa158015611e48573d6000803e3d6000fd5b5050604051601f1901519150506001600160a01b038116611e7157600060019250925050611e78565b9150600090505b94509492505050565b6000816004811115611e9557611e95612610565b1415611e9e5750565b6001816004811115611eb257611eb2612610565b1415611f005760405162461bcd60e51b815260206004820152601860248201527f45434453413a20696e76616c6964207369676e617475726500000000000000006044820152606401610728565b6002816004811115611f1457611f14612610565b1415611f625760405162461bcd60e51b815260206004820152601f60248201527f45434453413a20696e76616c6964207369676e6174757265206c656e677468006044820152606401610728565b6003816004811115611f7657611f76612610565b1415611fcf5760405162461bcd60e51b815260206004820152602260248201527f45434453413a20696e76616c6964207369676e6174757265202773272076616c604482015261756560f01b6064820152608401610728565b6004816004811115611fe357611fe3612610565b141561080d5760405162461bcd60e51b815260206004820152602260248201527f45434453413a20696e76616c6964207369676e6174757265202776272076616c604482015261756560f01b6064820152608401610728565b6060600061204b836002612626565b612056906002612534565b67ffffffffffffffff81111561206e5761206e612645565b6040519080825280601f01601f191660200182016040528015612098576020820181803683370190505b509050600360fc1b816000815181106120b3576120b3612563565b60200101906001600160f81b031916908160001a905350600f60fb1b816001815181106120e2576120e2612563565b60200101906001600160f81b031916908160001a9053506000612106846002612626565b612111906001612534565b90505b6001811115612189576f181899199a1a9b1b9c1cb0b131b232b360811b85600f166010811061214557612145612563565b1a60f81b82828151811061215b5761215b612563565b60200101906001600160f81b031916908160001a90535060049490941c936121828161265b565b9050612114565b5083156107d45760405162461bcd60e51b815260206004820181905260248201527f537472696e67733a20686578206c656e67746820696e73756666696369656e746044820152606401610728565b60006001600160e01b0382111561165e5760405162461bcd60e51b815260206004820152602760248201527f53616665436173743a2076616c756520646f65736e27742066697420696e20326044820152663234206269747360c81b6064820152608401610728565b60006020828403121561225357600080fd5b81356001600160e01b0319811681146107d457600080fd5b60005b8381101561228657818101518382015260200161226e565b83811115610f8b5750506000910152565b60208152600082518060208401526122b681604085016020870161226b565b601f01601f19169190910160400192915050565b80356001600160a01b03811681146122e157600080fd5b919050565b600080604083850312156122f957600080fd5b612302836122ca565b946020939093013593505050565b60008060006060848603121561232557600080fd5b61232e846122ca565b925061233c602085016122ca565b9150604084013590509250925092565b60006020828403121561235e57600080fd5b5035919050565b6000806040838503121561237857600080fd5b82359150612388602084016122ca565b90509250929050565b6000602082840312156123a357600080fd5b6107d4826122ca565b803560ff811681146122e157600080fd5b60008060008060008060c087890312156123d657600080fd5b6123df876122ca565b955060208701359450604087013593506123fb606088016123ac565b92506080870135915060a087013590509295509295509295565b600080600080600080600060e0888a03121561243057600080fd5b612439886122ca565b9650612447602089016122ca565b95506040880135945060608801359350612463608089016123ac565b925060a0880135915060c0880135905092959891949750929550565b6000806040838503121561249257600080fd5b61249b836122ca565b9150612388602084016122ca565b600080604083850312156124bc57600080fd5b6124c5836122ca565b9150602083013563ffffffff811681146124de57600080fd5b809150509250929050565b600181811c908216806124fd57607f821691505b6020821081141561177557634e487b7160e01b600052602260045260246000fd5b634e487b7160e01b600052601160045260246000fd5b600082198211156125475761254761251e565b500190565b60008282101561255e5761255e61251e565b500390565b634e487b7160e01b600052603260045260246000fd5b7f416363657373436f6e74726f6c3a206163636f756e74200000000000000000008152600083516125b181601785016020880161226b565b7001034b99036b4b9b9b4b733903937b6329607d1b60179184019182015283516125e281602884016020880161226b565b01602801949350505050565b60008261260b57634e487b7160e01b600052601260045260246000fd5b500490565b634e487b7160e01b600052602160045260246000fd5b60008160001904831182151516156126405761264061251e565b500290565b634e487b7160e01b600052604160045260246000fd5b60008161266a5761266a61251e565b50600019019056fea2646970667358221220c4278b83c89eb8e5bd0f13542f1ee55fde8edc46f4da5f0da9fc9c2c999a324d64736f6c63430008090033",
  "devdoc": {
    "kind": "dev",
    "methods": {
      "DOMAIN_SEPARATOR()": {
        "details": "See {IERC20Permit-DOMAIN_SEPARATOR}."
      },
      "allowance(address,address)": {
        "details": "See {IERC20-allowance}."
      },
      "approve(address,uint256)": {
        "details": "See {IERC20-approve}. NOTE: If `amount` is the maximum `uint256`, the allowance is not updated on `transferFrom`. This is semantically equivalent to an infinite approval. Requirements: - `spender` cannot be the zero address."
      },
      "balanceOf(address)": {
        "details": "See {IERC20-balanceOf}."
      },
      "checkpoints(address,uint32)": {
        "details": "Get the `pos`-th checkpoint for `account`."
      },
      "decimals()": {
        "details": "Returns the number of decimals used to get its user representation. For example, if `decimals` equals `2`, a balance of `505` tokens should be displayed to a user as `5.05` (`505 / 10 ** 2`). Tokens usually opt for a value of 18, imitating the relationship between Ether and Wei. This is the value {ERC20} uses, unless this function is overridden; NOTE: This information is only used for _display_ purposes: it in no way affects any of the arithmetic of the contract, including {IERC20-balanceOf} and {IERC20-transfer}."
      },
      "decreaseAllowance(address,uint256)": {
        "details": "Atomically decreases the allowance granted to `spender` by the caller. This is an alternative to {approve} that can be used as a mitigation for problems described in {IERC20-approve}. Emits an {Approval} event indicating the updated allowance. Requirements: - `spender` cannot be the zero address. - `spender` must have allowance for the caller of at least `subtractedValue`."
      },
      "delegate(address)": {
        "details": "Delegate votes from the sender to `delegatee`."
      },
      "delegateBySig(address,uint256,uint256,uint8,bytes32,bytes32)": {
        "details": "Delegates votes from signer to `delegatee`"
      },
      "delegates(address)": {
        "details": "Get the address `account` is currently delegating to."
      },
      "getPastTotalSupply(uint256)": {
        "details": "Retrieve the `totalSupply` at the end of `blockNumber`. Note, this value is the sum of all balances. It is but NOT the sum of all the delegated votes! Requirements: - `blockNumber` must have been already mined"
      },
      "getPastVotes(address,uint256)": {
        "details": "Retrieve the number of votes for `account` at the end of `blockNumber`. Requirements: - `blockNumber` must have been already mined"
      },
      "getRoleAdmin(bytes32)": {
        "details": "Returns the admin role that controls `role`. See {grantRole} and {revokeRole}. To change a role's admin, use {_setRoleAdmin}."
      },
      "getVotes(address)": {
        "details": "Gets the current votes balance for `account`"
      },
      "grantRole(bytes32,address)": {
        "details": "Grants `role` to `account`. If `account` had not been already granted `role`, emits a {RoleGranted} event. Requirements: - the caller must have ``role``'s admin role."
      },
      "hasRole(bytes32,address)": {
        "details": "Returns `true` if `account` has been granted `role`."
      },
      "increaseAllowance(address,uint256)": {
        "details": "Atomically increases the allowance granted to `spender` by the caller. This is an alternative to {approve} that can be used as a mitigation for problems described in {IERC20-approve}. Emits an {Approval} event indicating the updated allowance. Requirements: - `spender` cannot be the zero address."
      },
      "name()": {
        "details": "Returns the name of the token."
      },
      "nonces(address)": {
        "details": "See {IERC20Permit-nonces}."
      },
      "numCheckpoints(address)": {
        "details": "Get number of checkpoints for `account`."
      },
      "paused()": {
        "details": "Returns true if the contract is paused, and false otherwise."
      },
      "permit(address,address,uint256,uint256,uint8,bytes32,bytes32)": {
        "details": "See {IERC20Permit-permit}."
      },
      "renounceRole(bytes32,address)": {
        "details": "Revokes `role` from the calling account. Roles are often managed via {grantRole} and {revokeRole}: this function's purpose is to provide a mechanism for accounts to lose their privileges if they are compromised (such as when a trusted device is misplaced). If the calling account had been revoked `role`, emits a {RoleRevoked} event. Requirements: - the caller must be `account`."
      },
      "revokeRole(bytes32,address)": {
        "details": "Revokes `role` from `account`. If `account` had been granted `role`, emits a {RoleRevoked} event. Requirements: - the caller must have ``role``'s admin role."
      },
      "supportsInterface(bytes4)": {
        "details": "See {IERC165-supportsInterface}."
      },
      "symbol()": {
        "details": "Returns the symbol of the token, usually a shorter version of the name."
      },
      "totalSupply()": {
        "details": "See {IERC20-totalSupply}."
      },
      "transfer(address,uint256)": {
        "details": "See {IERC20-transfer}. Requirements: - `to` cannot be the zero address. - the caller must have a balance of at least `amount`."
      },
      "transferFrom(address,address,uint256)": {
        "details": "See {IERC20-transferFrom}. Emits an {Approval} event indicating the updated allowance. This is not required by the EIP. See the note at the beginning of {ERC20}. NOTE: Does not update the allowance if the current allowance is the maximum `uint256`. Requirements: - `from` and `to` cannot be the zero address. - `from` must have a balance of at least `amount`. - the caller must have allowance for ``from``'s tokens of at least `amount`."
      }
    },
    "version": 1
  },
  "userdoc": {
    "kind": "user",
    "methods": {},
    "version": 1
  },
  "storageLayout": {
    "storage": [
      {
        "astId": 5930,
        "contract": "contracts/ArmadaToken.sol:ArmadaToken",
        "label": "_balances",
        "offset": 0,
        "slot": "0",
        "type": "t_mapping(t_address,t_uint256)"
      },
      {
        "astId": 5936,
        "contract": "contracts/ArmadaToken.sol:ArmadaToken",
        "label": "_allowances",
        "offset": 0,
        "slot": "1",
        "type": "t_mapping(t_address,t_mapping(t_address,t_uint256))"
      },
      {
        "astId": 5938,
        "contract": "contracts/ArmadaToken.sol:ArmadaToken",
        "label": "_totalSupply",
        "offset": 0,
        "slot": "2",
        "type": "t_uint256"
      },
      {
        "astId": 5940,
        "contract": "contracts/ArmadaToken.sol:ArmadaToken",
        "label": "_name",
        "offset": 0,
        "slot": "3",
        "type": "t_string_storage"
      },
      {
        "astId": 5942,
        "contract": "contracts/ArmadaToken.sol:ArmadaToken",
        "label": "_symbol",
        "offset": 0,
        "slot": "4",
        "type": "t_string_storage"
      },
      {
        "astId": 7263,
        "contract": "contracts/ArmadaToken.sol:ArmadaToken",
        "label": "_nonces",
        "offset": 0,
        "slot": "5",
        "type": "t_mapping(t_address,t_struct(Counter)7789_storage)"
      },
      {
        "astId": 7271,
        "contract": "contracts/ArmadaToken.sol:ArmadaToken",
        "label": "_PERMIT_TYPEHASH_DEPRECATED_SLOT",
        "offset": 0,
        "slot": "6",
        "type": "t_bytes32"
      },
      {
        "astId": 6604,
        "contract": "contracts/ArmadaToken.sol:ArmadaToken",
        "label": "_delegates",
        "offset": 0,
        "slot": "7",
        "type": "t_mapping(t_address,t_address)"
      },
      {
        "astId": 6610,
        "contract": "contracts/ArmadaToken.sol:ArmadaToken",
        "label": "_checkpoints",
        "offset": 0,
        "slot": "8",
        "type": "t_mapping(t_address,t_array(t_struct(Checkpoint)6595_storage)dyn_storage)"
      },
      {
        "astId": 6614,
        "contract": "contracts/ArmadaToken.sol:ArmadaToken",
        "label": "_totalSupplyCheckpoints",
        "offset": 0,
        "slot": "9",
        "type": "t_array(t_struct(Checkpoint)6595_storage)dyn_storage"
      },
      {
        "astId": 1878,
        "contract": "contracts/ArmadaToken.sol:ArmadaToken",
        "label": "_roles",
        "offset": 0,
        "slot": "10",
        "type": "t_mapping(t_bytes32,t_struct(RoleData)1873_storage)"
      },
      {
        "astId": 5799,
        "contract": "contracts/ArmadaToken.sol:ArmadaToken",
        "label": "_paused",
        "offset": 0,
        "slot": "11",
        "type": "t_bool"
      }
    ],
    "types": {
      "t_address": {
        "encoding": "inplace",
        "label": "address",
        "numberOfBytes": "20"
      },
      "t_array(t_struct(Checkpoint)6595_storage)dyn_storage": {
        "base": "t_struct(Checkpoint)6595_storage",
        "encoding": "dynamic_array",
        "label": "struct ERC20Votes.Checkpoint[]",
        "numberOfBytes": "32"
      },
      "t_bool": {
        "encoding": "inplace",
        "label": "bool",
        "numberOfBytes": "1"
      },
      "t_bytes32": {
        "encoding": "inplace",
        "label": "bytes32",
        "numberOfBytes": "32"
      },
      "t_mapping(t_address,t_address)": {
        "encoding": "mapping",
        "key": "t_address",
        "label": "mapping(address => address)",
        "numberOfBytes": "32",
        "value": "t_address"
      },
      "t_mapping(t_address,t_array(t_struct(Checkpoint)6595_storage)dyn_storage)": {
        "encoding": "mapping",
        "key": "t_address",
        "label": "mapping(address => struct ERC20Votes.Checkpoint[])",
        "numberOfBytes": "32",
        "value": "t_array(t_struct(Checkpoint)6595_storage)dyn_storage"
      },
      "t_mapping(t_address,t_bool)": {
        "encoding": "mapping",
        "key": "t_address",
        "label": "mapping(address => bool)",
        "numberOfBytes": "32",
        "value": "t_bool"
      },
      "t_mapping(t_address,t_mapping(t_address,t_uint256))": {
        "encoding": "mapping",
        "key": "t_address",
        "label": "mapping(address => mapping(address => uint256))",
        "numberOfBytes": "32",
        "value": "t_mapping(t_address,t_uint256)"
      },
      "t_mapping(t_address,t_struct(Counter)7789_storage)": {
        "encoding": "mapping",
        "key": "t_address",
        "label": "mapping(address => struct Counters.Counter)",
        "numberOfBytes": "32",
        "value": "t_struct(Counter)7789_storage"
      },
      "t_mapping(t_address,t_uint256)": {
        "encoding": "mapping",
        "key": "t_address",
        "label": "mapping(address => uint256)",
        "numberOfBytes": "32",
        "value": "t_uint256"
      },
      "t_mapping(t_bytes32,t_struct(RoleData)1873_storage)": {
        "encoding": "mapping",
        "key": "t_bytes32",
        "label": "mapping(bytes32 => struct AccessControl.RoleData)",
        "numberOfBytes": "32",
        "value": "t_struct(RoleData)1873_storage"
      },
      "t_string_storage": {
        "encoding": "bytes",
        "label": "string",
        "numberOfBytes": "32"
      },
      "t_struct(Checkpoint)6595_storage": {
        "encoding": "inplace",
        "label": "struct ERC20Votes.Checkpoint",
        "members": [
          {
            "astId": 6592,
            "contract": "contracts/ArmadaToken.sol:ArmadaToken",
            "label": "fromBlock",
            "offset": 0,
            "slot": "0",
            "type": "t_uint32"
          },
          {
            "astId": 6594,
            "contract": "contracts/ArmadaToken.sol:ArmadaToken",
            "label": "votes",
            "offset": 4,
            "slot": "0",
            "type": "t_uint224"
          }
        ],
        "numberOfBytes": "32"
      },
      "t_struct(Counter)7789_storage": {
        "encoding": "inplace",
        "label": "struct Counters.Counter",
        "members": [
          {
            "astId": 7788,
            "contract": "contracts/ArmadaToken.sol:ArmadaToken",
            "label": "_value",
            "offset": 0,
            "slot": "0",
            "type": "t_uint256"
          }
        ],
        "numberOfBytes": "32"
      },
      "t_struct(RoleData)1873_storage": {
        "encoding": "inplace",
        "label": "struct AccessControl.RoleData",
        "members": [
          {
            "astId": 1870,
            "contract": "contracts/ArmadaToken.sol:ArmadaToken",
            "label": "members",
            "offset": 0,
            "slot": "0",
            "type": "t_mapping(t_address,t_bool)"
          },
          {
            "astId": 1872,
            "contract": "contracts/ArmadaToken.sol:ArmadaToken",
            "label": "adminRole",
            "offset": 0,
            "slot": "1",
            "type": "t_bytes32"
          }
        ],
        "numberOfBytes": "64"
      },
      "t_uint224": {
        "encoding": "inplace",
        "label": "uint224",
        "numberOfBytes": "28"
      },
      "t_uint256": {
        "encoding": "inplace",
        "label": "uint256",
        "numberOfBytes": "32"
      },
      "t_uint32": {
        "encoding": "inplace",
        "label": "uint32",
        "numberOfBytes": "4"
      }
    }
  }
}