{
  "address": "0xc82176dcd38aCAA550810C7C6A7410053815C50d",
  "abi": [
    {
      "anonymous": false,
      "inputs": [
        {
          "indexed": false,
          "internalType": "address",
          "name": "previousAdmin",
          "type": "address"
        },
        {
          "indexed": false,
          "internalType": "address",
          "name": "newAdmin",
          "type": "address"
        }
      ],
      "name": "AdminChanged",
      "type": "event"
    },
    {
      "anonymous": false,
      "inputs": [
        {
          "indexed": true,
          "internalType": "address",
          "name": "beacon",
          "type": "address"
        }
      ],
      "name": "BeaconUpgraded",
      "type": "event"
    },
    {
      "anonymous": false,
      "inputs": [
        {
          "indexed": false,
          "internalType": "uint8",
          "name": "version",
          "type": "uint8"
        }
      ],
      "name": "Initialized",
      "type": "event"
    },
    {
      "anonymous": false,
      "inputs": [
        {
          "indexed": true,
          "internalType": "bytes32",
          "name": "operatorId",
          "type": "bytes32"
        },
        {
          "indexed": false,
          "internalType": "uint256",
          "name": "oldBalance",
          "type": "uint256"
        },
        {
          "indexed": false,
          "internalType": "uint256",
          "name": "newBalance",
          "type": "uint256"
        }
      ],
      "name": "OperatorBalanceChanged",
      "type": "event"
    },
    {
      "anonymous": false,
      "inputs": [
        {
          "indexed": true,
          "internalType": "bytes32",
          "name": "operatorId",
          "type": "bytes32"
        },
        {
          "indexed": true,
          "internalType": "address",
          "name": "owner",
          "type": "address"
        },
        {
          "indexed": false,
          "internalType": "string",
          "name": "name",
          "type": "string"
        },
        {
          "indexed": false,
          "internalType": "string",
          "name": "email",
          "type": "string"
        }
      ],
      "name": "OperatorCreated",
      "type": "event"
    },
    {
      "anonymous": false,
      "inputs": [
        {
          "indexed": true,
          "internalType": "bytes32",
          "name": "operatorId",
          "type": "bytes32"
        },
        {
          "indexed": true,
          "internalType": "address",
          "name": "owner",
          "type": "address"
        },
        {
          "indexed": false,
          "internalType": "string",
          "name": "name",
          "type": "string"
        },
        {
          "indexed": false,
          "internalType": "string",
          "name": "email",
          "type": "string"
        }
      ],
      "name": "OperatorDeleted",
      "type": "event"
    },
    {
      "anonymous": false,
      "inputs": [
        {
          "indexed": true,
          "internalType": "bytes32",
          "name": "operatorId",
          "type": "bytes32"
        },
        {
          "indexed": true,
          "internalType": "address",
          "name": "oldOwner",
          "type": "address"
        },
        {
          "indexed": true,
          "internalType": "address",
          "name": "newOwner",
          "type": "address"
        }
      ],
      "name": "OperatorOwnerChanged",
      "type": "event"
    },
    {
      "anonymous": false,
      "inputs": [
        {
          "indexed": true,
          "internalType": "bytes32",
          "name": "operatorId",
          "type": "bytes32"
        },
        {
          "indexed": false,
          "internalType": "string",
          "name": "oldName",
          "type": "string"
        },
        {
          "indexed": false,
          "internalType": "string",
          "name": "oldEmail",
          "type": "string"
        },
        {
          "indexed": false,
          "internalType": "string",
          "name": "newName",
          "type": "string"
        },
        {
          "indexed": false,
          "internalType": "string",
          "name": "newEmail",
          "type": "string"
        }
      ],
      "name": "OperatorPropsChanged",
      "type": "event"
    },
    {
      "anonymous": false,
      "inputs": [
        {
          "indexed": true,
          "internalType": "bytes32",
          "name": "operatorId",
          "type": "bytes32"
        },
        {
          "indexed": false,
          "internalType": "uint256",
          "name": "oldStake",
          "type": "uint256"
        },
        {
          "indexed": false,
          "internalType": "uint256",
          "name": "newStake",
          "type": "uint256"
        }
      ],
      "name": "OperatorStakeChanged",
      "type": "event"
    },
    {
      "anonymous": false,
      "inputs": [
        {
          "indexed": false,
          "internalType": "address",
          "name": "account",
          "type": "address"
        }
      ],
      "name": "Paused",
      "type": "event"
    },
    {
      "anonymous": false,
      "inputs": [
        {
          "indexed": true,
          "internalType": "bytes32",
          "name": "role",
          "type": "bytes32"
        },
        {
          "indexed": true,
          "internalType": "bytes32",
          "name": "previousAdminRole",
          "type": "bytes32"
        },
        {
          "indexed": true,
          "internalType": "bytes32",
          "name": "newAdminRole",
          "type": "bytes32"
        }
      ],
      "name": "RoleAdminChanged",
      "type": "event"
    },
    {
      "anonymous": false,
      "inputs": [
        {
          "indexed": true,
          "internalType": "bytes32",
          "name": "role",
          "type": "bytes32"
        },
        {
          "indexed": true,
          "internalType": "address",
          "name": "account",
          "type": "address"
        },
        {
          "indexed": true,
          "internalType": "address",
          "name": "sender",
          "type": "address"
        }
      ],
      "name": "RoleGranted",
      "type": "event"
    },
    {
      "anonymous": false,
      "inputs": [
        {
          "indexed": true,
          "internalType": "bytes32",
          "name": "role",
          "type": "bytes32"
        },
        {
          "indexed": true,
          "internalType": "address",
          "name": "account",
          "type": "address"
        },
        {
          "indexed": true,
          "internalType": "address",
          "name": "sender",
          "type": "address"
        }
      ],
      "name": "RoleRevoked",
      "type": "event"
    },
    {
      "anonymous": false,
      "inputs": [
        {
          "indexed": false,
          "internalType": "address",
          "name": "account",
          "type": "address"
        }
      ],
      "name": "Unpaused",
      "type": "event"
    },
    {
      "anonymous": false,
      "inputs": [
        {
          "indexed": true,
          "internalType": "address",
          "name": "implementation",
          "type": "address"
        }
      ],
      "name": "Upgraded",
      "type": "event"
    },
    {
      "inputs": [],
      "name": "DEFAULT_ADMIN_ROLE",
      "outputs": [
        {
          "internalType": "bytes32",
          "name": "",
          "type": "bytes32"
        }
      ],
      "stateMutability": "view",
      "type": "function"
    },
    {
      "inputs": [],
      "name": "IMPORTER_ROLE",
      "outputs": [
        {
          "internalType": "bytes32",
          "name": "",
          "type": "bytes32"
        }
      ],
      "stateMutability": "view",
      "type": "function"
    },
    {
      "inputs": [
        {
          "internalType": "address",
          "name": "owner",
          "type": "address"
        },
        {
          "internalType": "string",
          "name": "name",
          "type": "string"
        },
        {
          "internalType": "string",
          "name": "email",
          "type": "string"
        }
      ],
      "name": "createOperator",
      "outputs": [
        {
          "internalType": "bytes32",
          "name": "operatorId",
          "type": "bytes32"
        }
      ],
      "stateMutability": "nonpayable",
      "type": "function"
    },
    {
      "inputs": [
        {
          "internalType": "bytes32",
          "name": "operatorId",
          "type": "bytes32"
        }
      ],
      "name": "deleteOperator",
      "outputs": [],
      "stateMutability": "nonpayable",
      "type": "function"
    },
    {
      "inputs": [
        {
          "internalType": "bytes32",
          "name": "operatorId",
          "type": "bytes32"
        },
        {
          "internalType": "uint256",
          "name": "amount",
          "type": "uint256"
        },
        {
          "internalType": "uint256",
          "name": "deadline",
          "type": "uint256"
        },
        {
          "internalType": "uint8",
          "name": "v",
          "type": "uint8"
        },
        {
          "internalType": "bytes32",
          "name": "r",
          "type": "bytes32"
        },
        {
          "internalType": "bytes32",
          "name": "s",
          "type": "bytes32"
        }
      ],
      "name": "depositOperatorBalance",
      "outputs": [],
      "stateMutability": "nonpayable",
      "type": "function"
    },
    {
      "inputs": [
        {
          "internalType": "bytes32",
          "name": "operatorId",
          "type": "bytes32"
        },
        {
          "internalType": "uint256",
          "name": "amount",
          "type": "uint256"
        },
        {
          "internalType": "uint256",
          "name": "deadline",
          "type": "uint256"
        },
        {
          "internalType": "uint8",
          "name": "v",
          "type": "uint8"
        },
        {
          "internalType": "bytes32",
          "name": "r",
          "type": "bytes32"
        },
        {
          "internalType": "bytes32",
          "name": "s",
          "type": "bytes32"
        }
      ],
      "name": "depositOperatorStake",
      "outputs": [],
      "stateMutability": "nonpayable",
      "type": "function"
    },
    {
      "inputs": [
        {
          "internalType": "bytes32",
          "name": "operatorId",
          "type": "bytes32"
        }
      ],
      "name": "getOperator",
      "outputs": [
        {
          "components": [
            {
              "internalType": "bytes32",
              "name": "id",
              "type": "bytes32"
            },
            {
              "internalType": "address",
              "name": "owner",
              "type": "address"
            },
            {
              "internalType": "string",
              "name": "name",
              "type": "string"
            },
            {
              "internalType": "string",
              "name": "email",
              "type": "string"
            },
            {
              "internalType": "uint256",
              "name": "stake",
              "type": "uint256"
            },
            {
              "internalType": "uint256",
              "name": "balance",
              "type": "uint256"
            }
          ],
          "internalType": "struct ArmadaOperator",
          "name": "",
          "type": "tuple"
        }
      ],
      "stateMutability": "view",
      "type": "function"
    },
    {
      "inputs": [],
      "name": "getOperatorCount",
      "outputs": [
        {
          "internalType": "uint256",
          "name": "",
          "type": "uint256"
        }
      ],
      "stateMutability": "view",
      "type": "function"
    },
    {
      "inputs": [
        {
          "internalType": "uint256",
          "name": "skip",
          "type": "uint256"
        },
        {
          "internalType": "uint256",
          "name": "size",
          "type": "uint256"
        }
      ],
      "name": "getOperators",
      "outputs": [
        {
          "components": [
            {
              "internalType": "bytes32",
              "name": "id",
              "type": "bytes32"
            },
            {
              "internalType": "address",
              "name": "owner",
              "type": "address"
            },
            {
              "internalType": "string",
              "name": "name",
              "type": "string"
            },
            {
              "internalType": "string",
              "name": "email",
              "type": "string"
            },
            {
              "internalType": "uint256",
              "name": "stake",
              "type": "uint256"
            },
            {
              "internalType": "uint256",
              "name": "balance",
              "type": "uint256"
            }
          ],
          "internalType": "struct ArmadaOperator[]",
          "name": "values",
          "type": "tuple[]"
        }
      ],
      "stateMutability": "view",
      "type": "function"
    },
    {
      "inputs": [],
      "name": "getRegistry",
      "outputs": [
        {
          "internalType": "contract ArmadaRegistry",
          "name": "",
          "type": "address"
        }
      ],
      "stateMutability": "view",
      "type": "function"
    },
    {
      "inputs": [
        {
          "internalType": "bytes32",
          "name": "role",
          "type": "bytes32"
        }
      ],
      "name": "getRoleAdmin",
      "outputs": [
        {
          "internalType": "bytes32",
          "name": "",
          "type": "bytes32"
        }
      ],
      "stateMutability": "view",
      "type": "function"
    },
    {
      "inputs": [],
      "name": "getStakePerNode",
      "outputs": [
        {
          "internalType": "uint256",
          "name": "",
          "type": "uint256"
        }
      ],
      "stateMutability": "view",
      "type": "function"
    },
    {
      "inputs": [
        {
          "internalType": "bytes32",
          "name": "role",
          "type": "bytes32"
        },
        {
          "internalType": "address",
          "name": "account",
          "type": "address"
        }
      ],
      "name": "grantRole",
      "outputs": [],
      "stateMutability": "nonpayable",
      "type": "function"
    },
    {
      "inputs": [
        {
          "internalType": "bytes32",
          "name": "role",
          "type": "bytes32"
        },
        {
          "internalType": "address",
          "name": "account",
          "type": "address"
        }
      ],
      "name": "hasRole",
      "outputs": [
        {
          "internalType": "bool",
          "name": "",
          "type": "bool"
        }
      ],
      "stateMutability": "view",
      "type": "function"
    },
    {
      "inputs": [
        {
          "internalType": "address[]",
          "name": "admins",
          "type": "address[]"
        },
        {
          "internalType": "contract ArmadaRegistry",
          "name": "registry",
          "type": "address"
        },
        {
          "internalType": "uint256",
          "name": "stakePerNode",
          "type": "uint256"
        },
        {
          "internalType": "bool",
          "name": "grantImporterRole",
          "type": "bool"
        }
      ],
      "name": "initialize",
      "outputs": [],
      "stateMutability": "nonpayable",
      "type": "function"
    },
    {
      "inputs": [],
      "name": "pause",
      "outputs": [],
      "stateMutability": "nonpayable",
      "type": "function"
    },
    {
      "inputs": [],
      "name": "paused",
      "outputs": [
        {
          "internalType": "bool",
          "name": "",
          "type": "bool"
        }
      ],
      "stateMutability": "view",
      "type": "function"
    },
    {
      "inputs": [],
      "name": "proxiableUUID",
      "outputs": [
        {
          "internalType": "bytes32",
          "name": "",
          "type": "bytes32"
        }
      ],
      "stateMutability": "view",
      "type": "function"
    },
    {
      "inputs": [
        {
          "internalType": "bytes32",
          "name": "role",
          "type": "bytes32"
        },
        {
          "internalType": "address",
          "name": "account",
          "type": "address"
        }
      ],
      "name": "renounceRole",
      "outputs": [],
      "stateMutability": "nonpayable",
      "type": "function"
    },
    {
      "inputs": [
        {
          "internalType": "bytes32",
          "name": "nodeId",
          "type": "bytes32"
        },
        {
          "internalType": "address",
          "name": "sender",
          "type": "address"
        }
      ],
      "name": "requireTopologyNode",
      "outputs": [],
      "stateMutability": "nonpayable",
      "type": "function"
    },
    {
      "inputs": [
        {
          "internalType": "bytes32",
          "name": "role",
          "type": "bytes32"
        },
        {
          "internalType": "address",
          "name": "account",
          "type": "address"
        }
      ],
      "name": "revokeRole",
      "outputs": [],
      "stateMutability": "nonpayable",
      "type": "function"
    },
    {
      "inputs": [
        {
          "internalType": "bytes32",
          "name": "operatorId",
          "type": "bytes32"
        },
        {
          "internalType": "uint256",
          "name": "decrease",
          "type": "uint256"
        },
        {
          "internalType": "uint256",
          "name": "increase",
          "type": "uint256"
        }
      ],
      "name": "setOperatorBalanceImpl",
      "outputs": [],
      "stateMutability": "nonpayable",
      "type": "function"
    },
    {
      "inputs": [
        {
          "internalType": "bytes32",
          "name": "operatorId",
          "type": "bytes32"
        },
        {
          "internalType": "address",
          "name": "owner",
          "type": "address"
        }
      ],
      "name": "setOperatorOwner",
      "outputs": [],
      "stateMutability": "nonpayable",
      "type": "function"
    },
    {
      "inputs": [
        {
          "internalType": "bytes32",
          "name": "operatorId",
          "type": "bytes32"
        },
        {
          "internalType": "string",
          "name": "name",
          "type": "string"
        },
        {
          "internalType": "string",
          "name": "email",
          "type": "string"
        }
      ],
      "name": "setOperatorProps",
      "outputs": [],
      "stateMutability": "nonpayable",
      "type": "function"
    },
    {
      "inputs": [
        {
          "internalType": "uint256",
          "name": "stake",
          "type": "uint256"
        }
      ],
      "name": "setStakePerNode",
      "outputs": [],
      "stateMutability": "nonpayable",
      "type": "function"
    },
    {
      "inputs": [
        {
          "internalType": "bytes4",
          "name": "interfaceId",
          "type": "bytes4"
        }
      ],
      "name": "supportsInterface",
      "outputs": [
        {
          "internalType": "bool",
          "name": "",
          "type": "bool"
        }
      ],
      "stateMutability": "view",
      "type": "function"
    },
    {
      "inputs": [],
      "name": "unpause",
      "outputs": [],
      "stateMutability": "nonpayable",
      "type": "function"
    },
    {
      "inputs": [
        {
          "components": [
            {
              "internalType": "bytes32",
              "name": "id",
              "type": "bytes32"
            },
            {
              "internalType": "address",
              "name": "owner",
              "type": "address"
            },
            {
              "internalType": "string",
              "name": "name",
              "type": "string"
            },
            {
              "internalType": "string",
              "name": "email",
              "type": "string"
            },
            {
              "internalType": "uint256",
              "name": "stake",
              "type": "uint256"
            },
            {
              "internalType": "uint256",
              "name": "balance",
              "type": "uint256"
            }
          ],
          "internalType": "struct ArmadaOperator[]",
          "name": "operators",
          "type": "tuple[]"
        },
        {
          "internalType": "bool",
          "name": "revokeImporterRole",
          "type": "bool"
        }
      ],
      "name": "unsafeImportData",
      "outputs": [],
      "stateMutability": "nonpayable",
      "type": "function"
    },
    {
      "inputs": [
        {
          "internalType": "uint256",
          "name": "skip",
          "type": "uint256"
        },
        {
          "internalType": "uint256",
          "name": "size",
          "type": "uint256"
        },
        {
          "internalType": "uint256",
          "name": "mul",
          "type": "uint256"
        },
        {
          "internalType": "uint256",
          "name": "div",
          "type": "uint256"
        }
      ],
      "name": "unsafeSetBalances",
      "outputs": [],
      "stateMutability": "nonpayable",
      "type": "function"
    },
    {
      "inputs": [
        {
          "internalType": "contract ArmadaRegistry",
          "name": "registry",
          "type": "address"
        }
      ],
      "name": "unsafeSetRegistry",
      "outputs": [],
      "stateMutability": "nonpayable",
      "type": "function"
    },
    {
      "inputs": [
        {
          "internalType": "address",
          "name": "newImplementation",
          "type": "address"
        }
      ],
      "name": "upgradeTo",
      "outputs": [],
      "stateMutability": "nonpayable",
      "type": "function"
    },
    {
      "inputs": [
        {
          "internalType": "address",
          "name": "newImplementation",
          "type": "address"
        },
        {
          "internalType": "bytes",
          "name": "data",
          "type": "bytes"
        }
      ],
      "name": "upgradeToAndCall",
      "outputs": [],
      "stateMutability": "payable",
      "type": "function"
    },
    {
      "inputs": [
        {
          "internalType": "bytes32",
          "name": "operatorId",
          "type": "bytes32"
        },
        {
          "internalType": "uint256",
          "name": "amount",
          "type": "uint256"
        },
        {
          "internalType": "address",
          "name": "to",
          "type": "address"
        }
      ],
      "name": "withdrawOperatorBalance",
      "outputs": [],
      "stateMutability": "nonpayable",
      "type": "function"
    },
    {
      "inputs": [
        {
          "internalType": "bytes32",
          "name": "operatorId",
          "type": "bytes32"
        },
        {
          "internalType": "uint256",
          "name": "amount",
          "type": "uint256"
        },
        {
          "internalType": "address",
          "name": "to",
          "type": "address"
        }
      ],
      "name": "withdrawOperatorStake",
      "outputs": [],
      "stateMutability": "nonpayable",
      "type": "function"
    }
  ],
  "transactionHash": "0x120846aff90a3a6c545ea1e617861687b0120f90026284f6787eb0e7c40256bd",
  "numDeployments": 1,
  "solcInputHash": "3d7781041167c62982425bd61ad25fd4",
  "bytecode": "0x60a06040523060805234801561001457600080fd5b5060805161509761004c600039600081816116f70152818161173701528181612075015281816120b5015261214401526150976000f3fe6080604052600436106101f95760003560e01c80635c975abb1161010d578063a96a5f94116100a0578063e90705741161006f578063e90705741461059f578063ea4dd2b9146105bf578063ef96e2cb146105ec578063f7d1f6d81461060c578063fd6313fc1461062257600080fd5b8063a96a5f9414610512578063b9a2adf01461053f578063be0396381461055f578063d547741f1461057f57600080fd5b80638dd0d6a8116100dc5780638dd0d6a81461049d57806391d14854146104bd578063a217fddf146104dd578063a5f83733146104f257600080fd5b80635c975abb1461042e5780636fa2a067146104465780636ffa072e146104685780638456cb591461048857600080fd5b806336568abe116101905780633f4ba83a1161015f5780633f4ba83a146103a85780634d60dead146103bd5780634f1ef286146103dd57806352d1902d146103f05780635ab1bd531461040557600080fd5b806336568abe146103285780633659cfe61461034857806339b035711461036857806339d7a3ef1461038857600080fd5b806322aba718116101cc57806322aba71814610298578063248a9ca3146102b85780632f2ff15d146102e85780632fd3f4ff1461030857600080fd5b806301ffc9a7146101fe578063059c1cf7146102335780631a4a7c61146102555780631c692cc614610278575b600080fd5b34801561020a57600080fd5b5061021e610219366004614101565b610642565b60405190151581526020015b60405180910390f35b34801561023f57600080fd5b5061025361024e366004614140565b610679565b005b34801561026157600080fd5b5061026a610abd565b60405190815260200161022a565b34801561028457600080fd5b5061026a6102933660046141c1565b610acf565b3480156102a457600080fd5b506102536102b3366004614243565b610ec8565b3480156102c457600080fd5b5061026a6102d3366004614273565b60009081526065602052604090206001015490565b3480156102f457600080fd5b50610253610303366004614243565b6110aa565b34801561031457600080fd5b50610253610323366004614273565b6110d4565b34801561033457600080fd5b50610253610343366004614243565b61166e565b34801561035457600080fd5b5061025361036336600461428c565b6116ec565b34801561037457600080fd5b506102536103833660046142fb565b6117cc565b34801561039457600080fd5b506102536103a336600461436e565b6119c1565b3480156103b457600080fd5b50610253611d1c565b3480156103c957600080fd5b506102536103d83660046143a4565b611d4d565b6102536103eb366004614493565b61206a565b3480156103fc57600080fd5b5061026a612137565b34801561041157600080fd5b5061015f546040516001600160a01b03909116815260200161022a565b34801561043a57600080fd5b5060975460ff1661021e565b34801561045257600080fd5b5061026a60008051602061504283398151915281565b34801561047457600080fd5b50610253610483366004614525565b6121ea565b34801561049457600080fd5b5061025361252c565b3480156104a957600080fd5b506102536104b8366004614551565b61255b565b3480156104c957600080fd5b5061021e6104d8366004614243565b612661565b3480156104e957600080fd5b5061026a600081565b3480156104fe57600080fd5b5061025361050d366004614140565b61268c565b34801561051e57600080fd5b5061053261052d366004614273565b6129ae565b60405161022a9190614646565b34801561054b57600080fd5b5061025361055a36600461428c565b612b4c565b34801561056b57600080fd5b5061025361057a3660046143a4565b612b96565b34801561058b57600080fd5b5061025361059a366004614243565b612ea1565b3480156105ab57600080fd5b506102536105ba366004614273565b612ec6565b3480156105cb57600080fd5b506105df6105da366004614659565b612ef3565b60405161022a919061467b565b3480156105f857600080fd5b50610253610607366004614243565b61313e565b34801561061857600080fd5b506101605461026a565b34801561062e57600080fd5b5061025361063d3660046146dd565b613322565b60006001600160e01b03198216637965db0b60e01b148061067357506301ffc9a760e01b6001600160e01b03198316145b92915050565b600260c95414156106d15760405162461bcd60e51b815260206004820152601f60248201527f5265656e7472616e637947756172643a207265656e7472616e742063616c6c0060448201526064015b60405180910390fd5b600260c95560008381526101616020526040902080548491906107065760405162461bcd60e51b81526004016106c890614728565b60018101546001600160a01b031633146107325760405162461bcd60e51b81526004016106c890614752565b61015f60009054906101000a90046001600160a01b03166001600160a01b031663bb1f47406040518163ffffffff1660e01b8152600401600060405180830381600087803b15801561078357600080fd5b505af1158015610797573d6000803e3d6000fd5b505050506107a760975460ff1690565b156107c45760405162461bcd60e51b81526004016106c890614778565b60008581526101616020526040902080546107e1576107e16147a2565b61015f546040805163714ac0d560e11b815290516000926001600160a01b03169163e29581aa916004808301926020929190829003018186803b15801561082757600080fd5b505afa15801561083b573d6000803e3d6000fd5b505050506040513d601f19601f8201168201806040525081019061085f91906147b8565b6101605460405163f0a9e52760e01b8152600481018a90526000602482018190529293506001600160a01b0384169063f0a9e5279060440160206040518083038186803b1580156108af57600080fd5b505afa1580156108c3573d6000803e3d6000fd5b505050506040513d601f19601f820116820180604052508101906108e791906147d5565b6108f19190614804565b9050808784600401546109049190614823565b10156109455760405162461bcd60e51b815260206004820152601060248201526f6e6f7420656e6f756768207374616b6560801b60448201526064016106c8565b600483018054908890600061095a8385614823565b909155505061015f54604080516321df0da760e01b815290516001600160a01b03909216916321df0da791600480820192602092909190829003018186803b1580156109a557600080fd5b505afa1580156109b9573d6000803e3d6000fd5b505050506040513d601f19601f820116820180604052508101906109dd91906147b8565b61015f546040516323b872dd60e01b81526001600160a01b03928316926323b872dd92610a13929116908b908d9060040161483a565b602060405180830381600087803b158015610a2d57600080fd5b505af1158015610a41573d6000803e3d6000fd5b505050506040513d601f19601f82011682018060405250810190610a659190614869565b50887fff347b3ef13668fb2b608008fa7144e3a786de63377f6eb766ab91cf1ab9fe99828660040154604051610aa5929190918252602082015260400190565b60405180910390a25050600160c95550505050505050565b6000610aca610162613453565b905090565b6000610adb8133612661565b610af75760405162461bcd60e51b81526004016106c890614886565b61015f60009054906101000a90046001600160a01b03166001600160a01b031663bb1f47406040518163ffffffff1660e01b8152600401600060405180830381600087803b158015610b4857600080fd5b505af1158015610b5c573d6000803e3d6000fd5b50505050610b6c60975460ff1690565b15610b895760405162461bcd60e51b81526004016106c890614778565b6001600160a01b038616610bcc5760405162461bcd60e51b815260206004820152600a6024820152693d32b9379037bbb732b960b11b60448201526064016106c8565b83610c065760405162461bcd60e51b815260206004820152600a602482015269656d707479206e616d6560b01b60448201526064016106c8565b610100841115610c485760405162461bcd60e51b815260206004820152600d60248201526c6e616d6520746f6f206c6f6e6760981b60448201526064016106c8565b610100821115610c8b5760405162461bcd60e51b815260206004820152600e60248201526d656d61696c20746f6f206c6f6e6760901b60448201526064016106c8565b61015f60009054906101000a90046001600160a01b03166001600160a01b03166379a6a3a56040518163ffffffff1660e01b8152600401602060405180830381600087803b158015610cdc57600080fd5b505af1158015610cf0573d6000803e3d6000fd5b505050506040513d601f19601f82011682018060405250810190610d1491906147d5565b604051602001610d2691815260200190565b6040516020818303038152906040528051906020012090506040518060c00160405280828152602001876001600160a01b0316815260200186868080601f016020809104026020016040519081016040528093929190818152602001838380828437600092019190915250505090825250604080516020601f87018190048102820181019092528581529181019190869086908190840183828082843760009201829052509385525050506020808301829052604092830182905284825261016181529082902083518155838201516001820180546001600160a01b0319166001600160a01b03909216919091179055918301518051610e2c9260028501920190613f78565b5060608201518051610e48916003840191602090910190613f78565b506080820151600482015560a090910151600590910155610e6b6101628261345d565b610e7757610e776147a2565b856001600160a01b0316817fb69d73b1d17f5aeee20a448e7c6b20e50bff49b8b42a4cd1c7bad3ba9151328587878787604051610eb794939291906148d2565b60405180910390a395945050505050565b6000828152610161602052604090208054839190610ef85760405162461bcd60e51b81526004016106c890614728565b610f03600033612661565b80610f1a575060018101546001600160a01b031633145b610f5e5760405162461bcd60e51b81526020600482015260156024820152743737ba1030b236b4b71037b91037b832b930ba37b960591b60448201526064016106c8565b61015f60009054906101000a90046001600160a01b03166001600160a01b031663bb1f47406040518163ffffffff1660e01b8152600401600060405180830381600087803b158015610faf57600080fd5b505af1158015610fc3573d6000803e3d6000fd5b50505050610fd360975460ff1690565b15610ff05760405162461bcd60e51b81526004016106c890614778565b6001600160a01b0383166110335760405162461bcd60e51b815260206004820152600a6024820152693d32b9379037bbb732b960b11b60448201526064016106c8565b6000848152610161602052604090208054611050576110506147a2565b6001810180546001600160a01b038681166001600160a01b03198316811790935560405191169190829088907fcf0cd5f1c87e8fdf7da54eae19fcf4bc1c7efb862da39f2ec343f964433cf12990600090a4505050505050565b6000828152606560205260409020600101546110c581613470565b6110cf838361347a565b505050565b6110df600033612661565b6110fb5760405162461bcd60e51b81526004016106c890614886565b61015f60009054906101000a90046001600160a01b03166001600160a01b031663bb1f47406040518163ffffffff1660e01b8152600401600060405180830381600087803b15801561114c57600080fd5b505af1158015611160573d6000803e3d6000fd5b5050505061117060975460ff1690565b1561118d5760405162461bcd60e51b81526004016106c890614778565b600081815261016160209081526040808320815160c0810183528154815260018201546001600160a01b03169381019390935260028101805491928401916111d490614904565b80601f016020809104026020016040519081016040528092919081815260200182805461120090614904565b801561124d5780601f106112225761010080835404028352916020019161124d565b820191906000526020600020905b81548152906001019060200180831161123057829003601f168201915b5050505050815260200160038201805461126690614904565b80601f016020809104026020016040519081016040528092919081815260200182805461129290614904565b80156112df5780601f106112b4576101008083540402835291602001916112df565b820191906000526020600020905b8154815290600101906020018083116112c257829003601f168201915b505050918352505060048201546020820152600590910154604090910152805190915061131e5760405162461bcd60e51b81526004016106c890614728565b61015f546040805163714ac0d560e11b815290516000926001600160a01b03169163e29581aa916004808301926020929190829003018186803b15801561136457600080fd5b505afa158015611378573d6000803e3d6000fd5b505050506040513d601f19601f8201168201806040525081019061139c91906147b8565b60405163f0a9e52760e01b815260048101859052600160248201529091506001600160a01b0382169063f0a9e5279060440160206040518083038186803b1580156113e657600080fd5b505afa1580156113fa573d6000803e3d6000fd5b505050506040513d601f19601f8201168201806040525081019061141e91906147d5565b156114605760405162461bcd60e51b81526020600482015260126024820152716f70657261746f7220686173206e6f64657360701b60448201526064016106c8565b60405163f0a9e52760e01b815260048101849052600060248201526001600160a01b0382169063f0a9e5279060440160206040518083038186803b1580156114a757600080fd5b505afa1580156114bb573d6000803e3d6000fd5b505050506040513d601f19601f820116820180604052508101906114df91906147d5565b156115215760405162461bcd60e51b81526020600482015260126024820152716f70657261746f7220686173206e6f64657360701b60448201526064016106c8565b6080820151156115685760405162461bcd60e51b81526020600482015260126024820152716f70657261746f7220686173207374616b6560701b60448201526064016106c8565b60a0820151156115b15760405162461bcd60e51b81526020600482015260146024820152736f70657261746f72206861732062616c616e636560601b60448201526064016106c8565b6000838152610161602052604081208181556001810180546001600160a01b0319169055906115e36002830182613ffc565b6115f1600383016000613ffc565b5060006004820181905560059091015561160d61016284613500565b611619576116196147a2565b81602001516001600160a01b0316837f47a82ad5da4f4bfefb8f774802d2eee3406e1275298e00871e43b021b6d7a8d58460400151856060015160405161166192919061493f565b60405180910390a3505050565b6001600160a01b03811633146116de5760405162461bcd60e51b815260206004820152602f60248201527f416363657373436f6e74726f6c3a2063616e206f6e6c792072656e6f756e636560448201526e103937b632b9903337b91039b2b63360891b60648201526084016106c8565b6116e8828261350c565b5050565b306001600160a01b037f00000000000000000000000000000000000000000000000000000000000000001614156117355760405162461bcd60e51b81526004016106c890614964565b7f00000000000000000000000000000000000000000000000000000000000000006001600160a01b031661177e600080516020614ffb833981519152546001600160a01b031690565b6001600160a01b0316146117a45760405162461bcd60e51b81526004016106c8906149b0565b6117ad81613573565b604080516000808252602082019092526117c99183919061359a565b50565b60006117d86001613714565b905080156117f0576000805461ff0019166101001790555b6117f86137a1565b6118006137a1565b6118086137a1565b6118106137a1565b6118186137c8565b6118206137f7565b6118286137a1565b61015f80546001600160a01b0319166001600160a01b038616179055610160839055846118835760405162461bcd60e51b81526020600482015260096024820152686e6f2061646d696e7360b81b60448201526064016106c8565b60005b8581101561193c5760008787838181106118a2576118a26149fc565b90506020020160208101906118b7919061428c565b6001600160a01b031614156118fb5760405162461bcd60e51b815260206004820152600a6024820152693d32b9379030b236b4b760b11b60448201526064016106c8565b61192c6000888884818110611912576119126149fc565b9050602002016020810190611927919061428c565b61347a565b61193581614a12565b9050611886565b5081156119735761195b6000805160206150428339815191523261347a565b61197360008051602061504283398151915280613826565b80156119b9576000805461ff0019169055604051600181527f7f26b83ff96e1f2b6a682f133852f6798a09c465da95921460cefb38474024989060200160405180910390a15b505050505050565b60008581526101616020526040902080548691906119f15760405162461bcd60e51b81526004016106c890614728565b60018101546001600160a01b03163314611a1d5760405162461bcd60e51b81526004016106c890614752565b61015f60009054906101000a90046001600160a01b03166001600160a01b031663bb1f47406040518163ffffffff1660e01b8152600401600060405180830381600087803b158015611a6e57600080fd5b505af1158015611a82573d6000803e3d6000fd5b50505050611a9260975460ff1690565b15611aaf5760405162461bcd60e51b81526004016106c890614778565b84611ae95760405162461bcd60e51b815260206004820152600a602482015269656d707479206e616d6560b01b60448201526064016106c8565b610100851115611b2b5760405162461bcd60e51b815260206004820152600d60248201526c6e616d6520746f6f206c6f6e6760981b60448201526064016106c8565b610100831115611b6e5760405162461bcd60e51b815260206004820152600e60248201526d656d61696c20746f6f206c6f6e6760901b60448201526064016106c8565b6000878152610161602052604090208054611b8b57611b8b6147a2565b6000816002018054611b9c90614904565b80601f0160208091040260200160405190810160405280929190818152602001828054611bc890614904565b8015611c155780601f10611bea57610100808354040283529160200191611c15565b820191906000526020600020905b815481529060010190602001808311611bf857829003601f168201915b505050505090506000826003018054611c2d90614904565b80601f0160208091040260200160405190810160405280929190818152602001828054611c5990614904565b8015611ca65780601f10611c7b57610100808354040283529160200191611ca6565b820191906000526020600020905b815481529060010190602001808311611c8957829003601f168201915b50939450611cbe935050506002850190508a8a614036565b50611ccd600384018888614036565b50897f42478da6f365394de83444b3d922d94b6aec68bcf0961b9acd1fe05ed84c908a83838c8c8c8c604051611d0896959493929190614a2d565b60405180910390a250505050505050505050565b611d27600033612661565b611d435760405162461bcd60e51b81526004016106c890614886565b611d4b613871565b565b60975460ff1615611d705760405162461bcd60e51b81526004016106c890614778565b6000868152610161602052604090208054611d9d5760405162461bcd60e51b81526004016106c890614728565b6005810180549087906000611db28385614a89565b90915550508215611eb25761015f60009054906101000a90046001600160a01b03166001600160a01b0316631bf01e9b6040518163ffffffff1660e01b815260040160206040518083038186803b158015611e0c57600080fd5b505afa158015611e20573d6000803e3d6000fd5b505050506040513d601f19601f82011682018060405250810190611e4491906147b8565b6001600160a01b031663d505accf33308a8a8a8a8a6040518863ffffffff1660e01b8152600401611e7b9796959493929190614aa1565b600060405180830381600087803b158015611e9557600080fd5b505af1158015611ea9573d6000803e3d6000fd5b50505050611f08565b85158015611ec1575060ff8516155b8015611ecb575083155b611f085760405162461bcd60e51b815260206004820152600e60248201526d1a5b9d985b1a59081c195c9b5a5d60921b60448201526064016106c8565b61015f60009054906101000a90046001600160a01b03166001600160a01b0316631bf01e9b6040518163ffffffff1660e01b815260040160206040518083038186803b158015611f5757600080fd5b505afa158015611f6b573d6000803e3d6000fd5b505050506040513d601f19601f82011682018060405250810190611f8f91906147b8565b61015f546040516323b872dd60e01b81526001600160a01b03928316926323b872dd92611fc6923392909116908c9060040161483a565b602060405180830381600087803b158015611fe057600080fd5b505af1158015611ff4573d6000803e3d6000fd5b505050506040513d601f19601f820116820180604052508101906120189190614869565b50877f785b2848c05c2f0d9bfe93d39a82b1f786de7840ab58adf840e13b98ed158232828460050154604051612058929190918252602082015260400190565b60405180910390a25050505050505050565b306001600160a01b037f00000000000000000000000000000000000000000000000000000000000000001614156120b35760405162461bcd60e51b81526004016106c890614964565b7f00000000000000000000000000000000000000000000000000000000000000006001600160a01b03166120fc600080516020614ffb833981519152546001600160a01b031690565b6001600160a01b0316146121225760405162461bcd60e51b81526004016106c8906149b0565b61212b82613573565b6116e88282600161359a565b6000306001600160a01b037f000000000000000000000000000000000000000000000000000000000000000016146121d75760405162461bcd60e51b815260206004820152603860248201527f555550535570677261646561626c653a206d757374206e6f742062652063616c60448201527f6c6564207468726f7567682064656c656761746563616c6c000000000000000060648201526084016106c8565b50600080516020614ffb83398151915290565b61015f60009054906101000a90046001600160a01b03166001600160a01b031663299372686040518163ffffffff1660e01b815260040160206040518083038186803b15801561223957600080fd5b505afa15801561224d573d6000803e3d6000fd5b505050506040513d601f19601f8201168201806040525081019061227191906147b8565b6001600160a01b0316336001600160a01b03161480612327575061015f60009054906101000a90046001600160a01b03166001600160a01b031663e29581aa6040518163ffffffff1660e01b815260040160206040518083038186803b1580156122da57600080fd5b505afa1580156122ee573d6000803e3d6000fd5b505050506040513d601f19601f8201168201806040525081019061231291906147b8565b6001600160a01b0316336001600160a01b0316145b806123c9575061015f60009054906101000a90046001600160a01b03166001600160a01b031663dcc601286040518163ffffffff1660e01b815260040160206040518083038186803b15801561237c57600080fd5b505afa158015612390573d6000803e3d6000fd5b505050506040513d601f19601f820116820180604052508101906123b491906147b8565b6001600160a01b0316336001600160a01b0316145b8061246b575061015f60009054906101000a90046001600160a01b03166001600160a01b0316639c200b886040518163ffffffff1660e01b815260040160206040518083038186803b15801561241e57600080fd5b505afa158015612432573d6000803e3d6000fd5b505050506040513d601f19601f8201168201806040525081019061245691906147b8565b6001600160a01b0316336001600160a01b0316145b6124a25760405162461bcd60e51b81526020600482015260086024820152671b9bdd081a5b5c1b60c21b60448201526064016106c8565b60975460ff16156124c55760405162461bcd60e51b81526004016106c890614778565b60008381526101616020526040902080546124f25760405162461bcd60e51b81526004016106c890614728565b828160050160008282546125069190614823565b92505081905550818160050160008282546125219190614a89565b909155505050505050565b612537600033612661565b6125535760405162461bcd60e51b81526004016106c890614886565b611d4b613904565b612566600033612661565b6125825760405162461bcd60e51b81526004016106c890614886565b816125ba5760405162461bcd60e51b81526020600482015260086024820152671e995c9bc81b5d5b60c21b60448201526064016106c8565b60006125c7610162613453565b905060006125ec858784116125dd57600061395c565b6125e78885614823565b61395c565b905060005b818110156126585760006101618161261561260c858c614a89565b61016290613972565b81526020019081526020016000209050848682600501546126369190614804565b6126409190614ae2565b6005909101558061265081614a12565b9150506125f1565b50505050505050565b60009182526065602090815260408084206001600160a01b0393909316845291905290205460ff1690565b600260c95414156126df5760405162461bcd60e51b815260206004820152601f60248201527f5265656e7472616e637947756172643a207265656e7472616e742063616c6c0060448201526064016106c8565b600260c95560008381526101616020526040902080548491906127145760405162461bcd60e51b81526004016106c890614728565b60018101546001600160a01b031633146127405760405162461bcd60e51b81526004016106c890614752565b61015f60009054906101000a90046001600160a01b03166001600160a01b031663bb1f47406040518163ffffffff1660e01b8152600401600060405180830381600087803b15801561279157600080fd5b505af11580156127a5573d6000803e3d6000fd5b505050506127b560975460ff1690565b156127d25760405162461bcd60e51b81526004016106c890614778565b60008581526101616020526040902080546127ef576127ef6147a2565b84816005015410156128385760405162461bcd60e51b81526020600482015260126024820152716e6f7420656e6f7567682062616c616e636560701b60448201526064016106c8565b600581018054908690600061284d8385614823565b909155505061015f5460408051631bf01e9b60e01b815290516001600160a01b0390921691631bf01e9b91600480820192602092909190829003018186803b15801561289857600080fd5b505afa1580156128ac573d6000803e3d6000fd5b505050506040513d601f19601f820116820180604052508101906128d091906147b8565b61015f546040516323b872dd60e01b81526001600160a01b03928316926323b872dd926129069291169089908b9060040161483a565b602060405180830381600087803b15801561292057600080fd5b505af1158015612934573d6000803e3d6000fd5b505050506040513d601f19601f820116820180604052508101906129589190614869565b50867f785b2848c05c2f0d9bfe93d39a82b1f786de7840ab58adf840e13b98ed158232828460050154604051612998929190918252602082015260400190565b60405180910390a25050600160c9555050505050565b6129b66140aa565b60008281526101616020526040902080546129e35760405162461bcd60e51b81526004016106c890614728565b6040805160c0810182528254815260018301546001600160a01b03166020820152600283018054919284929084019190612a1c90614904565b80601f0160208091040260200160405190810160405280929190818152602001828054612a4890614904565b8015612a955780601f10612a6a57610100808354040283529160200191612a95565b820191906000526020600020905b815481529060010190602001808311612a7857829003601f168201915b50505050508152602001600382018054612aae90614904565b80601f0160208091040260200160405190810160405280929190818152602001828054612ada90614904565b8015612b275780601f10612afc57610100808354040283529160200191612b27565b820191906000526020600020905b815481529060010190602001808311612b0a57829003601f168201915b5050505050815260200160048201548152602001600582015481525050915050919050565b612b57600033612661565b612b735760405162461bcd60e51b81526004016106c890614886565b61015f80546001600160a01b0319166001600160a01b0392909216919091179055565b60975460ff1615612bb95760405162461bcd60e51b81526004016106c890614778565b6000868152610161602052604090208054612be65760405162461bcd60e51b81526004016106c890614728565b6004810180549087906000612bfb8385614a89565b90915550508215612cfb5761015f60009054906101000a90046001600160a01b03166001600160a01b03166321df0da76040518163ffffffff1660e01b815260040160206040518083038186803b158015612c5557600080fd5b505afa158015612c69573d6000803e3d6000fd5b505050506040513d601f19601f82011682018060405250810190612c8d91906147b8565b6001600160a01b031663d505accf33308a8a8a8a8a6040518863ffffffff1660e01b8152600401612cc49796959493929190614aa1565b600060405180830381600087803b158015612cde57600080fd5b505af1158015612cf2573d6000803e3d6000fd5b50505050612d51565b85158015612d0a575060ff8516155b8015612d14575083155b612d515760405162461bcd60e51b815260206004820152600e60248201526d1a5b9d985b1a59081c195c9b5a5d60921b60448201526064016106c8565b61015f60009054906101000a90046001600160a01b03166001600160a01b03166321df0da76040518163ffffffff1660e01b815260040160206040518083038186803b158015612da057600080fd5b505afa158015612db4573d6000803e3d6000fd5b505050506040513d601f19601f82011682018060405250810190612dd891906147b8565b61015f546040516323b872dd60e01b81526001600160a01b03928316926323b872dd92612e0f923392909116908c9060040161483a565b602060405180830381600087803b158015612e2957600080fd5b505af1158015612e3d573d6000803e3d6000fd5b505050506040513d601f19601f82011682018060405250810190612e619190614869565b50877fff347b3ef13668fb2b608008fa7144e3a786de63377f6eb766ab91cf1ab9fe99828460040154604051612058929190918252602082015260400190565b600082815260656020526040902060010154612ebc81613470565b6110cf838361350c565b612ed1600033612661565b612eed5760405162461bcd60e51b81526004016106c890614886565b61016055565b60606000612f02610162613453565b90506000612f2284868411612f1857600061395c565b6125e78785614823565b9050806001600160401b03811115612f3c57612f3c6143fd565b604051908082528060200260200182016040528015612f7557816020015b612f626140aa565b815260200190600190039081612f5a5790505b50925060005b81811015613135576101616000612f9561260c848a614a89565b81526020808201929092526040908101600020815160c0810183528154815260018201546001600160a01b0316938101939093526002810180549192840191612fdd90614904565b80601f016020809104026020016040519081016040528092919081815260200182805461300990614904565b80156130565780601f1061302b57610100808354040283529160200191613056565b820191906000526020600020905b81548152906001019060200180831161303957829003601f168201915b5050505050815260200160038201805461306f90614904565b80601f016020809104026020016040519081016040528092919081815260200182805461309b90614904565b80156130e85780601f106130bd576101008083540402835291602001916130e8565b820191906000526020600020905b8154815290600101906020018083116130cb57829003601f168201915b5050505050815260200160048201548152602001600582015481525050848281518110613117576131176149fc565b6020026020010181905250808061312d90614a12565b915050612f7b565b50505092915050565b61015f546040805163714ac0d560e11b815290516000926001600160a01b03169163e29581aa916004808301926020929190829003018186803b15801561318457600080fd5b505afa158015613198573d6000803e3d6000fd5b505050506040513d601f19601f820116820180604052508101906131bc91906147b8565b604051632864a37f60e11b8152600481018590529091506000906001600160a01b038316906350c946fe9060240160006040518083038186803b15801561320257600080fd5b505afa158015613216573d6000803e3d6000fd5b505050506040513d6000823e601f3d908101601f1916820160405261323e9190810190614bc0565b905080608001516132855760405162461bcd60e51b81526020600482015260116024820152706e6f7420746f706f6c6f6779206e6f646560781b60448201526064016106c8565b60208082015160009081526101619091526040902080546132a8576132a86147a2565b6001600160a01b0384166132ec5760405162461bcd60e51b815260206004820152600b60248201526a3d32b9379039b2b73232b960a91b60448201526064016106c8565b60018101546001600160a01b0385811691161461331b5760405162461bcd60e51b81526004016106c890614752565b5050505050565b60008051602061504283398151915261333a81613470565b60005b8381101561342e57848482818110613357576133576149fc565b90506020028101906133699190614cac565b6101616000878785818110613380576133806149fc565b90506020028101906133929190614cac565b35815260208101919091526040016000206133ad8282614e17565b9050506133e18585838181106133c5576133c56149fc565b90506020028101906133d79190614cac565b610162903561345d565b61341c5760405162461bcd60e51b815260206004820152600c60248201526b191d5c1b1a58d85d19481a5960a21b60448201526064016106c8565b8061342681614a12565b91505061333d565b50811561344d5761344d6000805160206150428339815191523361350c565b50505050565b6000610673825490565b6000613469838361397e565b9392505050565b6117c981336139cd565b6134848282612661565b6116e85760008281526065602090815260408083206001600160a01b03851684529091529020805460ff191660011790556134bc3390565b6001600160a01b0316816001600160a01b0316837f2f8788117e7eff1d82e926ec794901d17c78024a50270940304540a733656f0d60405160405180910390a45050565b60006134698383613a31565b6135168282612661565b156116e85760008281526065602090815260408083206001600160a01b0385168085529252808320805460ff1916905551339285917ff6391f5c32d9c69d2a47ea670b442974b53935d1edc7fd64eb21e047a839171b9190a45050565b61357e600033612661565b6117c95760405162461bcd60e51b81526004016106c890614886565b7f4910fdfa16fed3260ed0e7147f7cc6da11a60208b5b9406d12a635614ffd91435460ff16156135cd576110cf83613b24565b826001600160a01b03166352d1902d6040518163ffffffff1660e01b815260040160206040518083038186803b15801561360657600080fd5b505afa925050508015613636575060408051601f3d908101601f19168201909252613633918101906147d5565b60015b6136995760405162461bcd60e51b815260206004820152602e60248201527f45524331393637557067726164653a206e657720696d706c656d656e7461746960448201526d6f6e206973206e6f74205555505360901b60648201526084016106c8565b600080516020614ffb83398151915281146137085760405162461bcd60e51b815260206004820152602960248201527f45524331393637557067726164653a20756e737570706f727465642070726f786044820152681a58589b195555525160ba1b60648201526084016106c8565b506110cf838383613bc0565b60008054610100900460ff161561375b578160ff1660011480156137375750303b155b6137535760405162461bcd60e51b81526004016106c890614e9a565b506000919050565b60005460ff8084169116106137825760405162461bcd60e51b81526004016106c890614e9a565b506000805460ff191660ff92909216919091179055600190565b919050565b600054610100900460ff16611d4b5760405162461bcd60e51b81526004016106c890614ee8565b600054610100900460ff166137ef5760405162461bcd60e51b81526004016106c890614ee8565b611d4b613be5565b600054610100900460ff1661381e5760405162461bcd60e51b81526004016106c890614ee8565b611d4b613c18565b600082815260656020526040808220600101805490849055905190918391839186917fbd79b86ffe0ab8e8776151514217cd7cacd52c909f66475c3af44e129f0b00ff9190a4505050565b60975460ff166138ba5760405162461bcd60e51b815260206004820152601460248201527314185d5cd8589b194e881b9bdd081c185d5cd95960621b60448201526064016106c8565b6097805460ff191690557f5db9ee0a495bf2e6ff9c91a7834c1ba4fdd244a5e8aa4e537bd38aeae4b073aa335b6040516001600160a01b03909116815260200160405180910390a1565b60975460ff16156139275760405162461bcd60e51b81526004016106c890614778565b6097805460ff191660011790557f62e78cea01bee320cd4e420270b5ea74000d11b0c9f74754ebdbfc544b05a2586138e73390565b600081831061396b5781613469565b5090919050565b60006134698383613c46565b60008181526001830160205260408120546139c557508154600181810184556000848152602080822090930184905584548482528286019093526040902091909155610673565b506000610673565b6139d78282612661565b6116e8576139ef816001600160a01b03166014613c70565b6139fa836020613c70565b604051602001613a0b929190614f33565b60408051601f198184030181529082905262461bcd60e51b82526106c891600401614fa8565b60008181526001830160205260408120548015613b1a576000613a55600183614823565b8554909150600090613a6990600190614823565b9050818114613ace576000866000018281548110613a8957613a896149fc565b9060005260206000200154905080876000018481548110613aac57613aac6149fc565b6000918252602080832090910192909255918252600188019052604090208390555b8554869080613adf57613adf614fbb565b600190038181906000526020600020016000905590558560010160008681526020019081526020016000206000905560019350505050610673565b6000915050610673565b6001600160a01b0381163b613b915760405162461bcd60e51b815260206004820152602d60248201527f455243313936373a206e657720696d706c656d656e746174696f6e206973206e60448201526c1bdd08184818dbdb9d1c9858dd609a1b60648201526084016106c8565b600080516020614ffb83398151915280546001600160a01b0319166001600160a01b0392909216919091179055565b613bc983613e0b565b600082511180613bd65750805b156110cf5761344d8383613e4b565b600054610100900460ff16613c0c5760405162461bcd60e51b81526004016106c890614ee8565b6097805460ff19169055565b600054610100900460ff16613c3f5760405162461bcd60e51b81526004016106c890614ee8565b600160c955565b6000826000018281548110613c5d57613c5d6149fc565b9060005260206000200154905092915050565b60606000613c7f836002614804565b613c8a906002614a89565b6001600160401b03811115613ca157613ca16143fd565b6040519080825280601f01601f191660200182016040528015613ccb576020820181803683370190505b509050600360fc1b81600081518110613ce657613ce66149fc565b60200101906001600160f81b031916908160001a905350600f60fb1b81600181518110613d1557613d156149fc565b60200101906001600160f81b031916908160001a9053506000613d39846002614804565b613d44906001614a89565b90505b6001811115613dbc576f181899199a1a9b1b9c1cb0b131b232b360811b85600f1660108110613d7857613d786149fc565b1a60f81b828281518110613d8e57613d8e6149fc565b60200101906001600160f81b031916908160001a90535060049490941c93613db581614fd1565b9050613d47565b5083156134695760405162461bcd60e51b815260206004820181905260248201527f537472696e67733a20686578206c656e67746820696e73756666696369656e7460448201526064016106c8565b613e1481613b24565b6040516001600160a01b038216907fbc7cd75a20ee27fd9adebab32041f755214dbc6bffa90cc0225b39da2e5c2d3b90600090a250565b60606001600160a01b0383163b613eb35760405162461bcd60e51b815260206004820152602660248201527f416464726573733a2064656c65676174652063616c6c20746f206e6f6e2d636f6044820152651b9d1c9858dd60d21b60648201526084016106c8565b600080846001600160a01b031684604051613ece9190614fe8565b600060405180830381855af49150503d8060008114613f09576040519150601f19603f3d011682016040523d82523d6000602084013e613f0e565b606091505b5091509150613f36828260405180606001604052806027815260200161501b60279139613f3f565b95945050505050565b60608315613f4e575081613469565b825115613f5e5782518084602001fd5b8160405162461bcd60e51b81526004016106c89190614fa8565b828054613f8490614904565b90600052602060002090601f016020900481019282613fa65760008555613fec565b82601f10613fbf57805160ff1916838001178555613fec565b82800160010185558215613fec579182015b82811115613fec578251825591602001919060010190613fd1565b50613ff89291506140ec565b5090565b50805461400890614904565b6000825580601f10614018575050565b601f0160209004906000526020600020908101906117c991906140ec565b82805461404290614904565b90600052602060002090601f0160209004810192826140645760008555613fec565b82601f1061407d5782800160ff19823516178555613fec565b82800160010185558215613fec579182015b82811115613fec57823582559160200191906001019061408f565b6040518060c001604052806000801916815260200160006001600160a01b03168152602001606081526020016060815260200160008152602001600081525090565b5b80821115613ff857600081556001016140ed565b60006020828403121561411357600080fd5b81356001600160e01b03198116811461346957600080fd5b6001600160a01b03811681146117c957600080fd5b60008060006060848603121561415557600080fd5b8335925060208401359150604084013561416e8161412b565b809150509250925092565b60008083601f84011261418b57600080fd5b5081356001600160401b038111156141a257600080fd5b6020830191508360208285010111156141ba57600080fd5b9250929050565b6000806000806000606086880312156141d957600080fd5b85356141e48161412b565b945060208601356001600160401b038082111561420057600080fd5b61420c89838a01614179565b9096509450604088013591508082111561422557600080fd5b5061423288828901614179565b969995985093965092949392505050565b6000806040838503121561425657600080fd5b8235915060208301356142688161412b565b809150509250929050565b60006020828403121561428557600080fd5b5035919050565b60006020828403121561429e57600080fd5b81356134698161412b565b60008083601f8401126142bb57600080fd5b5081356001600160401b038111156142d257600080fd5b6020830191508360208260051b85010111156141ba57600080fd5b80151581146117c957600080fd5b60008060008060006080868803121561431357600080fd5b85356001600160401b0381111561432957600080fd5b614335888289016142a9565b90965094505060208601356143498161412b565b9250604086013591506060860135614360816142ed565b809150509295509295909350565b60008060008060006060868803121561438657600080fd5b8535945060208601356001600160401b038082111561420057600080fd5b60008060008060008060c087890312156143bd57600080fd5b863595506020870135945060408701359350606087013560ff811681146143e357600080fd5b9598949750929560808101359460a0909101359350915050565b634e487b7160e01b600052604160045260246000fd5b60405161010081016001600160401b0381118282101715614436576144366143fd565b60405290565b604051601f8201601f191681016001600160401b0381118282101715614464576144646143fd565b604052919050565b60006001600160401b03821115614485576144856143fd565b50601f01601f191660200190565b600080604083850312156144a657600080fd5b82356144b18161412b565b915060208301356001600160401b038111156144cc57600080fd5b8301601f810185136144dd57600080fd5b80356144f06144eb8261446c565b61443c565b81815286602083850101111561450557600080fd5b816020840160208301376000602083830101528093505050509250929050565b60008060006060848603121561453a57600080fd5b505081359360208301359350604090920135919050565b6000806000806080858703121561456757600080fd5b5050823594602084013594506040840135936060013592509050565b60005b8381101561459e578181015183820152602001614586565b8381111561344d5750506000910152565b600081518084526145c7816020860160208601614583565b601f01601f19169290920160200192915050565b8051825260018060a01b0360208201511660208301526000604082015160c0604085015261460c60c08501826145af565b90506060830151848203606086015261462582826145af565b9150506080830151608085015260a083015160a08501528091505092915050565b60208152600061346960208301846145db565b6000806040838503121561466c57600080fd5b50508035926020909101359150565b6000602080830181845280855180835260408601915060408160051b870101925083870160005b828110156146d057603f198886030184526146be8583516145db565b945092850192908501906001016146a2565b5092979650505050505050565b6000806000604084860312156146f257600080fd5b83356001600160401b0381111561470857600080fd5b614714868287016142a9565b909450925050602084013561416e816142ed565b60208082526010908201526f3ab735b737bbb71037b832b930ba37b960811b604082015260600190565b6020808252600c908201526b3737ba1037b832b930ba37b960a11b604082015260600190565b60208082526010908201526f14185d5cd8589b194e881c185d5cd95960821b604082015260600190565b634e487b7160e01b600052600160045260246000fd5b6000602082840312156147ca57600080fd5b81516134698161412b565b6000602082840312156147e757600080fd5b5051919050565b634e487b7160e01b600052601160045260246000fd5b600081600019048311821515161561481e5761481e6147ee565b500290565b600082821015614835576148356147ee565b500390565b6001600160a01b039384168152919092166020820152604081019190915260600190565b805161379c816142ed565b60006020828403121561487b57600080fd5b8151613469816142ed565b6020808252600990820152683737ba1030b236b4b760b91b604082015260600190565b81835281816020850137506000828201602090810191909152601f909101601f19169091010190565b6040815260006148e66040830186886148a9565b82810360208401526148f98185876148a9565b979650505050505050565b600181811c9082168061491857607f821691505b6020821081141561493957634e487b7160e01b600052602260045260246000fd5b50919050565b60408152600061495260408301856145af565b8281036020840152613f3681856145af565b6020808252602c908201527f46756e6374696f6e206d7573742062652063616c6c6564207468726f7567682060408201526b19195b1959d85d1958d85b1b60a21b606082015260800190565b6020808252602c908201527f46756e6374696f6e206d7573742062652063616c6c6564207468726f7567682060408201526b6163746976652070726f787960a01b606082015260800190565b634e487b7160e01b600052603260045260246000fd5b6000600019821415614a2657614a266147ee565b5060010190565b608081526000614a4060808301896145af565b8281036020840152614a5281896145af565b90508281036040840152614a678187896148a9565b90508281036060840152614a7c8185876148a9565b9998505050505050505050565b60008219821115614a9c57614a9c6147ee565b500190565b6001600160a01b0397881681529590961660208601526040850193909352606084019190915260ff16608083015260a082015260c081019190915260e00190565b600082614aff57634e487b7160e01b600052601260045260246000fd5b500490565b600082601f830112614b1557600080fd5b8151614b236144eb8261446c565b818152846020838601011115614b3857600080fd5b614b49826020830160208701614583565b949350505050565b600082601f830112614b6257600080fd5b604051604081018181106001600160401b0382111715614b8457614b846143fd565b8060405250806040840185811115614b9b57600080fd5b845b81811015614bb5578051835260209283019201614b9d565b509195945050505050565b600060208284031215614bd257600080fd5b81516001600160401b0380821115614be957600080fd5b908301906101408286031215614bfe57600080fd5b614c06614413565b8251815260208301516020820152604083015182811115614c2657600080fd5b614c3287828601614b04565b604083015250606083015182811115614c4a57600080fd5b614c5687828601614b04565b606083015250614c686080840161485e565b6080820152614c7960a0840161485e565b60a0820152614c8b8660c08501614b51565b60c0820152614c9e866101008501614b51565b60e082015295945050505050565b6000823560be19833603018112614cc257600080fd5b9190910192915050565b6000808335601e19843603018112614ce357600080fd5b8301803591506001600160401b03821115614cfd57600080fd5b6020019150368190038213156141ba57600080fd5b601f8211156110cf57600081815260208120601f850160051c81016020861015614d395750805b601f850160051c820191505b818110156119b957828155600101614d45565b6001600160401b03831115614d6f57614d6f6143fd565b614d8383614d7d8354614904565b83614d12565b6000601f841160018114614db75760008515614d9f5750838201355b600019600387901b1c1916600186901b17835561331b565b600083815260209020601f19861690835b82811015614de85786850135825560209485019460019092019101614dc8565b5086821015614e055760001960f88860031b161c19848701351681555b505060018560011b0183555050505050565b81358155600181016020830135614e2d8161412b565b81546001600160a01b0319166001600160a01b0391909116179055614e556040830183614ccc565b614e63818360028601614d58565b5050614e726060830183614ccc565b614e80818360038601614d58565b50506080820135600482015560a082013560058201555050565b6020808252602e908201527f496e697469616c697a61626c653a20636f6e747261637420697320616c72656160408201526d191e481a5b9a5d1a585b1a5e995960921b606082015260800190565b6020808252602b908201527f496e697469616c697a61626c653a20636f6e7472616374206973206e6f74206960408201526a6e697469616c697a696e6760a81b606082015260800190565b7f416363657373436f6e74726f6c3a206163636f756e7420000000000000000000815260008351614f6b816017850160208801614583565b7001034b99036b4b9b9b4b733903937b6329607d1b6017918401918201528351614f9c816028840160208801614583565b01602801949350505050565b60208152600061346960208301846145af565b634e487b7160e01b600052603160045260246000fd5b600081614fe057614fe06147ee565b506000190190565b60008251614cc281846020870161458356fe360894a13ba1a3210667c828492db98dca3e2076cc3735a920a3ca505d382bbc416464726573733a206c6f772d6c6576656c2064656c65676174652063616c6c206661696c65649dd0c3bd9bb5e1c820c362d05d5cb38480246edb10ff416751bc3dcaccab86fea264697066735822122094a85498d53adaf97af74e3b265683aef5ea017184f87e87b753d2efe230abc364736f6c63430008090033",
  "devdoc": {
    "kind": "dev",
    "methods": {
      "createOperator(address,string,string)": {
        "details": "Does not check name or email for validity or uniqueness"
      },
      "depositOperatorBalance(bytes32,uint256,uint256,uint8,bytes32,bytes32)": {
        "details": "Needs either a token allowance from msg.sender, or a gasless approval (v/r/s != 0).CAUTION: To avoid loss of funds, do NOT deposit to this contract by token.transfer()."
      },
      "depositOperatorStake(bytes32,uint256,uint256,uint8,bytes32,bytes32)": {
        "details": "Needs either a token allowance from msg.sender, or a gasless approval (v/r/s != 0).CAUTION: To avoid loss of funds, do NOT deposit to this contract by token.transfer()."
      },
      "getOperator(bytes32)": {
        "details": "Reverts if the id is unknown"
      },
      "getOperators(uint256,uint256)": {
        "details": "Truncates the results if skip or size are out of bounds"
      },
      "getRoleAdmin(bytes32)": {
        "details": "Returns the admin role that controls `role`. See {grantRole} and {revokeRole}. To change a role's admin, use {_setRoleAdmin}."
      },
      "grantRole(bytes32,address)": {
        "details": "Grants `role` to `account`. If `account` had not been already granted `role`, emits a {RoleGranted} event. Requirements: - the caller must have ``role``'s admin role."
      },
      "hasRole(bytes32,address)": {
        "details": "Returns `true` if `account` has been granted `role`."
      },
      "initialize(address[],address,uint256,bool)": {
        "details": "Called once to set up the contract. Not called during proxy upgrades.",
        "params": {
          "grantImporterRole": "allows the contract deployer to import initial data into the contract using unsafeImport* functions, which is used for proxy-less upgrades. CAUTION: Once import is finished, the importer role should be explicitly revoked."
        }
      },
      "paused()": {
        "details": "Returns true if the contract is paused, and false otherwise."
      },
      "proxiableUUID()": {
        "details": "Implementation of the ERC1822 {proxiableUUID} function. This returns the storage slot used by the implementation. It is used to validate that the this implementation remains valid after an upgrade. IMPORTANT: A proxy pointing at a proxiable contract should not be considered proxiable itself, because this risks bricking a proxy that upgrades to it, by delegating to itself until out of gas. Thus it is critical that this function revert if invoked through a proxy. This is guaranteed by the `notDelegated` modifier."
      },
      "renounceRole(bytes32,address)": {
        "details": "Revokes `role` from the calling account. Roles are often managed via {grantRole} and {revokeRole}: this function's purpose is to provide a mechanism for accounts to lose their privileges if they are compromised (such as when a trusted device is misplaced). If the calling account had been revoked `role`, emits a {RoleRevoked} event. Requirements: - the caller must be `account`."
      },
      "revokeRole(bytes32,address)": {
        "details": "Revokes `role` from `account`. If `account` had been granted `role`, emits a {RoleRevoked} event. Requirements: - the caller must have ``role``'s admin role."
      },
      "setOperatorProps(bytes32,string,string)": {
        "details": "Does not check name or email for validity or uniqueness"
      },
      "supportsInterface(bytes4)": {
        "details": "See {IERC165-supportsInterface}."
      },
      "unsafeImportData((bytes32,address,string,string,uint256,uint256)[],bool)": {
        "details": "Allows to import initial contract data. Used for proxy-less upgrades.",
        "params": {
          "revokeImporterRole": "stops further data import by revoking the role. CAUTION: Once import is finished, the role should be explicitly revoked."
        }
      },
      "unsafeSetBalances(uint256,uint256,uint256,uint256)": {
        "details": "Adjusts multiple operators balances relative to their current values.CAUTION: This can break data consistency. Used for proxy-less upgrades."
      },
      "unsafeSetRegistry(address)": {
        "details": "CAUTION: This can break data consistency. Used for proxy-less upgrades."
      },
      "upgradeTo(address)": {
        "details": "Upgrade the implementation of the proxy to `newImplementation`. Calls {_authorizeUpgrade}. Emits an {Upgraded} event."
      },
      "upgradeToAndCall(address,bytes)": {
        "details": "Upgrade the implementation of the proxy to `newImplementation`, and subsequently execute the function call encoded in `data`. Calls {_authorizeUpgrade}. Emits an {Upgraded} event."
      }
    },
    "title": "Entry point for managing network node operators",
    "version": 1
  },
  "userdoc": {
    "kind": "user",
    "methods": {
      "createOperator(address,string,string)": {
        "notice": "Registers a new network operator. Only admin can do this."
      },
      "deleteOperator(bytes32)": {
        "notice": "Unregisters a network operator. Reverts if operator has stake or nodes."
      },
      "depositOperatorBalance(bytes32,uint256,uint256,uint8,bytes32,bytes32)": {
        "notice": "Transfers USDC into the contract and applies them toward given operator balance."
      },
      "depositOperatorStake(bytes32,uint256,uint256,uint8,bytes32,bytes32)": {
        "notice": "Transfers tokens into the contract and applies them toward given operator stake."
      },
      "withdrawOperatorBalance(bytes32,uint256,address)": {
        "notice": "Transfers earned USDC from contract to given recipient."
      },
      "withdrawOperatorStake(bytes32,uint256,address)": {
        "notice": "Transfers stake from contract to given recipient. Reverts if stake is locked."
      }
    },
    "version": 1
  },
  "storageLayout": {
    "storage": [
      {
        "astId": 808,
        "contract": "contracts/ArmadaOperators.sol:ArmadaOperators",
        "label": "_initialized",
        "offset": 0,
        "slot": "0",
        "type": "t_uint8"
      },
      {
        "astId": 811,
        "contract": "contracts/ArmadaOperators.sol:ArmadaOperators",
        "label": "_initializing",
        "offset": 1,
        "slot": "0",
        "type": "t_bool"
      },
      {
        "astId": 1533,
        "contract": "contracts/ArmadaOperators.sol:ArmadaOperators",
        "label": "__gap",
        "offset": 0,
        "slot": "1",
        "type": "t_array(t_uint256)50_storage"
      },
      {
        "astId": 1840,
        "contract": "contracts/ArmadaOperators.sol:ArmadaOperators",
        "label": "__gap",
        "offset": 0,
        "slot": "51",
        "type": "t_array(t_uint256)50_storage"
      },
      {
        "astId": 39,
        "contract": "contracts/ArmadaOperators.sol:ArmadaOperators",
        "label": "_roles",
        "offset": 0,
        "slot": "101",
        "type": "t_mapping(t_bytes32,t_struct(RoleData)34_storage)"
      },
      {
        "astId": 338,
        "contract": "contracts/ArmadaOperators.sol:ArmadaOperators",
        "label": "__gap",
        "offset": 0,
        "slot": "102",
        "type": "t_array(t_uint256)49_storage"
      },
      {
        "astId": 1100,
        "contract": "contracts/ArmadaOperators.sol:ArmadaOperators",
        "label": "_paused",
        "offset": 0,
        "slot": "151",
        "type": "t_bool"
      },
      {
        "astId": 1189,
        "contract": "contracts/ArmadaOperators.sol:ArmadaOperators",
        "label": "__gap",
        "offset": 0,
        "slot": "152",
        "type": "t_array(t_uint256)49_storage"
      },
      {
        "astId": 1204,
        "contract": "contracts/ArmadaOperators.sol:ArmadaOperators",
        "label": "_status",
        "offset": 0,
        "slot": "201",
        "type": "t_uint256"
      },
      {
        "astId": 1248,
        "contract": "contracts/ArmadaOperators.sol:ArmadaOperators",
        "label": "__gap",
        "offset": 0,
        "slot": "202",
        "type": "t_array(t_uint256)49_storage"
      },
      {
        "astId": 790,
        "contract": "contracts/ArmadaOperators.sol:ArmadaOperators",
        "label": "__gap",
        "offset": 0,
        "slot": "251",
        "type": "t_array(t_uint256)50_storage"
      },
      {
        "astId": 1078,
        "contract": "contracts/ArmadaOperators.sol:ArmadaOperators",
        "label": "__gap",
        "offset": 0,
        "slot": "301",
        "type": "t_array(t_uint256)50_storage"
      },
      {
        "astId": 13360,
        "contract": "contracts/ArmadaOperators.sol:ArmadaOperators",
        "label": "_registry",
        "offset": 0,
        "slot": "351",
        "type": "t_contract(ArmadaRegistry)17384"
      },
      {
        "astId": 13362,
        "contract": "contracts/ArmadaOperators.sol:ArmadaOperators",
        "label": "_stakePerNode",
        "offset": 0,
        "slot": "352",
        "type": "t_uint256"
      },
      {
        "astId": 13367,
        "contract": "contracts/ArmadaOperators.sol:ArmadaOperators",
        "label": "_operators",
        "offset": 0,
        "slot": "353",
        "type": "t_mapping(t_bytes32,t_struct(ArmadaOperator)18902_storage)"
      },
      {
        "astId": 13370,
        "contract": "contracts/ArmadaOperators.sol:ArmadaOperators",
        "label": "_operatorIds",
        "offset": 0,
        "slot": "354",
        "type": "t_struct(Bytes32Set)9898_storage"
      }
    ],
    "types": {
      "t_address": {
        "encoding": "inplace",
        "label": "address",
        "numberOfBytes": "20"
      },
      "t_array(t_bytes32)dyn_storage": {
        "base": "t_bytes32",
        "encoding": "dynamic_array",
        "label": "bytes32[]",
        "numberOfBytes": "32"
      },
      "t_array(t_uint256)49_storage": {
        "base": "t_uint256",
        "encoding": "inplace",
        "label": "uint256[49]",
        "numberOfBytes": "1568"
      },
      "t_array(t_uint256)50_storage": {
        "base": "t_uint256",
        "encoding": "inplace",
        "label": "uint256[50]",
        "numberOfBytes": "1600"
      },
      "t_bool": {
        "encoding": "inplace",
        "label": "bool",
        "numberOfBytes": "1"
      },
      "t_bytes32": {
        "encoding": "inplace",
        "label": "bytes32",
        "numberOfBytes": "32"
      },
      "t_contract(ArmadaRegistry)17384": {
        "encoding": "inplace",
        "label": "contract ArmadaRegistry",
        "numberOfBytes": "20"
      },
      "t_mapping(t_address,t_bool)": {
        "encoding": "mapping",
        "key": "t_address",
        "label": "mapping(address => bool)",
        "numberOfBytes": "32",
        "value": "t_bool"
      },
      "t_mapping(t_bytes32,t_struct(ArmadaOperator)18902_storage)": {
        "encoding": "mapping",
        "key": "t_bytes32",
        "label": "mapping(bytes32 => struct ArmadaOperator)",
        "numberOfBytes": "32",
        "value": "t_struct(ArmadaOperator)18902_storage"
      },
      "t_mapping(t_bytes32,t_struct(RoleData)34_storage)": {
        "encoding": "mapping",
        "key": "t_bytes32",
        "label": "mapping(bytes32 => struct AccessControlUpgradeable.RoleData)",
        "numberOfBytes": "32",
        "value": "t_struct(RoleData)34_storage"
      },
      "t_mapping(t_bytes32,t_uint256)": {
        "encoding": "mapping",
        "key": "t_bytes32",
        "label": "mapping(bytes32 => uint256)",
        "numberOfBytes": "32",
        "value": "t_uint256"
      },
      "t_string_storage": {
        "encoding": "bytes",
        "label": "string",
        "numberOfBytes": "32"
      },
      "t_struct(ArmadaOperator)18902_storage": {
        "encoding": "inplace",
        "label": "struct ArmadaOperator",
        "members": [
          {
            "astId": 18891,
            "contract": "contracts/ArmadaOperators.sol:ArmadaOperators",
            "label": "id",
            "offset": 0,
            "slot": "0",
            "type": "t_bytes32"
          },
          {
            "astId": 18893,
            "contract": "contracts/ArmadaOperators.sol:ArmadaOperators",
            "label": "owner",
            "offset": 0,
            "slot": "1",
            "type": "t_address"
          },
          {
            "astId": 18895,
            "contract": "contracts/ArmadaOperators.sol:ArmadaOperators",
            "label": "name",
            "offset": 0,
            "slot": "2",
            "type": "t_string_storage"
          },
          {
            "astId": 18897,
            "contract": "contracts/ArmadaOperators.sol:ArmadaOperators",
            "label": "email",
            "offset": 0,
            "slot": "3",
            "type": "t_string_storage"
          },
          {
            "astId": 18899,
            "contract": "contracts/ArmadaOperators.sol:ArmadaOperators",
            "label": "stake",
            "offset": 0,
            "slot": "4",
            "type": "t_uint256"
          },
          {
            "astId": 18901,
            "contract": "contracts/ArmadaOperators.sol:ArmadaOperators",
            "label": "balance",
            "offset": 0,
            "slot": "5",
            "type": "t_uint256"
          }
        ],
        "numberOfBytes": "192"
      },
      "t_struct(Bytes32Set)9898_storage": {
        "encoding": "inplace",
        "label": "struct EnumerableSet.Bytes32Set",
        "members": [
          {
            "astId": 9897,
            "contract": "contracts/ArmadaOperators.sol:ArmadaOperators",
            "label": "_inner",
            "offset": 0,
            "slot": "0",
            "type": "t_struct(Set)9704_storage"
          }
        ],
        "numberOfBytes": "64"
      },
      "t_struct(RoleData)34_storage": {
        "encoding": "inplace",
        "label": "struct AccessControlUpgradeable.RoleData",
        "members": [
          {
            "astId": 31,
            "contract": "contracts/ArmadaOperators.sol:ArmadaOperators",
            "label": "members",
            "offset": 0,
            "slot": "0",
            "type": "t_mapping(t_address,t_bool)"
          },
          {
            "astId": 33,
            "contract": "contracts/ArmadaOperators.sol:ArmadaOperators",
            "label": "adminRole",
            "offset": 0,
            "slot": "1",
            "type": "t_bytes32"
          }
        ],
        "numberOfBytes": "64"
      },
      "t_struct(Set)9704_storage": {
        "encoding": "inplace",
        "label": "struct EnumerableSet.Set",
        "members": [
          {
            "astId": 9699,
            "contract": "contracts/ArmadaOperators.sol:ArmadaOperators",
            "label": "_values",
            "offset": 0,
            "slot": "0",
            "type": "t_array(t_bytes32)dyn_storage"
          },
          {
            "astId": 9703,
            "contract": "contracts/ArmadaOperators.sol:ArmadaOperators",
            "label": "_indexes",
            "offset": 0,
            "slot": "1",
            "type": "t_mapping(t_bytes32,t_uint256)"
          }
        ],
        "numberOfBytes": "64"
      },
      "t_uint256": {
        "encoding": "inplace",
        "label": "uint256",
        "numberOfBytes": "32"
      },
      "t_uint8": {
        "encoding": "inplace",
        "label": "uint8",
        "numberOfBytes": "1"
      }
    }
  }
}