{
  "address": "0xEc72d099D0f791B4841A4EcBc99B98BCB7F08748",
  "abi": [
    {
      "anonymous": false,
      "inputs": [
        {
          "indexed": false,
          "internalType": "address",
          "name": "previousAdmin",
          "type": "address"
        },
        {
          "indexed": false,
          "internalType": "address",
          "name": "newAdmin",
          "type": "address"
        }
      ],
      "name": "AdminChanged",
      "type": "event"
    },
    {
      "anonymous": false,
      "inputs": [
        {
          "indexed": true,
          "internalType": "address",
          "name": "beacon",
          "type": "address"
        }
      ],
      "name": "BeaconUpgraded",
      "type": "event"
    },
    {
      "anonymous": false,
      "inputs": [
        {
          "indexed": false,
          "internalType": "uint8",
          "name": "version",
          "type": "uint8"
        }
      ],
      "name": "Initialized",
      "type": "event"
    },
    {
      "anonymous": false,
      "inputs": [
        {
          "indexed": false,
          "internalType": "address",
          "name": "account",
          "type": "address"
        }
      ],
      "name": "Paused",
      "type": "event"
    },
    {
      "anonymous": false,
      "inputs": [
        {
          "indexed": true,
          "internalType": "bytes32",
          "name": "projectId",
          "type": "bytes32"
        },
        {
          "indexed": false,
          "internalType": "string",
          "name": "oldContent",
          "type": "string"
        },
        {
          "indexed": false,
          "internalType": "bytes32",
          "name": "oldChecksum",
          "type": "bytes32"
        },
        {
          "indexed": false,
          "internalType": "string",
          "name": "newContent",
          "type": "string"
        },
        {
          "indexed": false,
          "internalType": "bytes32",
          "name": "newChecksum",
          "type": "bytes32"
        }
      ],
      "name": "ProjectContentChanged",
      "type": "event"
    },
    {
      "anonymous": false,
      "inputs": [
        {
          "indexed": true,
          "internalType": "bytes32",
          "name": "projectId",
          "type": "bytes32"
        },
        {
          "indexed": true,
          "internalType": "address",
          "name": "owner",
          "type": "address"
        },
        {
          "indexed": false,
          "internalType": "string",
          "name": "name",
          "type": "string"
        },
        {
          "indexed": false,
          "internalType": "string",
          "name": "email",
          "type": "string"
        },
        {
          "indexed": false,
          "internalType": "string",
          "name": "content",
          "type": "string"
        },
        {
          "indexed": false,
          "internalType": "bytes32",
          "name": "checksum",
          "type": "bytes32"
        },
        {
          "indexed": false,
          "internalType": "string",
          "name": "metadata",
          "type": "string"
        }
      ],
      "name": "ProjectCreated",
      "type": "event"
    },
    {
      "anonymous": false,
      "inputs": [
        {
          "indexed": true,
          "internalType": "bytes32",
          "name": "projectId",
          "type": "bytes32"
        },
        {
          "indexed": true,
          "internalType": "address",
          "name": "owner",
          "type": "address"
        },
        {
          "indexed": false,
          "internalType": "string",
          "name": "name",
          "type": "string"
        },
        {
          "indexed": false,
          "internalType": "string",
          "name": "email",
          "type": "string"
        },
        {
          "indexed": false,
          "internalType": "string",
          "name": "content",
          "type": "string"
        },
        {
          "indexed": false,
          "internalType": "bytes32",
          "name": "checksum",
          "type": "bytes32"
        },
        {
          "indexed": false,
          "internalType": "string",
          "name": "metadata",
          "type": "string"
        }
      ],
      "name": "ProjectDeleted",
      "type": "event"
    },
    {
      "anonymous": false,
      "inputs": [
        {
          "indexed": true,
          "internalType": "bytes32",
          "name": "projectId",
          "type": "bytes32"
        },
        {
          "indexed": false,
          "internalType": "uint256",
          "name": "oldEscrow",
          "type": "uint256"
        },
        {
          "indexed": false,
          "internalType": "uint256",
          "name": "newEscrow",
          "type": "uint256"
        }
      ],
      "name": "ProjectEscrowChanged",
      "type": "event"
    },
    {
      "anonymous": false,
      "inputs": [
        {
          "indexed": true,
          "internalType": "bytes32",
          "name": "projectId",
          "type": "bytes32"
        },
        {
          "indexed": false,
          "internalType": "string",
          "name": "oldMetadata",
          "type": "string"
        },
        {
          "indexed": false,
          "internalType": "string",
          "name": "newMetadata",
          "type": "string"
        }
      ],
      "name": "ProjectMetadataChanged",
      "type": "event"
    },
    {
      "anonymous": false,
      "inputs": [
        {
          "indexed": true,
          "internalType": "bytes32",
          "name": "projectId",
          "type": "bytes32"
        },
        {
          "indexed": true,
          "internalType": "address",
          "name": "oldOwner",
          "type": "address"
        },
        {
          "indexed": true,
          "internalType": "address",
          "name": "newOwner",
          "type": "address"
        }
      ],
      "name": "ProjectOwnerChanged",
      "type": "event"
    },
    {
      "anonymous": false,
      "inputs": [
        {
          "indexed": true,
          "internalType": "bytes32",
          "name": "projectId",
          "type": "bytes32"
        },
        {
          "indexed": false,
          "internalType": "string",
          "name": "oldName",
          "type": "string"
        },
        {
          "indexed": false,
          "internalType": "string",
          "name": "oldEmail",
          "type": "string"
        },
        {
          "indexed": false,
          "internalType": "string",
          "name": "newName",
          "type": "string"
        },
        {
          "indexed": false,
          "internalType": "string",
          "name": "newEmail",
          "type": "string"
        }
      ],
      "name": "ProjectPropsChanged",
      "type": "event"
    },
    {
      "anonymous": false,
      "inputs": [
        {
          "indexed": true,
          "internalType": "bytes32",
          "name": "role",
          "type": "bytes32"
        },
        {
          "indexed": true,
          "internalType": "bytes32",
          "name": "previousAdminRole",
          "type": "bytes32"
        },
        {
          "indexed": true,
          "internalType": "bytes32",
          "name": "newAdminRole",
          "type": "bytes32"
        }
      ],
      "name": "RoleAdminChanged",
      "type": "event"
    },
    {
      "anonymous": false,
      "inputs": [
        {
          "indexed": true,
          "internalType": "bytes32",
          "name": "role",
          "type": "bytes32"
        },
        {
          "indexed": true,
          "internalType": "address",
          "name": "account",
          "type": "address"
        },
        {
          "indexed": true,
          "internalType": "address",
          "name": "sender",
          "type": "address"
        }
      ],
      "name": "RoleGranted",
      "type": "event"
    },
    {
      "anonymous": false,
      "inputs": [
        {
          "indexed": true,
          "internalType": "bytes32",
          "name": "role",
          "type": "bytes32"
        },
        {
          "indexed": true,
          "internalType": "address",
          "name": "account",
          "type": "address"
        },
        {
          "indexed": true,
          "internalType": "address",
          "name": "sender",
          "type": "address"
        }
      ],
      "name": "RoleRevoked",
      "type": "event"
    },
    {
      "anonymous": false,
      "inputs": [
        {
          "indexed": false,
          "internalType": "address",
          "name": "account",
          "type": "address"
        }
      ],
      "name": "Unpaused",
      "type": "event"
    },
    {
      "anonymous": false,
      "inputs": [
        {
          "indexed": true,
          "internalType": "address",
          "name": "implementation",
          "type": "address"
        }
      ],
      "name": "Upgraded",
      "type": "event"
    },
    {
      "inputs": [],
      "name": "DEFAULT_ADMIN_ROLE",
      "outputs": [
        {
          "internalType": "bytes32",
          "name": "",
          "type": "bytes32"
        }
      ],
      "stateMutability": "view",
      "type": "function"
    },
    {
      "inputs": [],
      "name": "IMPORTER_ROLE",
      "outputs": [
        {
          "internalType": "bytes32",
          "name": "",
          "type": "bytes32"
        }
      ],
      "stateMutability": "view",
      "type": "function"
    },
    {
      "inputs": [],
      "name": "PROJECT_CREATOR_ROLE",
      "outputs": [
        {
          "internalType": "bytes32",
          "name": "",
          "type": "bytes32"
        }
      ],
      "stateMutability": "view",
      "type": "function"
    },
    {
      "inputs": [
        {
          "components": [
            {
              "internalType": "address",
              "name": "owner",
              "type": "address"
            },
            {
              "internalType": "string",
              "name": "name",
              "type": "string"
            },
            {
              "internalType": "string",
              "name": "email",
              "type": "string"
            },
            {
              "internalType": "string",
              "name": "content",
              "type": "string"
            },
            {
              "internalType": "bytes32",
              "name": "checksum",
              "type": "bytes32"
            },
            {
              "internalType": "string",
              "name": "metadata",
              "type": "string"
            }
          ],
          "internalType": "struct ArmadaCreateProjectData",
          "name": "project",
          "type": "tuple"
        }
      ],
      "name": "createProject",
      "outputs": [
        {
          "internalType": "bytes32",
          "name": "projectId",
          "type": "bytes32"
        }
      ],
      "stateMutability": "nonpayable",
      "type": "function"
    },
    {
      "inputs": [
        {
          "internalType": "bytes32",
          "name": "projectId",
          "type": "bytes32"
        }
      ],
      "name": "deleteProject",
      "outputs": [],
      "stateMutability": "nonpayable",
      "type": "function"
    },
    {
      "inputs": [
        {
          "internalType": "bytes32",
          "name": "projectId",
          "type": "bytes32"
        },
        {
          "internalType": "uint256",
          "name": "amount",
          "type": "uint256"
        },
        {
          "internalType": "uint256",
          "name": "deadline",
          "type": "uint256"
        },
        {
          "internalType": "uint8",
          "name": "v",
          "type": "uint8"
        },
        {
          "internalType": "bytes32",
          "name": "r",
          "type": "bytes32"
        },
        {
          "internalType": "bytes32",
          "name": "s",
          "type": "bytes32"
        }
      ],
      "name": "depositProjectEscrow",
      "outputs": [],
      "stateMutability": "nonpayable",
      "type": "function"
    },
    {
      "inputs": [
        {
          "internalType": "bytes32",
          "name": "projectId",
          "type": "bytes32"
        }
      ],
      "name": "getProject",
      "outputs": [
        {
          "components": [
            {
              "internalType": "bytes32",
              "name": "id",
              "type": "bytes32"
            },
            {
              "internalType": "address",
              "name": "owner",
              "type": "address"
            },
            {
              "internalType": "string",
              "name": "name",
              "type": "string"
            },
            {
              "internalType": "string",
              "name": "email",
              "type": "string"
            },
            {
              "internalType": "uint256",
              "name": "escrow",
              "type": "uint256"
            },
            {
              "internalType": "uint256",
              "name": "reserve",
              "type": "uint256"
            },
            {
              "internalType": "string",
              "name": "content",
              "type": "string"
            },
            {
              "internalType": "bytes32",
              "name": "checksum",
              "type": "bytes32"
            },
            {
              "internalType": "string",
              "name": "metadata",
              "type": "string"
            }
          ],
          "internalType": "struct ArmadaProject",
          "name": "",
          "type": "tuple"
        }
      ],
      "stateMutability": "view",
      "type": "function"
    },
    {
      "inputs": [],
      "name": "getProjectCount",
      "outputs": [
        {
          "internalType": "uint256",
          "name": "",
          "type": "uint256"
        }
      ],
      "stateMutability": "view",
      "type": "function"
    },
    {
      "inputs": [
        {
          "internalType": "uint256",
          "name": "skip",
          "type": "uint256"
        },
        {
          "internalType": "uint256",
          "name": "size",
          "type": "uint256"
        }
      ],
      "name": "getProjects",
      "outputs": [
        {
          "components": [
            {
              "internalType": "bytes32",
              "name": "id",
              "type": "bytes32"
            },
            {
              "internalType": "address",
              "name": "owner",
              "type": "address"
            },
            {
              "internalType": "string",
              "name": "name",
              "type": "string"
            },
            {
              "internalType": "string",
              "name": "email",
              "type": "string"
            },
            {
              "internalType": "uint256",
              "name": "escrow",
              "type": "uint256"
            },
            {
              "internalType": "uint256",
              "name": "reserve",
              "type": "uint256"
            },
            {
              "internalType": "string",
              "name": "content",
              "type": "string"
            },
            {
              "internalType": "bytes32",
              "name": "checksum",
              "type": "bytes32"
            },
            {
              "internalType": "string",
              "name": "metadata",
              "type": "string"
            }
          ],
          "internalType": "struct ArmadaProject[]",
          "name": "values",
          "type": "tuple[]"
        }
      ],
      "stateMutability": "view",
      "type": "function"
    },
    {
      "inputs": [],
      "name": "getRegistry",
      "outputs": [
        {
          "internalType": "contract ArmadaRegistry",
          "name": "",
          "type": "address"
        }
      ],
      "stateMutability": "view",
      "type": "function"
    },
    {
      "inputs": [
        {
          "internalType": "bytes32",
          "name": "role",
          "type": "bytes32"
        }
      ],
      "name": "getRoleAdmin",
      "outputs": [
        {
          "internalType": "bytes32",
          "name": "",
          "type": "bytes32"
        }
      ],
      "stateMutability": "view",
      "type": "function"
    },
    {
      "inputs": [
        {
          "internalType": "bytes32",
          "name": "role",
          "type": "bytes32"
        },
        {
          "internalType": "address",
          "name": "account",
          "type": "address"
        }
      ],
      "name": "grantRole",
      "outputs": [],
      "stateMutability": "nonpayable",
      "type": "function"
    },
    {
      "inputs": [
        {
          "internalType": "bytes32",
          "name": "role",
          "type": "bytes32"
        },
        {
          "internalType": "address",
          "name": "account",
          "type": "address"
        }
      ],
      "name": "hasRole",
      "outputs": [
        {
          "internalType": "bool",
          "name": "",
          "type": "bool"
        }
      ],
      "stateMutability": "view",
      "type": "function"
    },
    {
      "inputs": [
        {
          "internalType": "address[]",
          "name": "admins",
          "type": "address[]"
        },
        {
          "internalType": "contract ArmadaRegistry",
          "name": "registry",
          "type": "address"
        },
        {
          "internalType": "bool",
          "name": "grantImporterRole",
          "type": "bool"
        }
      ],
      "name": "initialize",
      "outputs": [],
      "stateMutability": "nonpayable",
      "type": "function"
    },
    {
      "inputs": [],
      "name": "pause",
      "outputs": [],
      "stateMutability": "nonpayable",
      "type": "function"
    },
    {
      "inputs": [],
      "name": "paused",
      "outputs": [
        {
          "internalType": "bool",
          "name": "",
          "type": "bool"
        }
      ],
      "stateMutability": "view",
      "type": "function"
    },
    {
      "inputs": [],
      "name": "proxiableUUID",
      "outputs": [
        {
          "internalType": "bytes32",
          "name": "",
          "type": "bytes32"
        }
      ],
      "stateMutability": "view",
      "type": "function"
    },
    {
      "inputs": [
        {
          "internalType": "bytes32",
          "name": "role",
          "type": "bytes32"
        },
        {
          "internalType": "address",
          "name": "account",
          "type": "address"
        }
      ],
      "name": "renounceRole",
      "outputs": [],
      "stateMutability": "nonpayable",
      "type": "function"
    },
    {
      "inputs": [
        {
          "internalType": "bytes32",
          "name": "role",
          "type": "bytes32"
        },
        {
          "internalType": "address",
          "name": "account",
          "type": "address"
        }
      ],
      "name": "revokeRole",
      "outputs": [],
      "stateMutability": "nonpayable",
      "type": "function"
    },
    {
      "inputs": [
        {
          "internalType": "bytes32",
          "name": "projectId",
          "type": "bytes32"
        },
        {
          "internalType": "string",
          "name": "content",
          "type": "string"
        },
        {
          "internalType": "bytes32",
          "name": "checksum",
          "type": "bytes32"
        }
      ],
      "name": "setProjectContent",
      "outputs": [],
      "stateMutability": "nonpayable",
      "type": "function"
    },
    {
      "inputs": [
        {
          "internalType": "bytes32",
          "name": "projectId",
          "type": "bytes32"
        },
        {
          "internalType": "uint256",
          "name": "decrease",
          "type": "uint256"
        },
        {
          "internalType": "uint256",
          "name": "increase",
          "type": "uint256"
        }
      ],
      "name": "setProjectEscrowImpl",
      "outputs": [],
      "stateMutability": "nonpayable",
      "type": "function"
    },
    {
      "inputs": [
        {
          "internalType": "bytes32",
          "name": "projectId",
          "type": "bytes32"
        },
        {
          "internalType": "string",
          "name": "metadata",
          "type": "string"
        }
      ],
      "name": "setProjectMetadata",
      "outputs": [],
      "stateMutability": "nonpayable",
      "type": "function"
    },
    {
      "inputs": [
        {
          "internalType": "bytes32",
          "name": "projectId",
          "type": "bytes32"
        },
        {
          "internalType": "address",
          "name": "owner",
          "type": "address"
        }
      ],
      "name": "setProjectOwner",
      "outputs": [],
      "stateMutability": "nonpayable",
      "type": "function"
    },
    {
      "inputs": [
        {
          "internalType": "bytes32",
          "name": "projectId",
          "type": "bytes32"
        },
        {
          "internalType": "string",
          "name": "name",
          "type": "string"
        },
        {
          "internalType": "string",
          "name": "email",
          "type": "string"
        }
      ],
      "name": "setProjectProps",
      "outputs": [],
      "stateMutability": "nonpayable",
      "type": "function"
    },
    {
      "inputs": [
        {
          "internalType": "bytes32",
          "name": "projectId",
          "type": "bytes32"
        },
        {
          "internalType": "uint256",
          "name": "decrease",
          "type": "uint256"
        },
        {
          "internalType": "uint256",
          "name": "increase",
          "type": "uint256"
        }
      ],
      "name": "setProjectReserveImpl",
      "outputs": [],
      "stateMutability": "nonpayable",
      "type": "function"
    },
    {
      "inputs": [
        {
          "internalType": "bytes4",
          "name": "interfaceId",
          "type": "bytes4"
        }
      ],
      "name": "supportsInterface",
      "outputs": [
        {
          "internalType": "bool",
          "name": "",
          "type": "bool"
        }
      ],
      "stateMutability": "view",
      "type": "function"
    },
    {
      "inputs": [],
      "name": "unpause",
      "outputs": [],
      "stateMutability": "nonpayable",
      "type": "function"
    },
    {
      "inputs": [
        {
          "components": [
            {
              "internalType": "bytes32",
              "name": "id",
              "type": "bytes32"
            },
            {
              "internalType": "address",
              "name": "owner",
              "type": "address"
            },
            {
              "internalType": "string",
              "name": "name",
              "type": "string"
            },
            {
              "internalType": "string",
              "name": "email",
              "type": "string"
            },
            {
              "internalType": "uint256",
              "name": "escrow",
              "type": "uint256"
            },
            {
              "internalType": "uint256",
              "name": "reserve",
              "type": "uint256"
            },
            {
              "internalType": "string",
              "name": "content",
              "type": "string"
            },
            {
              "internalType": "bytes32",
              "name": "checksum",
              "type": "bytes32"
            },
            {
              "internalType": "string",
              "name": "metadata",
              "type": "string"
            }
          ],
          "internalType": "struct ArmadaProject[]",
          "name": "projects",
          "type": "tuple[]"
        },
        {
          "internalType": "address[]",
          "name": "creators",
          "type": "address[]"
        },
        {
          "internalType": "bool",
          "name": "revokeImporterRole",
          "type": "bool"
        }
      ],
      "name": "unsafeImportData",
      "outputs": [],
      "stateMutability": "nonpayable",
      "type": "function"
    },
    {
      "inputs": [
        {
          "internalType": "uint256",
          "name": "skip",
          "type": "uint256"
        },
        {
          "internalType": "uint256",
          "name": "size",
          "type": "uint256"
        },
        {
          "internalType": "uint256",
          "name": "mul",
          "type": "uint256"
        },
        {
          "internalType": "uint256",
          "name": "div",
          "type": "uint256"
        }
      ],
      "name": "unsafeSetEscrows",
      "outputs": [],
      "stateMutability": "nonpayable",
      "type": "function"
    },
    {
      "inputs": [
        {
          "internalType": "contract ArmadaRegistry",
          "name": "registry",
          "type": "address"
        }
      ],
      "name": "unsafeSetRegistry",
      "outputs": [],
      "stateMutability": "nonpayable",
      "type": "function"
    },
    {
      "inputs": [
        {
          "internalType": "address",
          "name": "newImplementation",
          "type": "address"
        }
      ],
      "name": "upgradeTo",
      "outputs": [],
      "stateMutability": "nonpayable",
      "type": "function"
    },
    {
      "inputs": [
        {
          "internalType": "address",
          "name": "newImplementation",
          "type": "address"
        },
        {
          "internalType": "bytes",
          "name": "data",
          "type": "bytes"
        }
      ],
      "name": "upgradeToAndCall",
      "outputs": [],
      "stateMutability": "payable",
      "type": "function"
    },
    {
      "inputs": [
        {
          "internalType": "bytes32",
          "name": "projectId",
          "type": "bytes32"
        },
        {
          "internalType": "uint256",
          "name": "amount",
          "type": "uint256"
        },
        {
          "internalType": "address",
          "name": "to",
          "type": "address"
        }
      ],
      "name": "withdrawProjectEscrow",
      "outputs": [],
      "stateMutability": "nonpayable",
      "type": "function"
    }
  ],
  "transactionHash": "0xbf1a393320f21c2f5d10557ef308743d6bc12c9ced528af656be475cae97a3a5",
  "numDeployments": 1,
  "solcInputHash": "3d7781041167c62982425bd61ad25fd4",
  "bytecode": "0x60a06040523060805234801561001457600080fd5b5060805161549861004c60003960008181610a4801528181610a8801528181611674015281816116b4015261174301526154986000f3fe6080604052600436106101ee5760003560e01c806367a890991161010d57806391d14854116100a0578063d0a189581161006f578063d0a1895814610583578063d547741f146105a3578063da481dd6146105c3578063e6416b21146105e3578063f1bd1b8a1461060357600080fd5b806391d1485414610501578063a217fddf14610521578063a84ce2b514610536578063b9a2adf01461056357600080fd5b80637aee1c6b116100dc5780637aee1c6b1461048c57806383945d4b146104ac5780638456cb59146104cc578063862514b3146104e157600080fd5b806367a890991461040a5780636f091dbf1461042a5780636fa2a0671461044a578063755dc5971461046c57600080fd5b80633f4ba83a116101855780634f1ef286116101545780634f1ef286146103a157806352d1902d146103b45780635ab1bd53146103c95780635c975abb146103f257600080fd5b80633f4ba83a1461031f578063491a8bbd146103345780634b5f748a146103545780634db873621461038157600080fd5b80632f2ff15d116101c15780632f2ff15d146102aa57806336568abe146102ca5780633659cfe6146102ea5780633bcff3b01461030a57600080fd5b806301ffc9a7146101f357806312565dd01461022857806323c1a61c1461024a578063248a9ca31461027a575b600080fd5b3480156101ff57600080fd5b5061021361020e3660046143ea565b610623565b60405190151581526020015b60405180910390f35b34801561023457600080fd5b50610248610243366004614434565b61065a565b005b34801561025657600080fd5b5061026c60008051602061544383398151915281565b60405190815260200161021f565b34801561028657600080fd5b5061026c61029536600461446d565b60009081526065602052604090206001015490565b3480156102b657600080fd5b506102486102c5366004614486565b610995565b3480156102d657600080fd5b506102486102e5366004614486565b6109bf565b3480156102f657600080fd5b506102486103053660046144b6565b610a3d565b34801561031657600080fd5b5061026c610b1d565b34801561032b57600080fd5b50610248610b2f565b34801561034057600080fd5b5061024861034f3660046144d3565b610b60565b34801561036057600080fd5b5061037461036f36600461446d565b610e9d565b60405161021f9190614636565b34801561038d57600080fd5b5061026c61039c36600461471c565b611165565b6102486103af36600461480f565b611669565b3480156103c057600080fd5b5061026c611736565b3480156103d557600080fd5b5061015f546040516001600160a01b03909116815260200161021f565b3480156103fe57600080fd5b5060975460ff16610213565b34801561041657600080fd5b506102486104253660046148ba565b6117e9565b34801561043657600080fd5b5061024861044536600461495e565b611a34565b34801561045657600080fd5b5061026c60008051602061542383398151915281565b34801561047857600080fd5b506102486104873660046149e1565b611bc3565b34801561049857600080fd5b506102486104a7366004614a2c565b611dfd565b3480156104b857600080fd5b506102486104c7366004614a93565b611fd1565b3480156104d857600080fd5b50610248612313565b3480156104ed57600080fd5b506102486104fc366004614abf565b612342565b34801561050d57600080fd5b5061021361051c366004614486565b61269d565b34801561052d57600080fd5b5061026c600081565b34801561054257600080fd5b50610556610551366004614b38565b6126c8565b60405161021f9190614b5a565b34801561056f57600080fd5b5061024861057e3660046144b6565b612a50565b34801561058f57600080fd5b5061024861059e36600461446d565b612a9a565b3480156105af57600080fd5b506102486105be366004614486565b6130c2565b3480156105cf57600080fd5b506102486105de366004614a93565b6130e7565b3480156105ef57600080fd5b506102486105fe366004614486565b61341e565b34801561060f57600080fd5b5061024861061e366004614bbc565b613608565b60006001600160e01b03198216637965db0b60e01b148061065457506301ffc9a760e01b6001600160e01b03198316145b92915050565b600260c95414156106b25760405162461bcd60e51b815260206004820152601f60248201527f5265656e7472616e637947756172643a207265656e7472616e742063616c6c0060448201526064015b60405180910390fd5b600260c95560008381526101606020526040902080548491906106e75760405162461bcd60e51b81526004016106a990614bee565b60018101546001600160a01b031633146107135760405162461bcd60e51b81526004016106a990614c17565b61015f60009054906101000a90046001600160a01b03166001600160a01b031663bb1f47406040518163ffffffff1660e01b8152600401600060405180830381600087803b15801561076457600080fd5b505af1158015610778573d6000803e3d6000fd5b5050505061078860975460ff1690565b156107a55760405162461bcd60e51b81526004016106a990614c42565b60008581526101606020526040902080546107c2576107c2614c6c565b8481600501546107d29190614c98565b816004015410156108195760405162461bcd60e51b81526020600482015260116024820152706e6f7420656e6f75676820657363726f7760781b60448201526064016106a9565b600481018054908690600061082e8385614cb0565b909155505061015f5460408051631bf01e9b60e01b815290516001600160a01b0390921691631bf01e9b91600480820192602092909190829003018186803b15801561087957600080fd5b505afa15801561088d573d6000803e3d6000fd5b505050506040513d601f19601f820116820180604052508101906108b19190614cc7565b61015f546040516323b872dd60e01b81526001600160a01b0391821660048201528782166024820152604481018990529116906323b872dd90606401602060405180830381600087803b15801561090757600080fd5b505af115801561091b573d6000803e3d6000fd5b505050506040513d601f19601f8201168201806040525081019061093f9190614ce4565b50867f2a5f5e56e89c57ee03d89ec4718d7ae9911b09486c8ac692e4908ef267eb280482846004015460405161097f929190918252602082015260400190565b60405180910390a25050600160c9555050505050565b6000828152606560205260409020600101546109b081613721565b6109ba838361372b565b505050565b6001600160a01b0381163314610a2f5760405162461bcd60e51b815260206004820152602f60248201527f416363657373436f6e74726f6c3a2063616e206f6e6c792072656e6f756e636560448201526e103937b632b9903337b91039b2b63360891b60648201526084016106a9565b610a3982826137b1565b5050565b306001600160a01b037f0000000000000000000000000000000000000000000000000000000000000000161415610a865760405162461bcd60e51b81526004016106a990614d01565b7f00000000000000000000000000000000000000000000000000000000000000006001600160a01b0316610acf6000805160206153dc833981519152546001600160a01b031690565b6001600160a01b031614610af55760405162461bcd60e51b81526004016106a990614d4d565b610afe81613818565b60408051600080825260208201909252610b1a9183919061383f565b50565b6000610b2a6101616139b9565b905090565b610b3a60003361269d565b610b565760405162461bcd60e51b81526004016106a990614d99565b610b5e6139c3565b565b60975460ff1615610b835760405162461bcd60e51b81526004016106a990614c42565b6000868152610160602052604090208054610bb05760405162461bcd60e51b81526004016106a990614bee565b6004810180549087906000610bc58385614c98565b90915550508215610ce25761015f60009054906101000a90046001600160a01b03166001600160a01b0316631bf01e9b6040518163ffffffff1660e01b815260040160206040518083038186803b158015610c1f57600080fd5b505afa158015610c33573d6000803e3d6000fd5b505050506040513d601f19601f82011682018060405250810190610c579190614cc7565b60405163d505accf60e01b8152336004820152306024820152604481018990526064810188905260ff8716608482015260a4810186905260c481018590526001600160a01b03919091169063d505accf9060e401600060405180830381600087803b158015610cc557600080fd5b505af1158015610cd9573d6000803e3d6000fd5b50505050610d38565b85158015610cf1575060ff8516155b8015610cfb575083155b610d385760405162461bcd60e51b815260206004820152600e60248201526d1a5b9d985b1a59081c195c9b5a5d60921b60448201526064016106a9565b61015f60009054906101000a90046001600160a01b03166001600160a01b0316631bf01e9b6040518163ffffffff1660e01b815260040160206040518083038186803b158015610d8757600080fd5b505afa158015610d9b573d6000803e3d6000fd5b505050506040513d601f19601f82011682018060405250810190610dbf9190614cc7565b61015f546040516323b872dd60e01b81523360048201526001600160a01b039182166024820152604481018a90529116906323b872dd90606401602060405180830381600087803b158015610e1357600080fd5b505af1158015610e27573d6000803e3d6000fd5b505050506040513d601f19601f82011682018060405250810190610e4b9190614ce4565b50877f2a5f5e56e89c57ee03d89ec4718d7ae9911b09486c8ac692e4908ef267eb2804828460040154604051610e8b929190918252602082015260400190565b60405180910390a25050505050505050565b610ea561424c565b6000828152610160602090815260408083208151610120810183528154815260018201546001600160a01b0316938101939093526002810180549192840191610eed90614dbc565b80601f0160208091040260200160405190810160405280929190818152602001828054610f1990614dbc565b8015610f665780601f10610f3b57610100808354040283529160200191610f66565b820191906000526020600020905b815481529060010190602001808311610f4957829003601f168201915b50505050508152602001600382018054610f7f90614dbc565b80601f0160208091040260200160405190810160405280929190818152602001828054610fab90614dbc565b8015610ff85780601f10610fcd57610100808354040283529160200191610ff8565b820191906000526020600020905b815481529060010190602001808311610fdb57829003601f168201915b50505050508152602001600482015481526020016005820154815260200160068201805461102590614dbc565b80601f016020809104026020016040519081016040528092919081815260200182805461105190614dbc565b801561109e5780601f106110735761010080835404028352916020019161109e565b820191906000526020600020905b81548152906001019060200180831161108157829003601f168201915b50505050508152602001600782015481526020016008820180546110c190614dbc565b80601f01602080910402602001604051908101604052809291908181526020018280546110ed90614dbc565b801561113a5780601f1061110f5761010080835404028352916020019161113a565b820191906000526020600020905b81548152906001019060200180831161111d57829003601f168201915b5050509190925250508151919250506106545760405162461bcd60e51b81526004016106a990614bee565b6000611180600080516020615443833981519152600061269d565b8061119e575061119e6000805160206154438339815191523361269d565b6111e05760405162461bcd60e51b81526020600482015260136024820152723737ba10383937b532b1ba1031b932b0ba37b960691b60448201526064016106a9565b61015f60009054906101000a90046001600160a01b03166001600160a01b031663bb1f47406040518163ffffffff1660e01b8152600401600060405180830381600087803b15801561123157600080fd5b505af1158015611245573d6000803e3d6000fd5b5050505061125560975460ff1690565b156112725760405162461bcd60e51b81526004016106a990614c42565b81516001600160a01b03166112b65760405162461bcd60e51b815260206004820152600a6024820152693d32b9379037bbb732b960b11b60448201526064016106a9565b6000826020015151116112f85760405162461bcd60e51b815260206004820152600a602482015269656d707479206e616d6560b01b60448201526064016106a9565b610100826020015151111561133f5760405162461bcd60e51b815260206004820152600d60248201526c6e616d6520746f6f206c6f6e6760981b60448201526064016106a9565b61010082604001515111156113875760405162461bcd60e51b815260206004820152600e60248201526d656d61696c20746f6f206c6f6e6760901b60448201526064016106a9565b61080082606001515111156113d15760405162461bcd60e51b815260206004820152601060248201526f636f6e74656e7420746f6f206c6f6e6760801b60448201526064016106a9565b6108008260a0015151111561141c5760405162461bcd60e51b81526020600482015260116024820152706d6574616461746120746f6f206c6f6e6760781b60448201526064016106a9565b61015f60009054906101000a90046001600160a01b03166001600160a01b03166379a6a3a56040518163ffffffff1660e01b8152600401602060405180830381600087803b15801561146d57600080fd5b505af1158015611481573d6000803e3d6000fd5b505050506040513d601f19601f820116820180604052508101906114a59190614df7565b6040516020016114b791815260200190565b60408051808303601f1901815282825280516020918201206101208401835280845285516001600160a01b03908116838601908152878401518686019081528886015160608089019190915260006080808a0182905260a0808b01839052928c015160c08b01528b015160e08a0152908a01516101008901528481526101608652959095208651815590516001820180546001600160a01b0319169190931617909155925180519195506115729260028501929101906142a7565b506060820151805161158e9160038401916020909101906142a7565b506080820151600482015560a0820151600582015560c082015180516115be9160068401916020909101906142a7565b5060e0820151600782015561010082015180516115e59160088401916020909101906142a7565b506115f69150610161905082613a56565b61160257611602614c6c565b81600001516001600160a01b0316817fc9a2563ef6e863a3e90b633d77bef27cc637d965cadcc8e629740f13d6c5b83e84602001518560400151866060015187608001518860a0015160405161165c959493929190614e10565b60405180910390a3919050565b306001600160a01b037f00000000000000000000000000000000000000000000000000000000000000001614156116b25760405162461bcd60e51b81526004016106a990614d01565b7f00000000000000000000000000000000000000000000000000000000000000006001600160a01b03166116fb6000805160206153dc833981519152546001600160a01b031690565b6001600160a01b0316146117215760405162461bcd60e51b81526004016106a990614d4d565b61172a82613818565b610a398282600161383f565b6000306001600160a01b037f000000000000000000000000000000000000000000000000000000000000000016146117d65760405162461bcd60e51b815260206004820152603860248201527f555550535570677261646561626c653a206d757374206e6f742062652063616c60448201527f6c6564207468726f7567682064656c656761746563616c6c000000000000000060648201526084016106a9565b506000805160206153dc83398151915290565b60008481526101606020526040902080548591906118195760405162461bcd60e51b81526004016106a990614bee565b60018101546001600160a01b031633146118455760405162461bcd60e51b81526004016106a990614c17565b61015f60009054906101000a90046001600160a01b03166001600160a01b031663bb1f47406040518163ffffffff1660e01b8152600401600060405180830381600087803b15801561189657600080fd5b505af11580156118aa573d6000803e3d6000fd5b505050506118ba60975460ff1690565b156118d75760405162461bcd60e51b81526004016106a990614c42565b61080084111561191c5760405162461bcd60e51b815260206004820152601060248201526f636f6e74656e7420746f6f206c6f6e6760801b60448201526064016106a9565b600086815261016060205260409020805461193957611939614c6c565b600081600601805461194a90614dbc565b80601f016020809104026020016040519081016040528092919081815260200182805461197690614dbc565b80156119c35780601f10611998576101008083540402835291602001916119c3565b820191906000526020600020905b8154815290600101906020018083116119a657829003601f168201915b50505060078501549293506119df91505060068401898961432b565b50858360070181905550887f34fd38e6eebd32ffe18208627966f06ce8f8756fa72a8d8dd2ab1750c0f11e2383838b8b8b604051611a21959493929190614e98565b60405180910390a2505050505050505050565b600080516020615423833981519152611a4c81613721565b60005b85811015611b4057868682818110611a6957611a69614ed7565b9050602002810190611a7b9190614eed565b6101606000898985818110611a9257611a92614ed7565b9050602002810190611aa49190614eed565b3581526020810191909152604001600020611abf8282615066565b905050611af3878783818110611ad757611ad7614ed7565b9050602002810190611ae99190614eed565b6101619035613a56565b611b2e5760405162461bcd60e51b815260206004820152600c60248201526b191d5c1b1a58d85d19481a5960a21b60448201526064016106a9565b80611b388161512e565b915050611a4f565b5060005b83811015611b9c57611b8a600080516020615443833981519152868684818110611b7057611b70614ed7565b9050602002016020810190611b8591906144b6565b61372b565b80611b948161512e565b915050611b44565b508115611bbb57611bbb600080516020615423833981519152336137b1565b505050505050565b6000838152610160602052604090208054849190611bf35760405162461bcd60e51b81526004016106a990614bee565b60018101546001600160a01b03163314611c1f5760405162461bcd60e51b81526004016106a990614c17565b61015f60009054906101000a90046001600160a01b03166001600160a01b031663bb1f47406040518163ffffffff1660e01b8152600401600060405180830381600087803b158015611c7057600080fd5b505af1158015611c84573d6000803e3d6000fd5b50505050611c9460975460ff1690565b15611cb15760405162461bcd60e51b81526004016106a990614c42565b610800831115611cf75760405162461bcd60e51b81526020600482015260116024820152706d6574616461746120746f6f206c6f6e6760781b60448201526064016106a9565b6000858152610160602052604090208054611d1457611d14614c6c565b6000816008018054611d2590614dbc565b80601f0160208091040260200160405190810160405280929190818152602001828054611d5190614dbc565b8015611d9e5780601f10611d7357610100808354040283529160200191611d9e565b820191906000526020600020905b815481529060010190602001808311611d8157829003601f168201915b50939450611db693505050600884019050878761432b565b50867fc31c69f7d2faef3482aac0691da695aa5839c98a11dbbe8797fd91d7f8a4f6e28284600801604051611dec929190615149565b60405180910390a250505050505050565b6000611e096001613a69565b90508015611e21576000805461ff0019166101001790555b611e29613af6565b611e31613af6565b611e39613af6565b611e41613af6565b611e49613b1d565b611e51613b4c565b611e59613af6565b61015f80546001600160a01b0319166001600160a01b03851617905583611eae5760405162461bcd60e51b81526020600482015260096024820152686e6f2061646d696e7360b81b60448201526064016106a9565b60005b84811015611f4d576000868683818110611ecd57611ecd614ed7565b9050602002016020810190611ee291906144b6565b6001600160a01b03161415611f265760405162461bcd60e51b815260206004820152600a6024820152693d32b9379030b236b4b760b11b60448201526064016106a9565b611f3d6000878784818110611b7057611b70614ed7565b611f468161512e565b9050611eb1565b508115611f8457611f6c6000805160206154238339815191523261372b565b611f8460008051602061542383398151915280613b7b565b8015611fca576000805461ff0019169055604051600181527f7f26b83ff96e1f2b6a682f133852f6798a09c465da95921460cefb38474024989060200160405180910390a15b5050505050565b61015f60009054906101000a90046001600160a01b03166001600160a01b031663299372686040518163ffffffff1660e01b815260040160206040518083038186803b15801561202057600080fd5b505afa158015612034573d6000803e3d6000fd5b505050506040513d601f19601f820116820180604052508101906120589190614cc7565b6001600160a01b0316336001600160a01b0316148061210e575061015f60009054906101000a90046001600160a01b03166001600160a01b031663e29581aa6040518163ffffffff1660e01b815260040160206040518083038186803b1580156120c157600080fd5b505afa1580156120d5573d6000803e3d6000fd5b505050506040513d601f19601f820116820180604052508101906120f99190614cc7565b6001600160a01b0316336001600160a01b0316145b806121b0575061015f60009054906101000a90046001600160a01b03166001600160a01b03166327a099d86040518163ffffffff1660e01b815260040160206040518083038186803b15801561216357600080fd5b505afa158015612177573d6000803e3d6000fd5b505050506040513d601f19601f8201168201806040525081019061219b9190614cc7565b6001600160a01b0316336001600160a01b0316145b80612252575061015f60009054906101000a90046001600160a01b03166001600160a01b0316639c200b886040518163ffffffff1660e01b815260040160206040518083038186803b15801561220557600080fd5b505afa158015612219573d6000803e3d6000fd5b505050506040513d601f19601f8201168201806040525081019061223d9190614cc7565b6001600160a01b0316336001600160a01b0316145b6122895760405162461bcd60e51b81526020600482015260086024820152671b9bdd081a5b5c1b60c21b60448201526064016106a9565b60975460ff16156122ac5760405162461bcd60e51b81526004016106a990614c42565b60008381526101606020526040902080546122d95760405162461bcd60e51b81526004016106a990614bee565b828160040160008282546122ed9190614cb0565b92505081905550818160040160008282546123089190614c98565b909155505050505050565b61231e60003361269d565b61233a5760405162461bcd60e51b81526004016106a990614d99565b610b5e613bc6565b60008581526101606020526040902080548691906123725760405162461bcd60e51b81526004016106a990614bee565b60018101546001600160a01b0316331461239e5760405162461bcd60e51b81526004016106a990614c17565b61015f60009054906101000a90046001600160a01b03166001600160a01b031663bb1f47406040518163ffffffff1660e01b8152600401600060405180830381600087803b1580156123ef57600080fd5b505af1158015612403573d6000803e3d6000fd5b5050505061241360975460ff1690565b156124305760405162461bcd60e51b81526004016106a990614c42565b8461246a5760405162461bcd60e51b815260206004820152600a602482015269656d707479206e616d6560b01b60448201526064016106a9565b6101008511156124ac5760405162461bcd60e51b815260206004820152600d60248201526c6e616d6520746f6f206c6f6e6760981b60448201526064016106a9565b6101008311156124ef5760405162461bcd60e51b815260206004820152600e60248201526d656d61696c20746f6f206c6f6e6760901b60448201526064016106a9565b600087815261016060205260409020805461250c5761250c614c6c565b600081600201805461251d90614dbc565b80601f016020809104026020016040519081016040528092919081815260200182805461254990614dbc565b80156125965780601f1061256b57610100808354040283529160200191612596565b820191906000526020600020905b81548152906001019060200180831161257957829003601f168201915b5050505050905060008260030180546125ae90614dbc565b80601f01602080910402602001604051908101604052809291908181526020018280546125da90614dbc565b80156126275780601f106125fc57610100808354040283529160200191612627565b820191906000526020600020905b81548152906001019060200180831161260a57829003601f168201915b5093945061263f935050506002850190508a8a61432b565b5061264e60038401888861432b565b50897ffbe7b9226d0807aa630b0494cc4a185400061b1a4c1d0df3bc556f094498b16e83838c8c8c8c604051612689969594939291906151de565b60405180910390a250505050505050505050565b60009182526065602090815260408084206001600160a01b0393909316845291905290205460ff1690565b606060006126d76101616139b9565b905060006126fc848684116126ed576000613c1e565b6126f78785614cb0565b613c1e565b9050806001600160401b0381111561271657612716614649565b60405190808252806020026020018201604052801561274f57816020015b61273c61424c565b8152602001906001900390816127345790505b50925060005b81811015612a4757610160600061277861276f848a614c98565b61016190613c34565b815260208082019290925260409081016000208151610120810183528154815260018201546001600160a01b03169381019390935260028101805491928401916127c190614dbc565b80601f01602080910402602001604051908101604052809291908181526020018280546127ed90614dbc565b801561283a5780601f1061280f5761010080835404028352916020019161283a565b820191906000526020600020905b81548152906001019060200180831161281d57829003601f168201915b5050505050815260200160038201805461285390614dbc565b80601f016020809104026020016040519081016040528092919081815260200182805461287f90614dbc565b80156128cc5780601f106128a1576101008083540402835291602001916128cc565b820191906000526020600020905b8154815290600101906020018083116128af57829003601f168201915b5050505050815260200160048201548152602001600582015481526020016006820180546128f990614dbc565b80601f016020809104026020016040519081016040528092919081815260200182805461292590614dbc565b80156129725780601f1061294757610100808354040283529160200191612972565b820191906000526020600020905b81548152906001019060200180831161295557829003601f168201915b505050505081526020016007820154815260200160088201805461299590614dbc565b80601f01602080910402602001604051908101604052809291908181526020018280546129c190614dbc565b8015612a0e5780601f106129e357610100808354040283529160200191612a0e565b820191906000526020600020905b8154815290600101906020018083116129f157829003601f168201915b505050505081525050848281518110612a2957612a29614ed7565b60200260200101819052508080612a3f9061512e565b915050612755565b50505092915050565b612a5b60003361269d565b612a775760405162461bcd60e51b81526004016106a990614d99565b61015f80546001600160a01b0319166001600160a01b0392909216919091179055565b6000818152610160602052604090208054829190612aca5760405162461bcd60e51b81526004016106a990614bee565b60018101546001600160a01b03163314612af65760405162461bcd60e51b81526004016106a990614c17565b61015f60009054906101000a90046001600160a01b03166001600160a01b031663bb1f47406040518163ffffffff1660e01b8152600401600060405180830381600087803b158015612b4757600080fd5b505af1158015612b5b573d6000803e3d6000fd5b50505050612b6b60975460ff1690565b15612b885760405162461bcd60e51b81526004016106a990614c42565b6000838152610160602090815260408083208151610120810183528154815260018201546001600160a01b0316938101939093526002810180549192840191612bd090614dbc565b80601f0160208091040260200160405190810160405280929190818152602001828054612bfc90614dbc565b8015612c495780601f10612c1e57610100808354040283529160200191612c49565b820191906000526020600020905b815481529060010190602001808311612c2c57829003601f168201915b50505050508152602001600382018054612c6290614dbc565b80601f0160208091040260200160405190810160405280929190818152602001828054612c8e90614dbc565b8015612cdb5780601f10612cb057610100808354040283529160200191612cdb565b820191906000526020600020905b815481529060010190602001808311612cbe57829003601f168201915b505050505081526020016004820154815260200160058201548152602001600682018054612d0890614dbc565b80601f0160208091040260200160405190810160405280929190818152602001828054612d3490614dbc565b8015612d815780601f10612d5657610100808354040283529160200191612d81565b820191906000526020600020905b815481529060010190602001808311612d6457829003601f168201915b5050505050815260200160078201548152602001600882018054612da490614dbc565b80601f0160208091040260200160405190810160405280929190818152602001828054612dd090614dbc565b8015612e1d5780601f10612df257610100808354040283529160200191612e1d565b820191906000526020600020905b815481529060010190602001808311612e0057829003601f168201915b505050919092525050815191925050612e3857612e38614c6c565b61015f5460408051631384017160e31b815290516000926001600160a01b031691639c200b88916004808301926020929190829003018186803b158015612e7e57600080fd5b505afa158015612e92573d6000803e3d6000fd5b505050506040513d601f19601f82011682018060405250810190612eb69190614cc7565b60405163728007a960e11b8152600481018790529091506001600160a01b0382169063e5000f529060240160206040518083038186803b158015612ef957600080fd5b505afa158015612f0d573d6000803e3d6000fd5b505050506040513d601f19601f82011682018060405250810190612f319190614df7565b15612f7e5760405162461bcd60e51b815260206004820152601860248201527f70726f6a65637420686173207265736572766174696f6e73000000000000000060448201526064016106a9565b608082015115612fc55760405162461bcd60e51b815260206004820152601260248201527170726f6a6563742068617320657363726f7760701b60448201526064016106a9565b6000858152610160602052604081208181556001810180546001600160a01b031916905590612ff7600283018261439f565b61300560038301600061439f565b60048201600090556005820160009055600682016000613025919061439f565b600782016000905560088201600061303d919061439f565b5061304c905061016186613c40565b61305857613058614c6c565b81602001516001600160a01b0316857f0dfede72020edf94c02fe864fbd28e7615a81fb1ddde6c3224c7236b5b520a67846040015185606001518660c001518760e001518861010001516040516130b3959493929190614e10565b60405180910390a35050505050565b6000828152606560205260409020600101546130dd81613721565b6109ba83836137b1565b61015f60009054906101000a90046001600160a01b03166001600160a01b031663299372686040518163ffffffff1660e01b815260040160206040518083038186803b15801561313657600080fd5b505afa15801561314a573d6000803e3d6000fd5b505050506040513d601f19601f8201168201806040525081019061316e9190614cc7565b6001600160a01b0316336001600160a01b03161480613224575061015f60009054906101000a90046001600160a01b03166001600160a01b031663e29581aa6040518163ffffffff1660e01b815260040160206040518083038186803b1580156131d757600080fd5b505afa1580156131eb573d6000803e3d6000fd5b505050506040513d601f19601f8201168201806040525081019061320f9190614cc7565b6001600160a01b0316336001600160a01b0316145b806132c6575061015f60009054906101000a90046001600160a01b03166001600160a01b03166327a099d86040518163ffffffff1660e01b815260040160206040518083038186803b15801561327957600080fd5b505afa15801561328d573d6000803e3d6000fd5b505050506040513d601f19601f820116820180604052508101906132b19190614cc7565b6001600160a01b0316336001600160a01b0316145b80613368575061015f60009054906101000a90046001600160a01b03166001600160a01b0316639c200b886040518163ffffffff1660e01b815260040160206040518083038186803b15801561331b57600080fd5b505afa15801561332f573d6000803e3d6000fd5b505050506040513d601f19601f820116820180604052508101906133539190614cc7565b6001600160a01b0316336001600160a01b0316145b61339f5760405162461bcd60e51b81526020600482015260086024820152671b9bdd081a5b5c1b60c21b60448201526064016106a9565b60975460ff16156133c25760405162461bcd60e51b81526004016106a990614c42565b60008381526101606020526040902080546133ef5760405162461bcd60e51b81526004016106a990614bee565b828160050160008282546134039190614cb0565b92505081905550818160050160008282546123089190614c98565b600082815261016060205260409020805483919061344e5760405162461bcd60e51b81526004016106a990614bee565b61345960003361269d565b80613470575060018101546001600160a01b031633145b6134bc5760405162461bcd60e51b815260206004820152601a60248201527f6e6f742061646d696e206f722070726f6a656374206f776e657200000000000060448201526064016106a9565b61015f60009054906101000a90046001600160a01b03166001600160a01b031663bb1f47406040518163ffffffff1660e01b8152600401600060405180830381600087803b15801561350d57600080fd5b505af1158015613521573d6000803e3d6000fd5b5050505061353160975460ff1690565b1561354e5760405162461bcd60e51b81526004016106a990614c42565b6001600160a01b0383166135915760405162461bcd60e51b815260206004820152600a6024820152693d32b9379037bbb732b960b11b60448201526064016106a9565b60008481526101606020526040902080546135ae576135ae614c6c565b6001810180546001600160a01b038681166001600160a01b03198316811790935560405191169190829088907f1e33df2f19cae9abe592944dff51706da0aa04f97851c3113235a7056a338e9290600090a4505050505050565b61361360003361269d565b61362f5760405162461bcd60e51b81526004016106a990614d99565b816136675760405162461bcd60e51b81526020600482015260086024820152671e995c9bc81b5d5b60c21b60448201526064016106a9565b60006136746101616139b9565b905060006136948587841161368a576000613c1e565b6126f78885614cb0565b905060005b81811015613718576000610160816136b461276f858c614c98565b81526020019081526020016000209050848682600401546136d5919061523a565b6136df9190615259565b6004820155600581015485906136f690889061523a565b6137009190615259565b600590910155806137108161512e565b915050613699565b50505050505050565b610b1a8133613c4c565b613735828261269d565b610a395760008281526065602090815260408083206001600160a01b03851684529091529020805460ff1916600117905561376d3390565b6001600160a01b0316816001600160a01b0316837f2f8788117e7eff1d82e926ec794901d17c78024a50270940304540a733656f0d60405160405180910390a45050565b6137bb828261269d565b15610a395760008281526065602090815260408083206001600160a01b0385168085529252808320805460ff1916905551339285917ff6391f5c32d9c69d2a47ea670b442974b53935d1edc7fd64eb21e047a839171b9190a45050565b61382360003361269d565b610b1a5760405162461bcd60e51b81526004016106a990614d99565b7f4910fdfa16fed3260ed0e7147f7cc6da11a60208b5b9406d12a635614ffd91435460ff1615613872576109ba83613cb0565b826001600160a01b03166352d1902d6040518163ffffffff1660e01b815260040160206040518083038186803b1580156138ab57600080fd5b505afa9250505080156138db575060408051601f3d908101601f191682019092526138d891810190614df7565b60015b61393e5760405162461bcd60e51b815260206004820152602e60248201527f45524331393637557067726164653a206e657720696d706c656d656e7461746960448201526d6f6e206973206e6f74205555505360901b60648201526084016106a9565b6000805160206153dc83398151915281146139ad5760405162461bcd60e51b815260206004820152602960248201527f45524331393637557067726164653a20756e737570706f727465642070726f786044820152681a58589b195555525160ba1b60648201526084016106a9565b506109ba838383613d4c565b6000610654825490565b60975460ff16613a0c5760405162461bcd60e51b815260206004820152601460248201527314185d5cd8589b194e881b9bdd081c185d5cd95960621b60448201526064016106a9565b6097805460ff191690557f5db9ee0a495bf2e6ff9c91a7834c1ba4fdd244a5e8aa4e537bd38aeae4b073aa335b6040516001600160a01b03909116815260200160405180910390a1565b6000613a628383613d77565b9392505050565b60008054610100900460ff1615613ab0578160ff166001148015613a8c5750303b155b613aa85760405162461bcd60e51b81526004016106a99061527b565b506000919050565b60005460ff808416911610613ad75760405162461bcd60e51b81526004016106a99061527b565b506000805460ff191660ff92909216919091179055600190565b919050565b600054610100900460ff16610b5e5760405162461bcd60e51b81526004016106a9906152c9565b600054610100900460ff16613b445760405162461bcd60e51b81526004016106a9906152c9565b610b5e613dc6565b600054610100900460ff16613b735760405162461bcd60e51b81526004016106a9906152c9565b610b5e613df9565b600082815260656020526040808220600101805490849055905190918391839186917fbd79b86ffe0ab8e8776151514217cd7cacd52c909f66475c3af44e129f0b00ff9190a4505050565b60975460ff1615613be95760405162461bcd60e51b81526004016106a990614c42565b6097805460ff191660011790557f62e78cea01bee320cd4e420270b5ea74000d11b0c9f74754ebdbfc544b05a258613a393390565b6000818310613c2d5781613a62565b5090919050565b6000613a628383613e27565b6000613a628383613e51565b613c56828261269d565b610a3957613c6e816001600160a01b03166014613f44565b613c79836020613f44565b604051602001613c8a929190615314565b60408051601f198184030181529082905262461bcd60e51b82526106a991600401615389565b6001600160a01b0381163b613d1d5760405162461bcd60e51b815260206004820152602d60248201527f455243313936373a206e657720696d706c656d656e746174696f6e206973206e60448201526c1bdd08184818dbdb9d1c9858dd609a1b60648201526084016106a9565b6000805160206153dc83398151915280546001600160a01b0319166001600160a01b0392909216919091179055565b613d55836140df565b600082511180613d625750805b156109ba57613d71838361411f565b50505050565b6000818152600183016020526040812054613dbe57508154600181810184556000848152602080822090930184905584548482528286019093526040902091909155610654565b506000610654565b600054610100900460ff16613ded5760405162461bcd60e51b81526004016106a9906152c9565b6097805460ff19169055565b600054610100900460ff16613e205760405162461bcd60e51b81526004016106a9906152c9565b600160c955565b6000826000018281548110613e3e57613e3e614ed7565b9060005260206000200154905092915050565b60008181526001830160205260408120548015613f3a576000613e75600183614cb0565b8554909150600090613e8990600190614cb0565b9050818114613eee576000866000018281548110613ea957613ea9614ed7565b9060005260206000200154905080876000018481548110613ecc57613ecc614ed7565b6000918252602080832090910192909255918252600188019052604090208390555b8554869080613eff57613eff61539c565b600190038181906000526020600020016000905590558560010160008681526020019081526020016000206000905560019350505050610654565b6000915050610654565b60606000613f5383600261523a565b613f5e906002614c98565b6001600160401b03811115613f7557613f75614649565b6040519080825280601f01601f191660200182016040528015613f9f576020820181803683370190505b509050600360fc1b81600081518110613fba57613fba614ed7565b60200101906001600160f81b031916908160001a905350600f60fb1b81600181518110613fe957613fe9614ed7565b60200101906001600160f81b031916908160001a905350600061400d84600261523a565b614018906001614c98565b90505b6001811115614090576f181899199a1a9b1b9c1cb0b131b232b360811b85600f166010811061404c5761404c614ed7565b1a60f81b82828151811061406257614062614ed7565b60200101906001600160f81b031916908160001a90535060049490941c93614089816153b2565b905061401b565b508315613a625760405162461bcd60e51b815260206004820181905260248201527f537472696e67733a20686578206c656e67746820696e73756666696369656e7460448201526064016106a9565b6140e881613cb0565b6040516001600160a01b038216907fbc7cd75a20ee27fd9adebab32041f755214dbc6bffa90cc0225b39da2e5c2d3b90600090a250565b60606001600160a01b0383163b6141875760405162461bcd60e51b815260206004820152602660248201527f416464726573733a2064656c65676174652063616c6c20746f206e6f6e2d636f6044820152651b9d1c9858dd60d21b60648201526084016106a9565b600080846001600160a01b0316846040516141a291906153c9565b600060405180830381855af49150503d80600081146141dd576040519150601f19603f3d011682016040523d82523d6000602084013e6141e2565b606091505b509150915061420a82826040518060600160405280602781526020016153fc60279139614213565b95945050505050565b60608315614222575081613a62565b8251156142325782518084602001fd5b8160405162461bcd60e51b81526004016106a99190615389565b6040518061012001604052806000801916815260200160006001600160a01b03168152602001606081526020016060815260200160008152602001600081526020016060815260200160008019168152602001606081525090565b8280546142b390614dbc565b90600052602060002090601f0160209004810192826142d5576000855561431b565b82601f106142ee57805160ff191683800117855561431b565b8280016001018555821561431b579182015b8281111561431b578251825591602001919060010190614300565b506143279291506143d5565b5090565b82805461433790614dbc565b90600052602060002090601f016020900481019282614359576000855561431b565b82601f106143725782800160ff1982351617855561431b565b8280016001018555821561431b579182015b8281111561431b578235825591602001919060010190614384565b5080546143ab90614dbc565b6000825580601f106143bb575050565b601f016020900490600052602060002090810190610b1a91905b5b8082111561432757600081556001016143d6565b6000602082840312156143fc57600080fd5b81356001600160e01b031981168114613a6257600080fd5b6001600160a01b0381168114610b1a57600080fd5b8035613af181614414565b60008060006060848603121561444957600080fd5b8335925060208401359150604084013561446281614414565b809150509250925092565b60006020828403121561447f57600080fd5b5035919050565b6000806040838503121561449957600080fd5b8235915060208301356144ab81614414565b809150509250929050565b6000602082840312156144c857600080fd5b8135613a6281614414565b60008060008060008060c087890312156144ec57600080fd5b863595506020870135945060408701359350606087013560ff8116811461451257600080fd5b9598949750929560808101359460a0909101359350915050565b60005b8381101561454757818101518382015260200161452f565b83811115613d715750506000910152565b6000815180845261457081602086016020860161452c565b601f01601f19169290920160200192915050565b60006101208251845260208301516145a760208601826001600160a01b03169052565b5060408301518160408601526145bf82860182614558565b915050606083015184820360608601526145d98282614558565b9150506080830151608085015260a083015160a085015260c083015184820360c08601526146078282614558565b91505060e083015160e0850152610100808401518583038287015261462c8382614558565b9695505050505050565b602081526000613a626020830184614584565b634e487b7160e01b600052604160045260246000fd5b60405160c081016001600160401b038111828210171561468157614681614649565b60405290565b60006001600160401b03808411156146a1576146a1614649565b604051601f8501601f19908116603f011681019082821181831017156146c9576146c9614649565b816040528093508581528686860111156146e257600080fd5b858560208301376000602087830101525050509392505050565b600082601f83011261470d57600080fd5b613a6283833560208501614687565b60006020828403121561472e57600080fd5b81356001600160401b038082111561474557600080fd5b9083019060c0828603121561475957600080fd5b61476161465f565b61476a83614429565b815260208301358281111561477e57600080fd5b61478a878286016146fc565b6020830152506040830135828111156147a257600080fd5b6147ae878286016146fc565b6040830152506060830135828111156147c657600080fd5b6147d2878286016146fc565b6060830152506080830135608082015260a0830135828111156147f457600080fd5b614800878286016146fc565b60a08301525095945050505050565b6000806040838503121561482257600080fd5b823561482d81614414565b915060208301356001600160401b0381111561484857600080fd5b8301601f8101851361485957600080fd5b61486885823560208401614687565b9150509250929050565b60008083601f84011261488457600080fd5b5081356001600160401b0381111561489b57600080fd5b6020830191508360208285010111156148b357600080fd5b9250929050565b600080600080606085870312156148d057600080fd5b8435935060208501356001600160401b038111156148ed57600080fd5b6148f987828801614872565b9598909750949560400135949350505050565b60008083601f84011261491e57600080fd5b5081356001600160401b0381111561493557600080fd5b6020830191508360208260051b85010111156148b357600080fd5b8015158114610b1a57600080fd5b60008060008060006060868803121561497657600080fd5b85356001600160401b038082111561498d57600080fd5b61499989838a0161490c565b909750955060208801359150808211156149b257600080fd5b506149bf8882890161490c565b90945092505060408601356149d381614950565b809150509295509295909350565b6000806000604084860312156149f657600080fd5b8335925060208401356001600160401b03811115614a1357600080fd5b614a1f86828701614872565b9497909650939450505050565b60008060008060608587031215614a4257600080fd5b84356001600160401b03811115614a5857600080fd5b614a648782880161490c565b9095509350506020850135614a7881614414565b91506040850135614a8881614950565b939692955090935050565b600080600060608486031215614aa857600080fd5b505081359360208301359350604090920135919050565b600080600080600060608688031215614ad757600080fd5b8535945060208601356001600160401b0380821115614af557600080fd5b614b0189838a01614872565b90965094506040880135915080821115614b1a57600080fd5b50614b2788828901614872565b969995985093965092949392505050565b60008060408385031215614b4b57600080fd5b50508035926020909101359150565b6000602080830181845280855180835260408601915060408160051b870101925083870160005b82811015614baf57603f19888603018452614b9d858351614584565b94509285019290850190600101614b81565b5092979650505050505050565b60008060008060808587031215614bd257600080fd5b5050823594602084013594506040840135936060013592509050565b6020808252600f908201526e1d5b9adb9bdddb881c1c9bda9958dd608a1b604082015260600190565b6020808252601190820152703737ba10383937b532b1ba1037bbb732b960791b604082015260600190565b60208082526010908201526f14185d5cd8589b194e881c185d5cd95960821b604082015260600190565b634e487b7160e01b600052600160045260246000fd5b634e487b7160e01b600052601160045260246000fd5b60008219821115614cab57614cab614c82565b500190565b600082821015614cc257614cc2614c82565b500390565b600060208284031215614cd957600080fd5b8151613a6281614414565b600060208284031215614cf657600080fd5b8151613a6281614950565b6020808252602c908201527f46756e6374696f6e206d7573742062652063616c6c6564207468726f7567682060408201526b19195b1959d85d1958d85b1b60a21b606082015260800190565b6020808252602c908201527f46756e6374696f6e206d7573742062652063616c6c6564207468726f7567682060408201526b6163746976652070726f787960a01b606082015260800190565b6020808252600990820152683737ba1030b236b4b760b91b604082015260600190565b600181811c90821680614dd057607f821691505b60208210811415614df157634e487b7160e01b600052602260045260246000fd5b50919050565b600060208284031215614e0957600080fd5b5051919050565b60a081526000614e2360a0830188614558565b8281036020840152614e358188614558565b90508281036040840152614e498187614558565b90508460608401528281036080840152614e638185614558565b98975050505050505050565b81835281816020850137506000828201602090810191909152601f909101601f19169091010190565b608081526000614eab6080830188614558565b8660208401528281036040840152614ec4818688614e6f565b9150508260608301529695505050505050565b634e487b7160e01b600052603260045260246000fd5b6000823561011e19833603018112614f0457600080fd5b9190910192915050565b6000813561065481614414565b6000808335601e19843603018112614f3257600080fd5b8301803591506001600160401b03821115614f4c57600080fd5b6020019150368190038213156148b357600080fd5b601f8211156109ba57600081815260208120601f850160051c81016020861015614f885750805b601f850160051c820191505b81811015611bbb57828155600101614f94565b6001600160401b03831115614fbe57614fbe614649565b614fd283614fcc8354614dbc565b83614f61565b6000601f8411600181146150065760008515614fee5750838201355b600019600387901b1c1916600186901b178355611fca565b600083815260209020601f19861690835b828110156150375786850135825560209485019460019092019101615017565b50868210156150545760001960f88860031b161c19848701351681555b505060018560011b0183555050505050565b8135815561509d61507960208401614f0e565b6001830180546001600160a01b0319166001600160a01b0392909216919091179055565b6150aa6040830183614f1b565b6150b8818360028601614fa7565b50506150c76060830183614f1b565b6150d5818360038601614fa7565b50506080820135600482015560a082013560058201556150f860c0830183614f1b565b615106818360068601614fa7565b505060e08201356007820155615120610100830183614f1b565b613d71818360088601614fa7565b600060001982141561514257615142614c82565b5060010190565b60408152600061515c6040830185614558565b6020838203818501526000855461517281614dbc565b8085526001828116801561518d57600181146151a1576151cf565b60ff198416878701526040870194506151cf565b896000528560002060005b848110156151c75781548982018901529083019087016151ac565b880187019550505b50929998505050505050505050565b6080815260006151f16080830189614558565b82810360208401526152038189614558565b90508281036040840152615218818789614e6f565b9050828103606084015261522d818587614e6f565b9998505050505050505050565b600081600019048311821515161561525457615254614c82565b500290565b60008261527657634e487b7160e01b600052601260045260246000fd5b500490565b6020808252602e908201527f496e697469616c697a61626c653a20636f6e747261637420697320616c72656160408201526d191e481a5b9a5d1a585b1a5e995960921b606082015260800190565b6020808252602b908201527f496e697469616c697a61626c653a20636f6e7472616374206973206e6f74206960408201526a6e697469616c697a696e6760a81b606082015260800190565b7f416363657373436f6e74726f6c3a206163636f756e742000000000000000000081526000835161534c81601785016020880161452c565b7001034b99036b4b9b9b4b733903937b6329607d1b601791840191820152835161537d81602884016020880161452c565b01602801949350505050565b602081526000613a626020830184614558565b634e487b7160e01b600052603160045260246000fd5b6000816153c1576153c1614c82565b506000190190565b60008251614f0481846020870161452c56fe360894a13ba1a3210667c828492db98dca3e2076cc3735a920a3ca505d382bbc416464726573733a206c6f772d6c6576656c2064656c65676174652063616c6c206661696c65649dd0c3bd9bb5e1c820c362d05d5cb38480246edb10ff416751bc3dcaccab86fea91575122619884f8f346f6f08d276f996bc367457e1cf69df01d9361cf4e0f1a264697066735822122008fded29346ba7c42572ee55e8dc12c3788e12a8582f8938e54dc14494f7570c64736f6c63430008090033",
  "devdoc": {
    "kind": "dev",
    "methods": {
      "createProject((address,string,string,string,bytes32,string))": {
        "details": "Does not check name or email for validity or uniqueness"
      },
      "depositProjectEscrow(bytes32,uint256,uint256,uint8,bytes32,bytes32)": {
        "details": "Needs either a token allowance from msg.sender, or a gasless approval (v/r/s != 0).CAUTION: To avoid loss of funds, do NOT deposit to this contract by token.transfer()."
      },
      "getProject(bytes32)": {
        "details": "Reverts if the id is unknown"
      },
      "getProjects(uint256,uint256)": {
        "details": "Truncates the results if skip or size are out of bounds"
      },
      "getRoleAdmin(bytes32)": {
        "details": "Returns the admin role that controls `role`. See {grantRole} and {revokeRole}. To change a role's admin, use {_setRoleAdmin}."
      },
      "grantRole(bytes32,address)": {
        "details": "Grants `role` to `account`. If `account` had not been already granted `role`, emits a {RoleGranted} event. Requirements: - the caller must have ``role``'s admin role."
      },
      "hasRole(bytes32,address)": {
        "details": "Returns `true` if `account` has been granted `role`."
      },
      "initialize(address[],address,bool)": {
        "details": "Called once to set up the contract. Not called during proxy upgrades.",
        "params": {
          "grantImporterRole": "allows the contract deployer to import initial data into the contract using unsafeImport* functions, which is used for proxy-less upgrades. CAUTION: Once import is finished, the importer role should be explicitly revoked."
        }
      },
      "paused()": {
        "details": "Returns true if the contract is paused, and false otherwise."
      },
      "proxiableUUID()": {
        "details": "Implementation of the ERC1822 {proxiableUUID} function. This returns the storage slot used by the implementation. It is used to validate that the this implementation remains valid after an upgrade. IMPORTANT: A proxy pointing at a proxiable contract should not be considered proxiable itself, because this risks bricking a proxy that upgrades to it, by delegating to itself until out of gas. Thus it is critical that this function revert if invoked through a proxy. This is guaranteed by the `notDelegated` modifier."
      },
      "renounceRole(bytes32,address)": {
        "details": "Revokes `role` from the calling account. Roles are often managed via {grantRole} and {revokeRole}: this function's purpose is to provide a mechanism for accounts to lose their privileges if they are compromised (such as when a trusted device is misplaced). If the calling account had been revoked `role`, emits a {RoleRevoked} event. Requirements: - the caller must be `account`."
      },
      "revokeRole(bytes32,address)": {
        "details": "Revokes `role` from `account`. If `account` had been granted `role`, emits a {RoleRevoked} event. Requirements: - the caller must have ``role``'s admin role."
      },
      "setProjectProps(bytes32,string,string)": {
        "details": "Does not check name or email for validity or uniqueness"
      },
      "supportsInterface(bytes4)": {
        "details": "See {IERC165-supportsInterface}."
      },
      "unsafeImportData((bytes32,address,string,string,uint256,uint256,string,bytes32,string)[],address[],bool)": {
        "details": "Allows to import initial contract data. Used for proxy-less upgrades.",
        "params": {
          "creators": "Adding the zero address will allow anyone to create projects.",
          "revokeImporterRole": "stops further data import by revoking the role. CAUTION: Once import is finished, the role should be explicitly revoked."
        }
      },
      "unsafeSetEscrows(uint256,uint256,uint256,uint256)": {
        "details": "Adjusts multiple projects escrows relative to their current values.CAUTION: This can break data consistency. Used for proxy-less upgrades."
      },
      "unsafeSetRegistry(address)": {
        "details": "CAUTION: This can break data consistency. Used for proxy-less upgrades."
      },
      "upgradeTo(address)": {
        "details": "Upgrade the implementation of the proxy to `newImplementation`. Calls {_authorizeUpgrade}. Emits an {Upgraded} event."
      },
      "upgradeToAndCall(address,bytes)": {
        "details": "Upgrade the implementation of the proxy to `newImplementation`, and subsequently execute the function call encoded in `data`. Calls {_authorizeUpgrade}. Emits an {Upgraded} event."
      }
    },
    "title": "Entry point for managing projects that host content on the network",
    "version": 1
  },
  "userdoc": {
    "kind": "user",
    "methods": {
      "createProject((address,string,string,string,bytes32,string))": {
        "notice": "Registers a new project. Requires project creator role."
      },
      "deleteProject(bytes32)": {
        "notice": "Unregisters a project. Reverts if project has escrow or reservations."
      },
      "depositProjectEscrow(bytes32,uint256,uint256,uint8,bytes32,bytes32)": {
        "notice": "Transfers USDC into the contract and applies them toward given operator stake."
      },
      "setProjectContent(bytes32,string,bytes32)": {
        "notice": "Publishes new content on the network"
      },
      "setProjectMetadata(bytes32,string)": {
        "notice": "Sets project metadata"
      },
      "withdrawProjectEscrow(bytes32,uint256,address)": {
        "notice": "Transfers escrow from contract to given recipient. Reverts if escrow is reserved."
      }
    },
    "version": 1
  },
  "storageLayout": {
    "storage": [
      {
        "astId": 808,
        "contract": "contracts/ArmadaProjects.sol:ArmadaProjects",
        "label": "_initialized",
        "offset": 0,
        "slot": "0",
        "type": "t_uint8"
      },
      {
        "astId": 811,
        "contract": "contracts/ArmadaProjects.sol:ArmadaProjects",
        "label": "_initializing",
        "offset": 1,
        "slot": "0",
        "type": "t_bool"
      },
      {
        "astId": 1533,
        "contract": "contracts/ArmadaProjects.sol:ArmadaProjects",
        "label": "__gap",
        "offset": 0,
        "slot": "1",
        "type": "t_array(t_uint256)50_storage"
      },
      {
        "astId": 1840,
        "contract": "contracts/ArmadaProjects.sol:ArmadaProjects",
        "label": "__gap",
        "offset": 0,
        "slot": "51",
        "type": "t_array(t_uint256)50_storage"
      },
      {
        "astId": 39,
        "contract": "contracts/ArmadaProjects.sol:ArmadaProjects",
        "label": "_roles",
        "offset": 0,
        "slot": "101",
        "type": "t_mapping(t_bytes32,t_struct(RoleData)34_storage)"
      },
      {
        "astId": 338,
        "contract": "contracts/ArmadaProjects.sol:ArmadaProjects",
        "label": "__gap",
        "offset": 0,
        "slot": "102",
        "type": "t_array(t_uint256)49_storage"
      },
      {
        "astId": 1100,
        "contract": "contracts/ArmadaProjects.sol:ArmadaProjects",
        "label": "_paused",
        "offset": 0,
        "slot": "151",
        "type": "t_bool"
      },
      {
        "astId": 1189,
        "contract": "contracts/ArmadaProjects.sol:ArmadaProjects",
        "label": "__gap",
        "offset": 0,
        "slot": "152",
        "type": "t_array(t_uint256)49_storage"
      },
      {
        "astId": 1204,
        "contract": "contracts/ArmadaProjects.sol:ArmadaProjects",
        "label": "_status",
        "offset": 0,
        "slot": "201",
        "type": "t_uint256"
      },
      {
        "astId": 1248,
        "contract": "contracts/ArmadaProjects.sol:ArmadaProjects",
        "label": "__gap",
        "offset": 0,
        "slot": "202",
        "type": "t_array(t_uint256)49_storage"
      },
      {
        "astId": 790,
        "contract": "contracts/ArmadaProjects.sol:ArmadaProjects",
        "label": "__gap",
        "offset": 0,
        "slot": "251",
        "type": "t_array(t_uint256)50_storage"
      },
      {
        "astId": 1078,
        "contract": "contracts/ArmadaProjects.sol:ArmadaProjects",
        "label": "__gap",
        "offset": 0,
        "slot": "301",
        "type": "t_array(t_uint256)50_storage"
      },
      {
        "astId": 14836,
        "contract": "contracts/ArmadaProjects.sol:ArmadaProjects",
        "label": "_registry",
        "offset": 0,
        "slot": "351",
        "type": "t_contract(ArmadaRegistry)17384"
      },
      {
        "astId": 14841,
        "contract": "contracts/ArmadaProjects.sol:ArmadaProjects",
        "label": "_projects",
        "offset": 0,
        "slot": "352",
        "type": "t_mapping(t_bytes32,t_struct(ArmadaProject)18921_storage)"
      },
      {
        "astId": 14844,
        "contract": "contracts/ArmadaProjects.sol:ArmadaProjects",
        "label": "_projectIds",
        "offset": 0,
        "slot": "353",
        "type": "t_struct(Bytes32Set)9898_storage"
      }
    ],
    "types": {
      "t_address": {
        "encoding": "inplace",
        "label": "address",
        "numberOfBytes": "20"
      },
      "t_array(t_bytes32)dyn_storage": {
        "base": "t_bytes32",
        "encoding": "dynamic_array",
        "label": "bytes32[]",
        "numberOfBytes": "32"
      },
      "t_array(t_uint256)49_storage": {
        "base": "t_uint256",
        "encoding": "inplace",
        "label": "uint256[49]",
        "numberOfBytes": "1568"
      },
      "t_array(t_uint256)50_storage": {
        "base": "t_uint256",
        "encoding": "inplace",
        "label": "uint256[50]",
        "numberOfBytes": "1600"
      },
      "t_bool": {
        "encoding": "inplace",
        "label": "bool",
        "numberOfBytes": "1"
      },
      "t_bytes32": {
        "encoding": "inplace",
        "label": "bytes32",
        "numberOfBytes": "32"
      },
      "t_contract(ArmadaRegistry)17384": {
        "encoding": "inplace",
        "label": "contract ArmadaRegistry",
        "numberOfBytes": "20"
      },
      "t_mapping(t_address,t_bool)": {
        "encoding": "mapping",
        "key": "t_address",
        "label": "mapping(address => bool)",
        "numberOfBytes": "32",
        "value": "t_bool"
      },
      "t_mapping(t_bytes32,t_struct(ArmadaProject)18921_storage)": {
        "encoding": "mapping",
        "key": "t_bytes32",
        "label": "mapping(bytes32 => struct ArmadaProject)",
        "numberOfBytes": "32",
        "value": "t_struct(ArmadaProject)18921_storage"
      },
      "t_mapping(t_bytes32,t_struct(RoleData)34_storage)": {
        "encoding": "mapping",
        "key": "t_bytes32",
        "label": "mapping(bytes32 => struct AccessControlUpgradeable.RoleData)",
        "numberOfBytes": "32",
        "value": "t_struct(RoleData)34_storage"
      },
      "t_mapping(t_bytes32,t_uint256)": {
        "encoding": "mapping",
        "key": "t_bytes32",
        "label": "mapping(bytes32 => uint256)",
        "numberOfBytes": "32",
        "value": "t_uint256"
      },
      "t_string_storage": {
        "encoding": "bytes",
        "label": "string",
        "numberOfBytes": "32"
      },
      "t_struct(ArmadaProject)18921_storage": {
        "encoding": "inplace",
        "label": "struct ArmadaProject",
        "members": [
          {
            "astId": 18904,
            "contract": "contracts/ArmadaProjects.sol:ArmadaProjects",
            "label": "id",
            "offset": 0,
            "slot": "0",
            "type": "t_bytes32"
          },
          {
            "astId": 18906,
            "contract": "contracts/ArmadaProjects.sol:ArmadaProjects",
            "label": "owner",
            "offset": 0,
            "slot": "1",
            "type": "t_address"
          },
          {
            "astId": 18908,
            "contract": "contracts/ArmadaProjects.sol:ArmadaProjects",
            "label": "name",
            "offset": 0,
            "slot": "2",
            "type": "t_string_storage"
          },
          {
            "astId": 18910,
            "contract": "contracts/ArmadaProjects.sol:ArmadaProjects",
            "label": "email",
            "offset": 0,
            "slot": "3",
            "type": "t_string_storage"
          },
          {
            "astId": 18912,
            "contract": "contracts/ArmadaProjects.sol:ArmadaProjects",
            "label": "escrow",
            "offset": 0,
            "slot": "4",
            "type": "t_uint256"
          },
          {
            "astId": 18914,
            "contract": "contracts/ArmadaProjects.sol:ArmadaProjects",
            "label": "reserve",
            "offset": 0,
            "slot": "5",
            "type": "t_uint256"
          },
          {
            "astId": 18916,
            "contract": "contracts/ArmadaProjects.sol:ArmadaProjects",
            "label": "content",
            "offset": 0,
            "slot": "6",
            "type": "t_string_storage"
          },
          {
            "astId": 18918,
            "contract": "contracts/ArmadaProjects.sol:ArmadaProjects",
            "label": "checksum",
            "offset": 0,
            "slot": "7",
            "type": "t_bytes32"
          },
          {
            "astId": 18920,
            "contract": "contracts/ArmadaProjects.sol:ArmadaProjects",
            "label": "metadata",
            "offset": 0,
            "slot": "8",
            "type": "t_string_storage"
          }
        ],
        "numberOfBytes": "288"
      },
      "t_struct(Bytes32Set)9898_storage": {
        "encoding": "inplace",
        "label": "struct EnumerableSet.Bytes32Set",
        "members": [
          {
            "astId": 9897,
            "contract": "contracts/ArmadaProjects.sol:ArmadaProjects",
            "label": "_inner",
            "offset": 0,
            "slot": "0",
            "type": "t_struct(Set)9704_storage"
          }
        ],
        "numberOfBytes": "64"
      },
      "t_struct(RoleData)34_storage": {
        "encoding": "inplace",
        "label": "struct AccessControlUpgradeable.RoleData",
        "members": [
          {
            "astId": 31,
            "contract": "contracts/ArmadaProjects.sol:ArmadaProjects",
            "label": "members",
            "offset": 0,
            "slot": "0",
            "type": "t_mapping(t_address,t_bool)"
          },
          {
            "astId": 33,
            "contract": "contracts/ArmadaProjects.sol:ArmadaProjects",
            "label": "adminRole",
            "offset": 0,
            "slot": "1",
            "type": "t_bytes32"
          }
        ],
        "numberOfBytes": "64"
      },
      "t_struct(Set)9704_storage": {
        "encoding": "inplace",
        "label": "struct EnumerableSet.Set",
        "members": [
          {
            "astId": 9699,
            "contract": "contracts/ArmadaProjects.sol:ArmadaProjects",
            "label": "_values",
            "offset": 0,
            "slot": "0",
            "type": "t_array(t_bytes32)dyn_storage"
          },
          {
            "astId": 9703,
            "contract": "contracts/ArmadaProjects.sol:ArmadaProjects",
            "label": "_indexes",
            "offset": 0,
            "slot": "1",
            "type": "t_mapping(t_bytes32,t_uint256)"
          }
        ],
        "numberOfBytes": "64"
      },
      "t_uint256": {
        "encoding": "inplace",
        "label": "uint256",
        "numberOfBytes": "32"
      },
      "t_uint8": {
        "encoding": "inplace",
        "label": "uint8",
        "numberOfBytes": "1"
      }
    }
  }
}